{
  "_format": "hh-sol-artifact-1",
  "contractName": "Betting",
  "sourceName": "contracts/Betting.sol",
  "abi": [
    {
      "inputs": [
        {
          "internalType": "address",
          "name": "_link",
          "type": "address"
        }
      ],
      "stateMutability": "nonpayable",
      "type": "constructor"
    },
    {
      "anonymous": false,
      "inputs": [
        {
          "indexed": true,
          "internalType": "bytes32",
          "name": "id",
          "type": "bytes32"
        }
      ],
      "name": "ChainlinkCancelled",
      "type": "event"
    },
    {
      "anonymous": false,
      "inputs": [
        {
          "indexed": true,
          "internalType": "bytes32",
          "name": "id",
          "type": "bytes32"
        }
      ],
      "name": "ChainlinkFulfilled",
      "type": "event"
    },
    {
      "anonymous": false,
      "inputs": [
        {
          "indexed": true,
          "internalType": "bytes32",
          "name": "id",
          "type": "bytes32"
        }
      ],
      "name": "ChainlinkRequested",
      "type": "event"
    },
    {
      "anonymous": false,
      "inputs": [
        {
          "indexed": true,
          "internalType": "address",
          "name": "previousOwner",
          "type": "address"
        },
        {
          "indexed": true,
          "internalType": "address",
          "name": "newOwner",
          "type": "address"
        }
      ],
      "name": "OwnershipTransferred",
      "type": "event"
    },
    {
      "anonymous": false,
      "inputs": [
        {
          "indexed": true,
          "internalType": "address",
          "name": "winner",
          "type": "address"
        },
        {
          "indexed": false,
          "internalType": "uint256",
          "name": "amount",
          "type": "uint256"
        }
      ],
      "name": "WinnerPayed",
      "type": "event"
    },
    {
      "inputs": [],
      "name": "actualTemperature",
      "outputs": [
        {
          "internalType": "uint256",
          "name": "",
          "type": "uint256"
        }
      ],
      "stateMutability": "view",
      "type": "function"
    },
    {
      "inputs": [],
      "name": "contractAddress",
      "outputs": [
        {
          "internalType": "address payable",
          "name": "",
          "type": "address"
        }
      ],
      "stateMutability": "view",
      "type": "function"
    },
    {
      "inputs": [
        {
          "internalType": "address",
          "name": "_oracle",
          "type": "address"
        },
        {
          "internalType": "string",
          "name": "_jobId",
          "type": "string"
        },
        {
          "internalType": "string",
          "name": "_city",
          "type": "string"
        }
      ],
      "name": "finalResult",
      "outputs": [],
      "stateMutability": "nonpayable",
      "type": "function"
    },
    {
      "inputs": [
        {
          "internalType": "bytes32",
          "name": "_requestId",
          "type": "bytes32"
        },
        {
          "internalType": "uint256",
          "name": "_result",
          "type": "uint256"
        }
      ],
      "name": "fulfillActualTemperature",
      "outputs": [],
      "stateMutability": "nonpayable",
      "type": "function"
    },
    {
      "inputs": [
        {
          "internalType": "bytes32",
          "name": "_requestId",
          "type": "bytes32"
        },
        {
          "internalType": "uint256",
          "name": "_result",
          "type": "uint256"
        }
      ],
      "name": "fulfillTemperaturePrediction",
      "outputs": [],
      "stateMutability": "nonpayable",
      "type": "function"
    },
    {
      "inputs": [
        {
          "internalType": "address",
          "name": "betterAddress",
          "type": "address"
        }
      ],
      "name": "getAmountBet",
      "outputs": [
        {
          "internalType": "uint256",
          "name": "",
          "type": "uint256"
        }
      ],
      "stateMutability": "view",
      "type": "function"
    },
    {
      "inputs": [
        {
          "internalType": "address",
          "name": "betterAddress",
          "type": "address"
        }
      ],
      "name": "getBet",
      "outputs": [
        {
          "internalType": "enum Bet",
          "name": "",
          "type": "uint8"
        }
      ],
      "stateMutability": "view",
      "type": "function"
    },
    {
      "inputs": [],
      "name": "getPrizeMoney",
      "outputs": [
        {
          "internalType": "uint256",
          "name": "",
          "type": "uint256"
        }
      ],
      "stateMutability": "view",
      "type": "function"
    },
    {
      "inputs": [],
      "name": "getTimeLeft",
      "outputs": [
        {
          "internalType": "uint256",
          "name": "",
          "type": "uint256"
        }
      ],
      "stateMutability": "view",
      "type": "function"
    },
    {
      "inputs": [
        {
          "internalType": "address",
          "name": "betterAddress",
          "type": "address"
        }
      ],
      "name": "hasBet",
      "outputs": [
        {
          "internalType": "bool",
          "name": "",
          "type": "bool"
        }
      ],
      "stateMutability": "view",
      "type": "function"
    },
    {
      "inputs": [],
      "name": "owner",
      "outputs": [
        {
          "internalType": "address",
          "name": "",
          "type": "address"
        }
      ],
      "stateMutability": "view",
      "type": "function"
    },
    {
      "inputs": [
        {
          "internalType": "enum Bet",
          "name": "_bet",
          "type": "uint8"
        }
      ],
      "name": "placeBet",
      "outputs": [],
      "stateMutability": "payable",
      "type": "function"
    },
    {
      "inputs": [],
      "name": "renounceOwnership",
      "outputs": [],
      "stateMutability": "nonpayable",
      "type": "function"
    },
    {
      "inputs": [
        {
          "internalType": "address",
          "name": "_oracle",
          "type": "address"
        },
        {
          "internalType": "string",
          "name": "_jobId",
          "type": "string"
        },
        {
          "internalType": "string",
          "name": "_city",
          "type": "string"
        },
        {
          "internalType": "enum WeatherType",
          "name": "_type",
          "type": "uint8"
        }
      ],
      "name": "requestTemperatureFor",
      "outputs": [],
      "stateMutability": "nonpayable",
      "type": "function"
    },
    {
      "inputs": [],
      "name": "temperaturePrediction",
      "outputs": [
        {
          "internalType": "uint256",
          "name": "",
          "type": "uint256"
        }
      ],
      "stateMutability": "view",
      "type": "function"
    },
    {
      "inputs": [
        {
          "internalType": "address",
          "name": "newOwner",
          "type": "address"
        }
      ],
      "name": "transferOwnership",
      "outputs": [],
      "stateMutability": "nonpayable",
      "type": "function"
    },
    {
      "inputs": [
        {
          "internalType": "address",
          "name": "",
          "type": "address"
        }
      ],
      "name": "users",
      "outputs": [
        {
          "internalType": "address",
          "name": "id",
          "type": "address"
        },
        {
          "internalType": "enum Bet",
          "name": "bet",
          "type": "uint8"
        },
        {
          "internalType": "bool",
          "name": "hasBet",
          "type": "bool"
        },
        {
          "internalType": "uint256",
          "name": "amountBet",
          "type": "uint256"
        },
        {
          "internalType": "uint256",
          "name": "winningPercentage",
          "type": "uint256"
        }
      ],
      "stateMutability": "view",
      "type": "function"
    },
    {
      "inputs": [
        {
          "internalType": "uint256",
          "name": "",
          "type": "uint256"
        }
      ],
      "name": "usersWhoHaveVoted",
      "outputs": [
        {
          "internalType": "address",
          "name": "",
          "type": "address"
        }
      ],
      "stateMutability": "view",
      "type": "function"
    }
  ],
  "bytecode": "0x608060405260016005553480156200001657600080fd5b50604051620035e1380380620035e183398181016040528101906200003c91906200032b565b6200005c620000506200011960201b60201c565b6200012160201b60201c565b600073ffffffffffffffffffffffffffffffffffffffff168173ffffffffffffffffffffffffffffffffffffffff161415620000a857620000a2620001e560201b60201c565b620000ba565b620000b9816200027d60201b60201c565b5b30600a60006101000a81548173ffffffffffffffffffffffffffffffffffffffff021916908373ffffffffffffffffffffffffffffffffffffffff16021790555062093a80426200010c919062000396565b60098190555050620003f3565b600033905090565b60008060009054906101000a900473ffffffffffffffffffffffffffffffffffffffff169050816000806101000a81548173ffffffffffffffffffffffffffffffffffffffff021916908373ffffffffffffffffffffffffffffffffffffffff1602179055508173ffffffffffffffffffffffffffffffffffffffff168173ffffffffffffffffffffffffffffffffffffffff167f8be0079c531659141344cd1fd0a4f28419497f9722a3daafe3b4186f6b6457e060405160405180910390a35050565b6200027b73c89bd4e1632d3a43cb03aaad5262cbe4038bc57173ffffffffffffffffffffffffffffffffffffffff166338cc48316040518163ffffffff1660e01b8152600401602060405180830381865afa15801562000249573d6000803e3d6000fd5b505050506040513d601f19601f820116820180604052508101906200026f91906200032b565b6200027d60201b60201c565b565b80600360006101000a81548173ffffffffffffffffffffffffffffffffffffffff021916908373ffffffffffffffffffffffffffffffffffffffff16021790555050565b600080fd5b600073ffffffffffffffffffffffffffffffffffffffff82169050919050565b6000620002f382620002c6565b9050919050565b6200030581620002e6565b81146200031157600080fd5b50565b6000815190506200032581620002fa565b92915050565b600060208284031215620003445762000343620002c1565b5b6000620003548482850162000314565b91505092915050565b6000819050919050565b7f4e487b7100000000000000000000000000000000000000000000000000000000600052601160045260246000fd5b6000620003a3826200035d565b9150620003b0836200035d565b9250827fffffffffffffffffffffffffffffffffffffffffffffffffffffffffffffffff03821115620003e857620003e762000367565b5b828201905092915050565b6131de80620004036000396000f3fe6080604052600436106101095760003560e01c80638da5cb5b11610095578063dc0da20111610064578063dc0da2011461034c578063eca894fd14610377578063f2fde38b146103b4578063f6b4dfb4146103dd578063f7566b491461040857610109565b80638da5cb5b1461028c578063a87430ba146102b7578063bae70303146102f8578063c7e284b81461032157610109565b806324ab4332116100dc57806324ab4332146101c85780634304684414610205578063715018a61461022157806379f1f40a146102385780638d3efc111461026357610109565b8063069c17db1461010e5780630737c24b14610137578063136f10161461016257806320f890e21461019f575b600080fd5b34801561011a57600080fd5b50610135600480360381019061013091906120b0565b610445565b005b34801561014357600080fd5b5061014c610556565b60405161015991906120ff565b60405180910390f35b34801561016e57600080fd5b5061018960048036038101906101849190612178565b6105af565b60405161019691906121c0565b60405180910390f35b3480156101ab57600080fd5b506101c660048036038101906101c191906120b0565b610608565b005b3480156101d457600080fd5b506101ef60048036038101906101ea9190612178565b610719565b6040516101fc91906120ff565b60405180910390f35b61021f600480360381019061021a9190612200565b610765565b005b34801561022d57600080fd5b506102366109e5565b005b34801561024457600080fd5b5061024d610a6d565b60405161025a91906120ff565b60405180910390f35b34801561026f57600080fd5b5061028a60048036038101906102859190612373565b610a73565b005b34801561029857600080fd5b506102a1610b6a565b6040516102ae919061240d565b60405180910390f35b3480156102c357600080fd5b506102de60048036038101906102d99190612178565b610b93565b6040516102ef95949392919061249f565b60405180910390f35b34801561030457600080fd5b5061031f600480360381019061031a9190612517565b610c03565b005b34801561032d57600080fd5b50610336610db6565b60405161034391906120ff565b60405180910390f35b34801561035857600080fd5b50610361610ddc565b60405161036e91906120ff565b60405180910390f35b34801561038357600080fd5b5061039e600480360381019061039991906125b6565b610de2565b6040516103ab919061240d565b60405180910390f35b3480156103c057600080fd5b506103db60048036038101906103d69190612178565b610e21565b005b3480156103e957600080fd5b506103f2610f19565b6040516103ff9190612604565b60405180910390f35b34801561041457600080fd5b5061042f600480360381019061042a9190612178565b610f3f565b60405161043c919061261f565b60405180910390f35b816006600082815260200190815260200160002060009054906101000a900473ffffffffffffffffffffffffffffffffffffffff1673ffffffffffffffffffffffffffffffffffffffff163373ffffffffffffffffffffffffffffffffffffffff16146104e7576040517f08c379a00000000000000000000000000000000000000000000000000000000081526004016104de906126bd565b60405180910390fd5b6006600082815260200190815260200160002060006101000a81549073ffffffffffffffffffffffffffffffffffffffff0219169055807f7cc135e0cebb02c3480ae5d74d377283180a2601f8f644edf7987b009316c63a60405160405180910390a281600781905550505050565b600060646063600a60009054906101000a900473ffffffffffffffffffffffffffffffffffffffff1673ffffffffffffffffffffffffffffffffffffffff16316105a0919061270c565b6105aa9190612795565b905090565b6000600c60008373ffffffffffffffffffffffffffffffffffffffff1673ffffffffffffffffffffffffffffffffffffffff16815260200190815260200160002060000160159054906101000a900460ff169050919050565b816006600082815260200190815260200160002060009054906101000a900473ffffffffffffffffffffffffffffffffffffffff1673ffffffffffffffffffffffffffffffffffffffff163373ffffffffffffffffffffffffffffffffffffffff16146106aa576040517f08c379a00000000000000000000000000000000000000000000000000000000081526004016106a1906126bd565b60405180910390fd5b6006600082815260200190815260200160002060006101000a81549073ffffffffffffffffffffffffffffffffffffffff0219169055807f7cc135e0cebb02c3480ae5d74d377283180a2601f8f644edf7987b009316c63a60405160405180910390a281600881905550505050565b6000600c60008373ffffffffffffffffffffffffffffffffffffffff1673ffffffffffffffffffffffffffffffffffffffff168152602001908152602001600020600101549050919050565b60095442106107a9576040517f08c379a00000000000000000000000000000000000000000000000000000000081526004016107a090612812565b60405180910390fd5b600c60003373ffffffffffffffffffffffffffffffffffffffff1673ffffffffffffffffffffffffffffffffffffffff16815260200190815260200160002060000160159054906101000a900460ff1615610839576040517f08c379a00000000000000000000000000000000000000000000000000000000081526004016108309061287e565b60405180910390fd5b60006040518060a001604052803373ffffffffffffffffffffffffffffffffffffffff16815260200183600281111561087557610874612428565b5b815260200160011515815260200134815260200160008152509050600b339080600181540180825580915050600190039060005260206000200160009091909190916101000a81548173ffffffffffffffffffffffffffffffffffffffff021916908373ffffffffffffffffffffffffffffffffffffffff16021790555080600c60003373ffffffffffffffffffffffffffffffffffffffff1673ffffffffffffffffffffffffffffffffffffffff16815260200190815260200160002060008201518160000160006101000a81548173ffffffffffffffffffffffffffffffffffffffff021916908373ffffffffffffffffffffffffffffffffffffffff16021790555060208201518160000160146101000a81548160ff021916908360028111156109a5576109a4612428565b5b021790555060408201518160000160156101000a81548160ff02191690831515021790555060608201518160010155608082015181600201559050505050565b6109ed610f98565b73ffffffffffffffffffffffffffffffffffffffff16610a0b610b6a565b73ffffffffffffffffffffffffffffffffffffffff1614610a61576040517f08c379a0000000000000000000000000000000000000000000000000000000008152600401610a58906128ea565b60405180910390fd5b610a6b6000610fa0565b565b60075481565b610a7b610f98565b73ffffffffffffffffffffffffffffffffffffffff16610a99610b6a565b73ffffffffffffffffffffffffffffffffffffffff1614610aef576040517f08c379a0000000000000000000000000000000000000000000000000000000008152600401610ae6906128ea565b60405180910390fd5b6009544211610b33576040517f08c379a0000000000000000000000000000000000000000000000000000000008152600401610b2a90612956565b60405180910390fd5b610b408383836002610c03565b610b48611064565b610b506112bf565b62093a8042610b5f9190612976565b600981905550505050565b60008060009054906101000a900473ffffffffffffffffffffffffffffffffffffffff16905090565b600c6020528060005260406000206000915090508060000160009054906101000a900473ffffffffffffffffffffffffffffffffffffffff16908060000160149054906101000a900460ff16908060000160159054906101000a900460ff16908060010154908060020154905085565b610c0b610f98565b73ffffffffffffffffffffffffffffffffffffffff16610c29610b6a565b73ffffffffffffffffffffffffffffffffffffffff1614610c7f576040517f08c379a0000000000000000000000000000000000000000000000000000000008152600401610c76906128ea565b60405180910390fd5b60006002811115610c9357610c92612428565b5b816002811115610ca657610ca5612428565b5b1415610ce7576040517f08c379a0000000000000000000000000000000000000000000000000000000008152600401610cde90612a18565b60405180910390fd5b600060016002811115610cfd57610cfc612428565b5b826002811115610d1057610d0f612428565b5b14610d22576320f890e260e01b610d2b565b63069c17db60e01b5b90506000610d42610d3b866113d2565b30846113fc565b9050610d8e6040518060400160405280600481526020017f6369747900000000000000000000000000000000000000000000000000000000815250858361142d9092919063ffffffff16565b610dad8682600a670de0b6b3a7640000610da89190612795565b611460565b50505050505050565b60006009544210610dc8576000610dd7565b42600954610dd69190612a38565b5b905090565b60085481565b600b8181548110610df257600080fd5b906000526020600020016000915054906101000a900473ffffffffffffffffffffffffffffffffffffffff1681565b610e29610f98565b73ffffffffffffffffffffffffffffffffffffffff16610e47610b6a565b73ffffffffffffffffffffffffffffffffffffffff1614610e9d576040517f08c379a0000000000000000000000000000000000000000000000000000000008152600401610e94906128ea565b60405180910390fd5b600073ffffffffffffffffffffffffffffffffffffffff168173ffffffffffffffffffffffffffffffffffffffff161415610f0d576040517f08c379a0000000000000000000000000000000000000000000000000000000008152600401610f0490612ade565b60405180910390fd5b610f1681610fa0565b50565b600a60009054906101000a900473ffffffffffffffffffffffffffffffffffffffff1681565b6000600c60008373ffffffffffffffffffffffffffffffffffffffff1673ffffffffffffffffffffffffffffffffffffffff16815260200190815260200160002060000160149054906101000a900460ff169050919050565b600033905090565b60008060009054906101000a900473ffffffffffffffffffffffffffffffffffffffff169050816000806101000a81548173ffffffffffffffffffffffffffffffffffffffff021916908373ffffffffffffffffffffffffffffffffffffffff1602179055508173ffffffffffffffffffffffffffffffffffffffff168173ffffffffffffffffffffffffffffffffffffffff167f8be0079c531659141344cd1fd0a4f28419497f9722a3daafe3b4186f6b6457e060405160405180910390a35050565b6000600a60009054906101000a900473ffffffffffffffffffffffffffffffffffffffff1673ffffffffffffffffffffffffffffffffffffffff163110156110e1576040517f08c379a00000000000000000000000000000000000000000000000000000000081526004016110d890612b4a565b60405180910390fd5b60006110eb611480565b90506000815111611131576040517f08c379a000000000000000000000000000000000000000000000000000000000815260040161112890612bb6565b60405180910390fd5b60005b81518110156112bb576000611147610556565b6064600c60008686815181106111605761115f612bd6565b5b602002602001015173ffffffffffffffffffffffffffffffffffffffff1673ffffffffffffffffffffffffffffffffffffffff168152602001908152602001600020600201546111b09190612795565b6111ba919061270c565b90508282815181106111cf576111ce612bd6565b5b602002602001015173ffffffffffffffffffffffffffffffffffffffff16816040516111fa90612c36565b60006040518083038185875af1925050503d8060008114611237576040519150601f19603f3d011682016040523d82523d6000602084013e61123c565b606091505b50505082828151811061125257611251612bd6565b5b602002602001015173ffffffffffffffffffffffffffffffffffffffff167f2897e467188c1ebbd157f72e82b2059710aea0df2ba4b6075e47e305087bbffe8260405161129f91906120ff565b60405180910390a25080806112b390612c4b565b915050611134565b5050565b60005b600b805490508110156113c157600c6000600b83815481106112e7576112e6612bd6565b5b9060005260206000200160009054906101000a900473ffffffffffffffffffffffffffffffffffffffff1673ffffffffffffffffffffffffffffffffffffffff1673ffffffffffffffffffffffffffffffffffffffff168152602001908152602001600020600080820160006101000a81549073ffffffffffffffffffffffffffffffffffffffff02191690556000820160146101000a81549060ff02191690556000820160156101000a81549060ff021916905560018201600090556002820160009055505080806113b990612c4b565b9150506112c2565b50600b60006113d09190611f6b565b565b6000808290506000815114156113ee576000801b9150506113f7565b60208301519150505b919050565b611404611f8c565b61140c611f8c565b61142385858584611816909392919063ffffffff16565b9150509392505050565b6114448284608001516118c690919063ffffffff16565b61145b8184608001516118c690919063ffffffff16565b505050565b60006114778484846001634042994660e01b6118eb565b90509392505050565b606060008060606000600754600854111561149e57600193506114b0565b60075460085410156114af57600293505b5b60005b600b80549050811015611717578460028111156114d3576114d2612428565b5b600c6000600b84815481106114eb576114ea612bd6565b5b9060005260206000200160009054906101000a900473ffffffffffffffffffffffffffffffffffffffff1673ffffffffffffffffffffffffffffffffffffffff1673ffffffffffffffffffffffffffffffffffffffff16815260200190815260200160002060000160149054906101000a900460ff16600281111561157357611572612428565b5b141561170457600c6000600b838154811061159157611590612bd6565b5b9060005260206000200160009054906101000a900473ffffffffffffffffffffffffffffffffffffffff1673ffffffffffffffffffffffffffffffffffffffff1673ffffffffffffffffffffffffffffffffffffffff16815260200190815260200160002060010154846116059190612976565b9350600c6000600b838154811061161f5761161e612bd6565b5b9060005260206000200160009054906101000a900473ffffffffffffffffffffffffffffffffffffffff1673ffffffffffffffffffffffffffffffffffffffff1673ffffffffffffffffffffffffffffffffffffffff16815260200190815260200160002060000160009054906101000a900473ffffffffffffffffffffffffffffffffffffffff168383815181106116bb576116ba612bd6565b5b602002602001019073ffffffffffffffffffffffffffffffffffffffff16908173ffffffffffffffffffffffffffffffffffffffff1681525050818061170090612c4b565b9250505b808061170f90612c4b565b9150506114b3565b5060005b825181101561180b57606484600c600086858151811061173e5761173d612bd6565b5b602002602001015173ffffffffffffffffffffffffffffffffffffffff1673ffffffffffffffffffffffffffffffffffffffff1681526020019081526020016000206001015461178e9190612795565b611798919061270c565b600c60008584815181106117af576117ae612bd6565b5b602002602001015173ffffffffffffffffffffffffffffffffffffffff1673ffffffffffffffffffffffffffffffffffffffff16815260200190815260200160002060020181905550808061180390612c4b565b91505061171b565b508194505050505090565b61181e611f8c565b61182e8560800151610100611b44565b508385600001818152505082856020019073ffffffffffffffffffffffffffffffffffffffff16908173ffffffffffffffffffffffffffffffffffffffff16815250508185604001907bffffffffffffffffffffffffffffffffffffffffffffffffffffffff191690817bffffffffffffffffffffffffffffffffffffffffffffffffffffffff191681525050849050949350505050565b6118d38260038351611bae565b6118e68183611cf390919063ffffffff16565b505050565b600030600554604051602001611902929190612d4d565b604051602081830303815290604052805190602001209050600554856060018181525050856006600083815260200190815260200160002060006101000a81548173ffffffffffffffffffffffffffffffffffffffff021916908373ffffffffffffffffffffffffffffffffffffffff160217905550807fb5e6e01e79f91267dc17b4e6314d5d4d03593d2ceee0fbb452b750bd70ea5af960405160405180910390a2600082600080886000015189602001518a604001518b606001518a8d60800151600001516040516024016119e0989796959493929190612e4b565b604051602081830303815290604052907bffffffffffffffffffffffffffffffffffffffffffffffffffffffff19166020820180517bffffffffffffffffffffffffffffffffffffffffffffffffffffffff83818316178352505050509050600360009054906101000a900473ffffffffffffffffffffffffffffffffffffffff1673ffffffffffffffffffffffffffffffffffffffff16634000aea08887846040518463ffffffff1660e01b8152600401611a9e93929190612ed0565b6020604051808303816000875af1158015611abd573d6000803e3d6000fd5b505050506040513d601f19601f82011682018060405250810190611ae19190612f3a565b611b20576040517f08c379a0000000000000000000000000000000000000000000000000000000008152600401611b1790612fd9565b60405180910390fd5b600160056000828254611b339190612976565b925050819055505095945050505050565b611b4c611ff9565b6000602083611b5b9190612ff9565b14611b8757602082611b6d9190612ff9565b6020611b799190612a38565b82611b849190612976565b91505b81836020018181525050604051808452600081528281016020016040525082905092915050565b60178111611bdb57611bd58160058460ff16901b60ff161784611d1590919063ffffffff16565b50611cee565b60ff8111611c1d57611c00601860058460ff16901b1784611d1590919063ffffffff16565b50611c1781600185611d359092919063ffffffff16565b50611ced565b61ffff8111611c6057611c43601960058460ff16901b1784611d1590919063ffffffff16565b50611c5a81600285611d359092919063ffffffff16565b50611cec565b63ffffffff8111611ca557611c88601a60058460ff16901b1784611d1590919063ffffffff16565b50611c9f81600485611d359092919063ffffffff16565b50611ceb565b67ffffffffffffffff8111611cea57611cd1601b60058460ff16901b1784611d1590919063ffffffff16565b50611ce881600885611d359092919063ffffffff16565b505b5b5b5b5b505050565b611cfb611ff9565b611d0d83846000015151848551611d57565b905092915050565b611d1d611ff9565b611d2d8384600001515184611e46565b905092915050565b611d3d611ff9565b611d4e848560000151518585611e9d565b90509392505050565b611d5f611ff9565b8251821115611d6d57600080fd5b84602001518285611d7e9190612976565b1115611db357611db2856002611da388602001518887611d9e9190612976565b611f2b565b611dad919061270c565b611f47565b5b600080865180518760208301019350808887011115611dd25787860182525b60208701925050505b60208410611e195780518252602082611df49190612976565b9150602081611e039190612976565b9050602084611e129190612a38565b9350611ddb565b60006001856020036101000a03905080198251168184511681811785525050508692505050949350505050565b611e4e611ff9565b83602001518310611e7457611e738460028660200151611e6e919061270c565b611f47565b5b8351805160208583010184815381861415611e90576001820183525b5050508390509392505050565b611ea5611ff9565b84602001518483611eb69190612976565b1115611ede57611edd8560028685611ece9190612976565b611ed8919061270c565b611f47565b5b6000600183610100611ef0919061315d565b611efa9190612a38565b90508551838682010185831982511617815281518588011115611f1d5784870182525b505085915050949350505050565b600081831115611f3d57829050611f41565b8190505b92915050565b600082600001519050611f5a8383611b44565b50611f658382611cf3565b50505050565b5080546000825590600052602060002090810190611f899190612013565b50565b6040518060a0016040528060008019168152602001600073ffffffffffffffffffffffffffffffffffffffff16815260200160007bffffffffffffffffffffffffffffffffffffffffffffffffffffffff1916815260200160008152602001611ff3611ff9565b81525090565b604051806040016040528060608152602001600081525090565b5b8082111561202c576000816000905550600101612014565b5090565b6000604051905090565b600080fd5b600080fd5b6000819050919050565b61205781612044565b811461206257600080fd5b50565b6000813590506120748161204e565b92915050565b6000819050919050565b61208d8161207a565b811461209857600080fd5b50565b6000813590506120aa81612084565b92915050565b600080604083850312156120c7576120c661203a565b5b60006120d585828601612065565b92505060206120e68582860161209b565b9150509250929050565b6120f98161207a565b82525050565b600060208201905061211460008301846120f0565b92915050565b600073ffffffffffffffffffffffffffffffffffffffff82169050919050565b60006121458261211a565b9050919050565b6121558161213a565b811461216057600080fd5b50565b6000813590506121728161214c565b92915050565b60006020828403121561218e5761218d61203a565b5b600061219c84828501612163565b91505092915050565b60008115159050919050565b6121ba816121a5565b82525050565b60006020820190506121d560008301846121b1565b92915050565b600381106121e857600080fd5b50565b6000813590506121fa816121db565b92915050565b6000602082840312156122165761221561203a565b5b6000612224848285016121eb565b91505092915050565b600080fd5b600080fd5b6000601f19601f8301169050919050565b7f4e487b7100000000000000000000000000000000000000000000000000000000600052604160045260246000fd5b61228082612237565b810181811067ffffffffffffffff8211171561229f5761229e612248565b5b80604052505050565b60006122b2612030565b90506122be8282612277565b919050565b600067ffffffffffffffff8211156122de576122dd612248565b5b6122e782612237565b9050602081019050919050565b82818337600083830152505050565b6000612316612311846122c3565b6122a8565b90508281526020810184848401111561233257612331612232565b5b61233d8482856122f4565b509392505050565b600082601f83011261235a5761235961222d565b5b813561236a848260208601612303565b91505092915050565b60008060006060848603121561238c5761238b61203a565b5b600061239a86828701612163565b935050602084013567ffffffffffffffff8111156123bb576123ba61203f565b5b6123c786828701612345565b925050604084013567ffffffffffffffff8111156123e8576123e761203f565b5b6123f486828701612345565b9150509250925092565b6124078161213a565b82525050565b600060208201905061242260008301846123fe565b92915050565b7f4e487b7100000000000000000000000000000000000000000000000000000000600052602160045260246000fd5b6003811061246857612467612428565b5b50565b600081905061247982612457565b919050565b60006124898261246b565b9050919050565b6124998161247e565b82525050565b600060a0820190506124b460008301886123fe565b6124c16020830187612490565b6124ce60408301866121b1565b6124db60608301856120f0565b6124e860808301846120f0565b9695505050505050565b600381106124ff57600080fd5b50565b600081359050612511816124f2565b92915050565b600080600080608085870312156125315761253061203a565b5b600061253f87828801612163565b945050602085013567ffffffffffffffff8111156125605761255f61203f565b5b61256c87828801612345565b935050604085013567ffffffffffffffff81111561258d5761258c61203f565b5b61259987828801612345565b92505060606125aa87828801612502565b91505092959194509250565b6000602082840312156125cc576125cb61203a565b5b60006125da8482850161209b565b91505092915050565b60006125ee8261211a565b9050919050565b6125fe816125e3565b82525050565b600060208201905061261960008301846125f5565b92915050565b60006020820190506126346000830184612490565b92915050565b600082825260208201905092915050565b7f536f75726365206d75737420626520746865206f7261636c65206f662074686560008201527f2072657175657374000000000000000000000000000000000000000000000000602082015250565b60006126a760288361263a565b91506126b28261264b565b604082019050919050565b600060208201905081810360008301526126d68161269a565b9050919050565b7f4e487b7100000000000000000000000000000000000000000000000000000000600052601160045260246000fd5b60006127178261207a565b91506127228361207a565b9250817fffffffffffffffffffffffffffffffffffffffffffffffffffffffffffffffff048311821515161561275b5761275a6126dd565b5b828202905092915050565b7f4e487b7100000000000000000000000000000000000000000000000000000000600052601260045260246000fd5b60006127a08261207a565b91506127ab8361207a565b9250826127bb576127ba612766565b5b828204905092915050565b7f5468652062657474696e6720706572696f64206973206f70656e2e0000000000600082015250565b60006127fc601b8361263a565b9150612807826127c6565b602082019050919050565b6000602082019050818103600083015261282b816127ef565b9050919050565b7f5573657220616c72656164792062657421000000000000000000000000000000600082015250565b600061286860118361263a565b915061287382612832565b602082019050919050565b600060208201905081810360008301526128978161285b565b9050919050565b7f4f776e61626c653a2063616c6c6572206973206e6f7420746865206f776e6572600082015250565b60006128d460208361263a565b91506128df8261289e565b602082019050919050565b60006020820190508181036000830152612903816128c7565b9050919050565b7f5468652062657474696e6720706572696f64206973206f7665722e0000000000600082015250565b6000612940601b8361263a565b915061294b8261290a565b602082019050919050565b6000602082019050818103600083015261296f81612933565b9050919050565b60006129818261207a565b915061298c8361207a565b9250827fffffffffffffffffffffffffffffffffffffffffffffffffffffffffffffffff038211156129c1576129c06126dd565b5b828201905092915050565b7f5765617468657254797065206d757374206e6f742062653a20454d5054590000600082015250565b6000612a02601e8361263a565b9150612a0d826129cc565b602082019050919050565b60006020820190508181036000830152612a31816129f5565b9050919050565b6000612a438261207a565b9150612a4e8361207a565b925082821015612a6157612a606126dd565b5b828203905092915050565b7f4f776e61626c653a206e6577206f776e657220697320746865207a65726f206160008201527f6464726573730000000000000000000000000000000000000000000000000000602082015250565b6000612ac860268361263a565b9150612ad382612a6c565b604082019050919050565b60006020820190508181036000830152612af781612abb565b9050919050565b7f4e6f206265747320706c61636564000000000000000000000000000000000000600082015250565b6000612b34600e8361263a565b9150612b3f82612afe565b602082019050919050565b60006020820190508181036000830152612b6381612b27565b9050919050565b7f4e6f2077696e6e657273207468697320726f756e640000000000000000000000600082015250565b6000612ba060158361263a565b9150612bab82612b6a565b602082019050919050565b60006020820190508181036000830152612bcf81612b93565b9050919050565b7f4e487b7100000000000000000000000000000000000000000000000000000000600052603260045260246000fd5b600081905092915050565b50565b6000612c20600083612c05565b9150612c2b82612c10565b600082019050919050565b6000612c4182612c13565b9150819050919050565b6000612c568261207a565b91507fffffffffffffffffffffffffffffffffffffffffffffffffffffffffffffffff821415612c8957612c886126dd565b5b600182019050919050565b6000819050919050565b6000612cb9612cb4612caf8461211a565b612c94565b61211a565b9050919050565b6000612ccb82612c9e565b9050919050565b6000612cdd82612cc0565b9050919050565b60008160601b9050919050565b6000612cfc82612ce4565b9050919050565b6000612d0e82612cf1565b9050919050565b612d26612d2182612cd2565b612d03565b82525050565b6000819050919050565b612d47612d428261207a565b612d2c565b82525050565b6000612d598285612d15565b601482019150612d698284612d36565b6020820191508190509392505050565b612d8281612044565b82525050565b60007fffffffff0000000000000000000000000000000000000000000000000000000082169050919050565b612dbd81612d88565b82525050565b600081519050919050565b600082825260208201905092915050565b60005b83811015612dfd578082015181840152602081019050612de2565b83811115612e0c576000848401525b50505050565b6000612e1d82612dc3565b612e278185612dce565b9350612e37818560208601612ddf565b612e4081612237565b840191505092915050565b600061010082019050612e61600083018b6123fe565b612e6e602083018a6120f0565b612e7b6040830189612d79565b612e8860608301886123fe565b612e956080830187612db4565b612ea260a08301866120f0565b612eaf60c08301856120f0565b81810360e0830152612ec18184612e12565b90509998505050505050505050565b6000606082019050612ee560008301866123fe565b612ef260208301856120f0565b8181036040830152612f048184612e12565b9050949350505050565b612f17816121a5565b8114612f2257600080fd5b50565b600081519050612f3481612f0e565b92915050565b600060208284031215612f5057612f4f61203a565b5b6000612f5e84828501612f25565b91505092915050565b7f756e61626c6520746f207472616e73666572416e6443616c6c20746f206f726160008201527f636c650000000000000000000000000000000000000000000000000000000000602082015250565b6000612fc360238361263a565b9150612fce82612f67565b604082019050919050565b60006020820190508181036000830152612ff281612fb6565b9050919050565b60006130048261207a565b915061300f8361207a565b92508261301f5761301e612766565b5b828206905092915050565b60008160011c9050919050565b6000808291508390505b60018511156130815780860481111561305d5761305c6126dd565b5b600185161561306c5780820291505b808102905061307a8561302a565b9450613041565b94509492505050565b60008261309a5760019050613156565b816130a85760009050613156565b81600181146130be57600281146130c8576130f7565b6001915050613156565b60ff8411156130da576130d96126dd565b5b8360020a9150848211156130f1576130f06126dd565b5b50613156565b5060208310610133831016604e8410600b841016171561312c5782820a905083811115613127576131266126dd565b5b613156565b6131398484846001613037565b925090508184048111156131505761314f6126dd565b5b81810290505b9392505050565b60006131688261207a565b91506131738361207a565b92506131a07fffffffffffffffffffffffffffffffffffffffffffffffffffffffffffffffff848461308a565b90509291505056fea2646970667358221220dcf61ad2fc0dbaf22eb406937e0c6dd76d4314fc83ebb7d96aca681f48f4f5fe64736f6c634300080a0033",
  "linkReferences": {},
  "deployedLinkReferences": {}
}