{
  "_format": "hh-sol-artifact-1",
  "contractName": "Betting",
  "sourceName": "contracts/Betting.sol",
  "abi": [
    {
      "inputs": [
        {
          "internalType": "address",
          "name": "_link",
          "type": "address"
        }
      ],
      "stateMutability": "nonpayable",
      "type": "constructor"
    },
    {
      "anonymous": false,
      "inputs": [
        {
          "indexed": true,
          "internalType": "bytes32",
          "name": "id",
          "type": "bytes32"
        }
      ],
      "name": "ChainlinkCancelled",
      "type": "event"
    },
    {
      "anonymous": false,
      "inputs": [
        {
          "indexed": true,
          "internalType": "bytes32",
          "name": "id",
          "type": "bytes32"
        }
      ],
      "name": "ChainlinkFulfilled",
      "type": "event"
    },
    {
      "anonymous": false,
      "inputs": [
        {
          "indexed": true,
          "internalType": "bytes32",
          "name": "id",
          "type": "bytes32"
        }
      ],
      "name": "ChainlinkRequested",
      "type": "event"
    },
    {
      "anonymous": false,
      "inputs": [
        {
          "indexed": true,
          "internalType": "address",
          "name": "previousOwner",
          "type": "address"
        },
        {
          "indexed": true,
          "internalType": "address",
          "name": "newOwner",
          "type": "address"
        }
      ],
      "name": "OwnershipTransferred",
      "type": "event"
    },
    {
      "anonymous": false,
      "inputs": [
        {
          "indexed": true,
          "internalType": "address",
          "name": "winner",
          "type": "address"
        },
        {
          "indexed": false,
          "internalType": "uint256",
          "name": "amount",
          "type": "uint256"
        }
      ],
      "name": "WinnerPayed",
      "type": "event"
    },
    {
      "inputs": [],
      "name": "actualTemperature",
      "outputs": [
        {
          "internalType": "uint256",
          "name": "",
          "type": "uint256"
        }
      ],
      "stateMutability": "view",
      "type": "function"
    },
    {
      "inputs": [],
      "name": "contractAddress",
      "outputs": [
        {
          "internalType": "address payable",
          "name": "",
          "type": "address"
        }
      ],
      "stateMutability": "view",
      "type": "function"
    },
    {
      "inputs": [
        {
          "internalType": "address",
          "name": "_oracle",
          "type": "address"
        },
        {
          "internalType": "string",
          "name": "_jobId",
          "type": "string"
        },
        {
          "internalType": "string",
          "name": "_city",
          "type": "string"
        }
      ],
      "name": "finalResult",
      "outputs": [],
      "stateMutability": "nonpayable",
      "type": "function"
    },
    {
      "inputs": [
        {
          "internalType": "bytes32",
          "name": "_requestId",
          "type": "bytes32"
        },
        {
          "internalType": "uint256",
          "name": "_result",
          "type": "uint256"
        }
      ],
      "name": "fulfillActualTemperature",
      "outputs": [],
      "stateMutability": "nonpayable",
      "type": "function"
    },
    {
      "inputs": [
        {
          "internalType": "bytes32",
          "name": "_requestId",
          "type": "bytes32"
        },
        {
          "internalType": "uint256",
          "name": "_result",
          "type": "uint256"
        }
      ],
      "name": "fulfillTemperaturePrediction",
      "outputs": [],
      "stateMutability": "nonpayable",
      "type": "function"
    },
    {
      "inputs": [],
      "name": "getPrizeMoney",
      "outputs": [
        {
          "internalType": "uint256",
          "name": "",
          "type": "uint256"
        }
      ],
      "stateMutability": "view",
      "type": "function"
    },
    {
      "inputs": [],
      "name": "getTimeLeft",
      "outputs": [
        {
          "internalType": "uint256",
          "name": "",
          "type": "uint256"
        }
      ],
      "stateMutability": "view",
      "type": "function"
    },
    {
      "inputs": [],
      "name": "owner",
      "outputs": [
        {
          "internalType": "address",
          "name": "",
          "type": "address"
        }
      ],
      "stateMutability": "view",
      "type": "function"
    },
    {
      "inputs": [
        {
          "internalType": "enum Bet",
          "name": "_bet",
          "type": "uint8"
        }
      ],
      "name": "placeBet",
      "outputs": [],
      "stateMutability": "payable",
      "type": "function"
    },
    {
      "inputs": [],
      "name": "renounceOwnership",
      "outputs": [],
      "stateMutability": "nonpayable",
      "type": "function"
    },
    {
      "inputs": [
        {
          "internalType": "address",
          "name": "_oracle",
          "type": "address"
        },
        {
          "internalType": "string",
          "name": "_jobId",
          "type": "string"
        },
        {
          "internalType": "string",
          "name": "_city",
          "type": "string"
        },
        {
          "internalType": "enum WeatherType",
          "name": "_type",
          "type": "uint8"
        }
      ],
      "name": "requestTemperatureFor",
      "outputs": [],
      "stateMutability": "nonpayable",
      "type": "function"
    },
    {
      "inputs": [],
      "name": "temperaturePrediction",
      "outputs": [
        {
          "internalType": "uint256",
          "name": "",
          "type": "uint256"
        }
      ],
      "stateMutability": "view",
      "type": "function"
    },
    {
      "inputs": [
        {
          "internalType": "address",
          "name": "newOwner",
          "type": "address"
        }
      ],
      "name": "transferOwnership",
      "outputs": [],
      "stateMutability": "nonpayable",
      "type": "function"
    },
    {
      "inputs": [
        {
          "internalType": "address",
          "name": "",
          "type": "address"
        }
      ],
      "name": "users",
      "outputs": [
        {
          "internalType": "address",
          "name": "id",
          "type": "address"
        },
        {
          "internalType": "enum Bet",
          "name": "bet",
          "type": "uint8"
        },
        {
          "internalType": "bool",
          "name": "hasBet",
          "type": "bool"
        },
        {
          "internalType": "uint256",
          "name": "amountBet",
          "type": "uint256"
        },
        {
          "internalType": "uint256",
          "name": "winningPercentage",
          "type": "uint256"
        }
      ],
      "stateMutability": "view",
      "type": "function"
    },
    {
      "inputs": [
        {
          "internalType": "uint256",
          "name": "",
          "type": "uint256"
        }
      ],
      "name": "usersWhoHaveVoted",
      "outputs": [
        {
          "internalType": "address",
          "name": "",
          "type": "address"
        }
      ],
      "stateMutability": "view",
      "type": "function"
    }
  ],
  "bytecode": "0x608060405260016005553480156200001657600080fd5b50604051620033d5380380620033d583398181016040528101906200003c91906200032b565b6200005c620000506200011960201b60201c565b6200012160201b60201c565b600073ffffffffffffffffffffffffffffffffffffffff168173ffffffffffffffffffffffffffffffffffffffff161415620000a857620000a2620001e560201b60201c565b620000ba565b620000b9816200027d60201b60201c565b5b30600a60006101000a81548173ffffffffffffffffffffffffffffffffffffffff021916908373ffffffffffffffffffffffffffffffffffffffff16021790555062093a80426200010c919062000396565b60098190555050620003f3565b600033905090565b60008060009054906101000a900473ffffffffffffffffffffffffffffffffffffffff169050816000806101000a81548173ffffffffffffffffffffffffffffffffffffffff021916908373ffffffffffffffffffffffffffffffffffffffff1602179055508173ffffffffffffffffffffffffffffffffffffffff168173ffffffffffffffffffffffffffffffffffffffff167f8be0079c531659141344cd1fd0a4f28419497f9722a3daafe3b4186f6b6457e060405160405180910390a35050565b6200027b73c89bd4e1632d3a43cb03aaad5262cbe4038bc57173ffffffffffffffffffffffffffffffffffffffff166338cc48316040518163ffffffff1660e01b8152600401602060405180830381865afa15801562000249573d6000803e3d6000fd5b505050506040513d601f19601f820116820180604052508101906200026f91906200032b565b6200027d60201b60201c565b565b80600360006101000a81548173ffffffffffffffffffffffffffffffffffffffff021916908373ffffffffffffffffffffffffffffffffffffffff16021790555050565b600080fd5b600073ffffffffffffffffffffffffffffffffffffffff82169050919050565b6000620002f382620002c6565b9050919050565b6200030581620002e6565b81146200031157600080fd5b50565b6000815190506200032581620002fa565b92915050565b600060208284031215620003445762000343620002c1565b5b6000620003548482850162000314565b91505092915050565b6000819050919050565b7f4e487b7100000000000000000000000000000000000000000000000000000000600052601160045260246000fd5b6000620003a3826200035d565b9150620003b0836200035d565b9250827fffffffffffffffffffffffffffffffffffffffffffffffffffffffffffffffff03821115620003e857620003e762000367565b5b828201905092915050565b612fd280620004036000396000f3fe6080604052600436106100e85760003560e01c80638da5cb5b1161008a578063dc0da20111610059578063dc0da201146102b1578063eca894fd146102dc578063f2fde38b14610319578063f6b4dfb414610342576100e8565b80638da5cb5b146101f1578063a87430ba1461021c578063bae703031461025d578063c7e284b814610286576100e8565b806343046844116100c6578063430468441461016a578063715018a61461018657806379f1f40a1461019d5780638d3efc11146101c8576100e8565b8063069c17db146100ed5780630737c24b1461011657806320f890e214610141575b600080fd5b3480156100f957600080fd5b50610114600480360381019061010f9190611eda565b61036d565b005b34801561012257600080fd5b5061012b61047e565b6040516101389190611f29565b60405180910390f35b34801561014d57600080fd5b5061016860048036038101906101639190611eda565b6104d7565b005b610184600480360381019061017f9190611f69565b6105e8565b005b34801561019257600080fd5b5061019b610868565b005b3480156101a957600080fd5b506101b26108f0565b6040516101bf9190611f29565b60405180910390f35b3480156101d457600080fd5b506101ef60048036038101906101ea919061213a565b6108f6565b005b3480156101fd57600080fd5b506102066109ed565b60405161021391906121d4565b60405180910390f35b34801561022857600080fd5b50610243600480360381019061023e91906121ef565b610a16565b6040516102549594939291906122ae565b60405180910390f35b34801561026957600080fd5b50610284600480360381019061027f9190612326565b610a86565b005b34801561029257600080fd5b5061029b610c39565b6040516102a89190611f29565b60405180910390f35b3480156102bd57600080fd5b506102c6610c5f565b6040516102d39190611f29565b60405180910390f35b3480156102e857600080fd5b5061030360048036038101906102fe91906123c5565b610c65565b60405161031091906121d4565b60405180910390f35b34801561032557600080fd5b50610340600480360381019061033b91906121ef565b610ca4565b005b34801561034e57600080fd5b50610357610d9c565b6040516103649190612413565b60405180910390f35b816006600082815260200190815260200160002060009054906101000a900473ffffffffffffffffffffffffffffffffffffffff1673ffffffffffffffffffffffffffffffffffffffff163373ffffffffffffffffffffffffffffffffffffffff161461040f576040517f08c379a0000000000000000000000000000000000000000000000000000000008152600401610406906124b1565b60405180910390fd5b6006600082815260200190815260200160002060006101000a81549073ffffffffffffffffffffffffffffffffffffffff0219169055807f7cc135e0cebb02c3480ae5d74d377283180a2601f8f644edf7987b009316c63a60405160405180910390a281600781905550505050565b600060646063600a60009054906101000a900473ffffffffffffffffffffffffffffffffffffffff1673ffffffffffffffffffffffffffffffffffffffff16316104c89190612500565b6104d29190612589565b905090565b816006600082815260200190815260200160002060009054906101000a900473ffffffffffffffffffffffffffffffffffffffff1673ffffffffffffffffffffffffffffffffffffffff163373ffffffffffffffffffffffffffffffffffffffff1614610579576040517f08c379a0000000000000000000000000000000000000000000000000000000008152600401610570906124b1565b60405180910390fd5b6006600082815260200190815260200160002060006101000a81549073ffffffffffffffffffffffffffffffffffffffff0219169055807f7cc135e0cebb02c3480ae5d74d377283180a2601f8f644edf7987b009316c63a60405160405180910390a281600881905550505050565b600954421061062c576040517f08c379a000000000000000000000000000000000000000000000000000000000815260040161062390612606565b60405180910390fd5b600c60003373ffffffffffffffffffffffffffffffffffffffff1673ffffffffffffffffffffffffffffffffffffffff16815260200190815260200160002060000160159054906101000a900460ff16156106bc576040517f08c379a00000000000000000000000000000000000000000000000000000000081526004016106b390612672565b60405180910390fd5b60006040518060a001604052803373ffffffffffffffffffffffffffffffffffffffff1681526020018360028111156106f8576106f761221c565b5b815260200160011515815260200134815260200160008152509050600b339080600181540180825580915050600190039060005260206000200160009091909190916101000a81548173ffffffffffffffffffffffffffffffffffffffff021916908373ffffffffffffffffffffffffffffffffffffffff16021790555080600c60003373ffffffffffffffffffffffffffffffffffffffff1673ffffffffffffffffffffffffffffffffffffffff16815260200190815260200160002060008201518160000160006101000a81548173ffffffffffffffffffffffffffffffffffffffff021916908373ffffffffffffffffffffffffffffffffffffffff16021790555060208201518160000160146101000a81548160ff021916908360028111156108285761082761221c565b5b021790555060408201518160000160156101000a81548160ff02191690831515021790555060608201518160010155608082015181600201559050505050565b610870610dc2565b73ffffffffffffffffffffffffffffffffffffffff1661088e6109ed565b73ffffffffffffffffffffffffffffffffffffffff16146108e4576040517f08c379a00000000000000000000000000000000000000000000000000000000081526004016108db906126de565b60405180910390fd5b6108ee6000610dca565b565b60075481565b6108fe610dc2565b73ffffffffffffffffffffffffffffffffffffffff1661091c6109ed565b73ffffffffffffffffffffffffffffffffffffffff1614610972576040517f08c379a0000000000000000000000000000000000000000000000000000000008152600401610969906126de565b60405180910390fd5b60095442116109b6576040517f08c379a00000000000000000000000000000000000000000000000000000000081526004016109ad9061274a565b60405180910390fd5b6109c38383836002610a86565b6109cb610e8e565b6109d36110e9565b62093a80426109e2919061276a565b600981905550505050565b60008060009054906101000a900473ffffffffffffffffffffffffffffffffffffffff16905090565b600c6020528060005260406000206000915090508060000160009054906101000a900473ffffffffffffffffffffffffffffffffffffffff16908060000160149054906101000a900460ff16908060000160159054906101000a900460ff16908060010154908060020154905085565b610a8e610dc2565b73ffffffffffffffffffffffffffffffffffffffff16610aac6109ed565b73ffffffffffffffffffffffffffffffffffffffff1614610b02576040517f08c379a0000000000000000000000000000000000000000000000000000000008152600401610af9906126de565b60405180910390fd5b60006002811115610b1657610b1561221c565b5b816002811115610b2957610b2861221c565b5b1415610b6a576040517f08c379a0000000000000000000000000000000000000000000000000000000008152600401610b619061280c565b60405180910390fd5b600060016002811115610b8057610b7f61221c565b5b826002811115610b9357610b9261221c565b5b14610ba5576320f890e260e01b610bae565b63069c17db60e01b5b90506000610bc5610bbe866111fc565b3084611226565b9050610c116040518060400160405280600481526020017f636974790000000000000000000000000000000000000000000000000000000081525085836112579092919063ffffffff16565b610c308682600a670de0b6b3a7640000610c2b9190612589565b61128a565b50505050505050565b60006009544210610c4b576000610c5a565b42600954610c59919061282c565b5b905090565b60085481565b600b8181548110610c7557600080fd5b906000526020600020016000915054906101000a900473ffffffffffffffffffffffffffffffffffffffff1681565b610cac610dc2565b73ffffffffffffffffffffffffffffffffffffffff16610cca6109ed565b73ffffffffffffffffffffffffffffffffffffffff1614610d20576040517f08c379a0000000000000000000000000000000000000000000000000000000008152600401610d17906126de565b60405180910390fd5b600073ffffffffffffffffffffffffffffffffffffffff168173ffffffffffffffffffffffffffffffffffffffff161415610d90576040517f08c379a0000000000000000000000000000000000000000000000000000000008152600401610d87906128d2565b60405180910390fd5b610d9981610dca565b50565b600a60009054906101000a900473ffffffffffffffffffffffffffffffffffffffff1681565b600033905090565b60008060009054906101000a900473ffffffffffffffffffffffffffffffffffffffff169050816000806101000a81548173ffffffffffffffffffffffffffffffffffffffff021916908373ffffffffffffffffffffffffffffffffffffffff1602179055508173ffffffffffffffffffffffffffffffffffffffff168173ffffffffffffffffffffffffffffffffffffffff167f8be0079c531659141344cd1fd0a4f28419497f9722a3daafe3b4186f6b6457e060405160405180910390a35050565b6000600a60009054906101000a900473ffffffffffffffffffffffffffffffffffffffff1673ffffffffffffffffffffffffffffffffffffffff16311015610f0b576040517f08c379a0000000000000000000000000000000000000000000000000000000008152600401610f029061293e565b60405180910390fd5b6000610f156112aa565b90506000815111610f5b576040517f08c379a0000000000000000000000000000000000000000000000000000000008152600401610f52906129aa565b60405180910390fd5b60005b81518110156110e5576000610f7161047e565b6064600c6000868681518110610f8a57610f896129ca565b5b602002602001015173ffffffffffffffffffffffffffffffffffffffff1673ffffffffffffffffffffffffffffffffffffffff16815260200190815260200160002060020154610fda9190612589565b610fe49190612500565b9050828281518110610ff957610ff86129ca565b5b602002602001015173ffffffffffffffffffffffffffffffffffffffff168160405161102490612a2a565b60006040518083038185875af1925050503d8060008114611061576040519150601f19603f3d011682016040523d82523d6000602084013e611066565b606091505b50505082828151811061107c5761107b6129ca565b5b602002602001015173ffffffffffffffffffffffffffffffffffffffff167f2897e467188c1ebbd157f72e82b2059710aea0df2ba4b6075e47e305087bbffe826040516110c99190611f29565b60405180910390a25080806110dd90612a3f565b915050610f5e565b5050565b60005b600b805490508110156111eb57600c6000600b8381548110611111576111106129ca565b5b9060005260206000200160009054906101000a900473ffffffffffffffffffffffffffffffffffffffff1673ffffffffffffffffffffffffffffffffffffffff1673ffffffffffffffffffffffffffffffffffffffff168152602001908152602001600020600080820160006101000a81549073ffffffffffffffffffffffffffffffffffffffff02191690556000820160146101000a81549060ff02191690556000820160156101000a81549060ff021916905560018201600090556002820160009055505080806111e390612a3f565b9150506110ec565b50600b60006111fa9190611d95565b565b600080829050600081511415611218576000801b915050611221565b60208301519150505b919050565b61122e611db6565b611236611db6565b61124d85858584611640909392919063ffffffff16565b9150509392505050565b61126e8284608001516116f090919063ffffffff16565b6112858184608001516116f090919063ffffffff16565b505050565b60006112a18484846001634042994660e01b611715565b90509392505050565b60606000806060600060075460085411156112c857600193506112da565b60075460085410156112d957600293505b5b60005b600b80549050811015611541578460028111156112fd576112fc61221c565b5b600c6000600b8481548110611315576113146129ca565b5b9060005260206000200160009054906101000a900473ffffffffffffffffffffffffffffffffffffffff1673ffffffffffffffffffffffffffffffffffffffff1673ffffffffffffffffffffffffffffffffffffffff16815260200190815260200160002060000160149054906101000a900460ff16600281111561139d5761139c61221c565b5b141561152e57600c6000600b83815481106113bb576113ba6129ca565b5b9060005260206000200160009054906101000a900473ffffffffffffffffffffffffffffffffffffffff1673ffffffffffffffffffffffffffffffffffffffff1673ffffffffffffffffffffffffffffffffffffffff168152602001908152602001600020600101548461142f919061276a565b9350600c6000600b8381548110611449576114486129ca565b5b9060005260206000200160009054906101000a900473ffffffffffffffffffffffffffffffffffffffff1673ffffffffffffffffffffffffffffffffffffffff1673ffffffffffffffffffffffffffffffffffffffff16815260200190815260200160002060000160009054906101000a900473ffffffffffffffffffffffffffffffffffffffff168383815181106114e5576114e46129ca565b5b602002602001019073ffffffffffffffffffffffffffffffffffffffff16908173ffffffffffffffffffffffffffffffffffffffff1681525050818061152a90612a3f565b9250505b808061153990612a3f565b9150506112dd565b5060005b825181101561163557606484600c6000868581518110611568576115676129ca565b5b602002602001015173ffffffffffffffffffffffffffffffffffffffff1673ffffffffffffffffffffffffffffffffffffffff168152602001908152602001600020600101546115b89190612589565b6115c29190612500565b600c60008584815181106115d9576115d86129ca565b5b602002602001015173ffffffffffffffffffffffffffffffffffffffff1673ffffffffffffffffffffffffffffffffffffffff16815260200190815260200160002060020181905550808061162d90612a3f565b915050611545565b508194505050505090565b611648611db6565b611658856080015161010061196e565b508385600001818152505082856020019073ffffffffffffffffffffffffffffffffffffffff16908173ffffffffffffffffffffffffffffffffffffffff16815250508185604001907bffffffffffffffffffffffffffffffffffffffffffffffffffffffff191690817bffffffffffffffffffffffffffffffffffffffffffffffffffffffff191681525050849050949350505050565b6116fd82600383516119d8565b6117108183611b1d90919063ffffffff16565b505050565b60003060055460405160200161172c929190612b41565b604051602081830303815290604052805190602001209050600554856060018181525050856006600083815260200190815260200160002060006101000a81548173ffffffffffffffffffffffffffffffffffffffff021916908373ffffffffffffffffffffffffffffffffffffffff160217905550807fb5e6e01e79f91267dc17b4e6314d5d4d03593d2ceee0fbb452b750bd70ea5af960405160405180910390a2600082600080886000015189602001518a604001518b606001518a8d608001516000015160405160240161180a989796959493929190612c3f565b604051602081830303815290604052907bffffffffffffffffffffffffffffffffffffffffffffffffffffffff19166020820180517bffffffffffffffffffffffffffffffffffffffffffffffffffffffff83818316178352505050509050600360009054906101000a900473ffffffffffffffffffffffffffffffffffffffff1673ffffffffffffffffffffffffffffffffffffffff16634000aea08887846040518463ffffffff1660e01b81526004016118c893929190612cc4565b6020604051808303816000875af11580156118e7573d6000803e3d6000fd5b505050506040513d601f19601f8201168201806040525081019061190b9190612d2e565b61194a576040517f08c379a000000000000000000000000000000000000000000000000000000000815260040161194190612dcd565b60405180910390fd5b60016005600082825461195d919061276a565b925050819055505095945050505050565b611976611e23565b60006020836119859190612ded565b146119b1576020826119979190612ded565b60206119a3919061282c565b826119ae919061276a565b91505b81836020018181525050604051808452600081528281016020016040525082905092915050565b60178111611a05576119ff8160058460ff16901b60ff161784611b3f90919063ffffffff16565b50611b18565b60ff8111611a4757611a2a601860058460ff16901b1784611b3f90919063ffffffff16565b50611a4181600185611b5f9092919063ffffffff16565b50611b17565b61ffff8111611a8a57611a6d601960058460ff16901b1784611b3f90919063ffffffff16565b50611a8481600285611b5f9092919063ffffffff16565b50611b16565b63ffffffff8111611acf57611ab2601a60058460ff16901b1784611b3f90919063ffffffff16565b50611ac981600485611b5f9092919063ffffffff16565b50611b15565b67ffffffffffffffff8111611b1457611afb601b60058460ff16901b1784611b3f90919063ffffffff16565b50611b1281600885611b5f9092919063ffffffff16565b505b5b5b5b5b505050565b611b25611e23565b611b3783846000015151848551611b81565b905092915050565b611b47611e23565b611b578384600001515184611c70565b905092915050565b611b67611e23565b611b78848560000151518585611cc7565b90509392505050565b611b89611e23565b8251821115611b9757600080fd5b84602001518285611ba8919061276a565b1115611bdd57611bdc856002611bcd88602001518887611bc8919061276a565b611d55565b611bd79190612500565b611d71565b5b600080865180518760208301019350808887011115611bfc5787860182525b60208701925050505b60208410611c435780518252602082611c1e919061276a565b9150602081611c2d919061276a565b9050602084611c3c919061282c565b9350611c05565b60006001856020036101000a03905080198251168184511681811785525050508692505050949350505050565b611c78611e23565b83602001518310611c9e57611c9d8460028660200151611c989190612500565b611d71565b5b8351805160208583010184815381861415611cba576001820183525b5050508390509392505050565b611ccf611e23565b84602001518483611ce0919061276a565b1115611d0857611d078560028685611cf8919061276a565b611d029190612500565b611d71565b5b6000600183610100611d1a9190612f51565b611d24919061282c565b90508551838682010185831982511617815281518588011115611d475784870182525b505085915050949350505050565b600081831115611d6757829050611d6b565b8190505b92915050565b600082600001519050611d84838361196e565b50611d8f8382611b1d565b50505050565b5080546000825590600052602060002090810190611db39190611e3d565b50565b6040518060a0016040528060008019168152602001600073ffffffffffffffffffffffffffffffffffffffff16815260200160007bffffffffffffffffffffffffffffffffffffffffffffffffffffffff1916815260200160008152602001611e1d611e23565b81525090565b604051806040016040528060608152602001600081525090565b5b80821115611e56576000816000905550600101611e3e565b5090565b6000604051905090565b600080fd5b600080fd5b6000819050919050565b611e8181611e6e565b8114611e8c57600080fd5b50565b600081359050611e9e81611e78565b92915050565b6000819050919050565b611eb781611ea4565b8114611ec257600080fd5b50565b600081359050611ed481611eae565b92915050565b60008060408385031215611ef157611ef0611e64565b5b6000611eff85828601611e8f565b9250506020611f1085828601611ec5565b9150509250929050565b611f2381611ea4565b82525050565b6000602082019050611f3e6000830184611f1a565b92915050565b60038110611f5157600080fd5b50565b600081359050611f6381611f44565b92915050565b600060208284031215611f7f57611f7e611e64565b5b6000611f8d84828501611f54565b91505092915050565b600073ffffffffffffffffffffffffffffffffffffffff82169050919050565b6000611fc182611f96565b9050919050565b611fd181611fb6565b8114611fdc57600080fd5b50565b600081359050611fee81611fc8565b92915050565b600080fd5b600080fd5b6000601f19601f8301169050919050565b7f4e487b7100000000000000000000000000000000000000000000000000000000600052604160045260246000fd5b61204782611ffe565b810181811067ffffffffffffffff821117156120665761206561200f565b5b80604052505050565b6000612079611e5a565b9050612085828261203e565b919050565b600067ffffffffffffffff8211156120a5576120a461200f565b5b6120ae82611ffe565b9050602081019050919050565b82818337600083830152505050565b60006120dd6120d88461208a565b61206f565b9050828152602081018484840111156120f9576120f8611ff9565b5b6121048482856120bb565b509392505050565b600082601f83011261212157612120611ff4565b5b81356121318482602086016120ca565b91505092915050565b60008060006060848603121561215357612152611e64565b5b600061216186828701611fdf565b935050602084013567ffffffffffffffff81111561218257612181611e69565b5b61218e8682870161210c565b925050604084013567ffffffffffffffff8111156121af576121ae611e69565b5b6121bb8682870161210c565b9150509250925092565b6121ce81611fb6565b82525050565b60006020820190506121e960008301846121c5565b92915050565b60006020828403121561220557612204611e64565b5b600061221384828501611fdf565b91505092915050565b7f4e487b7100000000000000000000000000000000000000000000000000000000600052602160045260246000fd5b6003811061225c5761225b61221c565b5b50565b600081905061226d8261224b565b919050565b600061227d8261225f565b9050919050565b61228d81612272565b82525050565b60008115159050919050565b6122a881612293565b82525050565b600060a0820190506122c360008301886121c5565b6122d06020830187612284565b6122dd604083018661229f565b6122ea6060830185611f1a565b6122f76080830184611f1a565b9695505050505050565b6003811061230e57600080fd5b50565b60008135905061232081612301565b92915050565b600080600080608085870312156123405761233f611e64565b5b600061234e87828801611fdf565b945050602085013567ffffffffffffffff81111561236f5761236e611e69565b5b61237b8782880161210c565b935050604085013567ffffffffffffffff81111561239c5761239b611e69565b5b6123a88782880161210c565b92505060606123b987828801612311565b91505092959194509250565b6000602082840312156123db576123da611e64565b5b60006123e984828501611ec5565b91505092915050565b60006123fd82611f96565b9050919050565b61240d816123f2565b82525050565b60006020820190506124286000830184612404565b92915050565b600082825260208201905092915050565b7f536f75726365206d75737420626520746865206f7261636c65206f662074686560008201527f2072657175657374000000000000000000000000000000000000000000000000602082015250565b600061249b60288361242e565b91506124a68261243f565b604082019050919050565b600060208201905081810360008301526124ca8161248e565b9050919050565b7f4e487b7100000000000000000000000000000000000000000000000000000000600052601160045260246000fd5b600061250b82611ea4565b915061251683611ea4565b9250817fffffffffffffffffffffffffffffffffffffffffffffffffffffffffffffffff048311821515161561254f5761254e6124d1565b5b828202905092915050565b7f4e487b7100000000000000000000000000000000000000000000000000000000600052601260045260246000fd5b600061259482611ea4565b915061259f83611ea4565b9250826125af576125ae61255a565b5b828204905092915050565b7f5468652062657474696e6720706572696f64206973206f70656e2e0000000000600082015250565b60006125f0601b8361242e565b91506125fb826125ba565b602082019050919050565b6000602082019050818103600083015261261f816125e3565b9050919050565b7f5573657220616c72656164792062657421000000000000000000000000000000600082015250565b600061265c60118361242e565b915061266782612626565b602082019050919050565b6000602082019050818103600083015261268b8161264f565b9050919050565b7f4f776e61626c653a2063616c6c6572206973206e6f7420746865206f776e6572600082015250565b60006126c860208361242e565b91506126d382612692565b602082019050919050565b600060208201905081810360008301526126f7816126bb565b9050919050565b7f5468652062657474696e6720706572696f64206973206f7665722e0000000000600082015250565b6000612734601b8361242e565b915061273f826126fe565b602082019050919050565b6000602082019050818103600083015261276381612727565b9050919050565b600061277582611ea4565b915061278083611ea4565b9250827fffffffffffffffffffffffffffffffffffffffffffffffffffffffffffffffff038211156127b5576127b46124d1565b5b828201905092915050565b7f5765617468657254797065206d757374206e6f742062653a20454d5054590000600082015250565b60006127f6601e8361242e565b9150612801826127c0565b602082019050919050565b60006020820190508181036000830152612825816127e9565b9050919050565b600061283782611ea4565b915061284283611ea4565b925082821015612855576128546124d1565b5b828203905092915050565b7f4f776e61626c653a206e6577206f776e657220697320746865207a65726f206160008201527f6464726573730000000000000000000000000000000000000000000000000000602082015250565b60006128bc60268361242e565b91506128c782612860565b604082019050919050565b600060208201905081810360008301526128eb816128af565b9050919050565b7f4e6f206265747320706c61636564000000000000000000000000000000000000600082015250565b6000612928600e8361242e565b9150612933826128f2565b602082019050919050565b600060208201905081810360008301526129578161291b565b9050919050565b7f4e6f2077696e6e657273207468697320726f756e640000000000000000000000600082015250565b600061299460158361242e565b915061299f8261295e565b602082019050919050565b600060208201905081810360008301526129c381612987565b9050919050565b7f4e487b7100000000000000000000000000000000000000000000000000000000600052603260045260246000fd5b600081905092915050565b50565b6000612a146000836129f9565b9150612a1f82612a04565b600082019050919050565b6000612a3582612a07565b9150819050919050565b6000612a4a82611ea4565b91507fffffffffffffffffffffffffffffffffffffffffffffffffffffffffffffffff821415612a7d57612a7c6124d1565b5b600182019050919050565b6000819050919050565b6000612aad612aa8612aa384611f96565b612a88565b611f96565b9050919050565b6000612abf82612a92565b9050919050565b6000612ad182612ab4565b9050919050565b60008160601b9050919050565b6000612af082612ad8565b9050919050565b6000612b0282612ae5565b9050919050565b612b1a612b1582612ac6565b612af7565b82525050565b6000819050919050565b612b3b612b3682611ea4565b612b20565b82525050565b6000612b4d8285612b09565b601482019150612b5d8284612b2a565b6020820191508190509392505050565b612b7681611e6e565b82525050565b60007fffffffff0000000000000000000000000000000000000000000000000000000082169050919050565b612bb181612b7c565b82525050565b600081519050919050565b600082825260208201905092915050565b60005b83811015612bf1578082015181840152602081019050612bd6565b83811115612c00576000848401525b50505050565b6000612c1182612bb7565b612c1b8185612bc2565b9350612c2b818560208601612bd3565b612c3481611ffe565b840191505092915050565b600061010082019050612c55600083018b6121c5565b612c62602083018a611f1a565b612c6f6040830189612b6d565b612c7c60608301886121c5565b612c896080830187612ba8565b612c9660a0830186611f1a565b612ca360c0830185611f1a565b81810360e0830152612cb58184612c06565b90509998505050505050505050565b6000606082019050612cd960008301866121c5565b612ce66020830185611f1a565b8181036040830152612cf88184612c06565b9050949350505050565b612d0b81612293565b8114612d1657600080fd5b50565b600081519050612d2881612d02565b92915050565b600060208284031215612d4457612d43611e64565b5b6000612d5284828501612d19565b91505092915050565b7f756e61626c6520746f207472616e73666572416e6443616c6c20746f206f726160008201527f636c650000000000000000000000000000000000000000000000000000000000602082015250565b6000612db760238361242e565b9150612dc282612d5b565b604082019050919050565b60006020820190508181036000830152612de681612daa565b9050919050565b6000612df882611ea4565b9150612e0383611ea4565b925082612e1357612e1261255a565b5b828206905092915050565b60008160011c9050919050565b6000808291508390505b6001851115612e7557808604811115612e5157612e506124d1565b5b6001851615612e605780820291505b8081029050612e6e85612e1e565b9450612e35565b94509492505050565b600082612e8e5760019050612f4a565b81612e9c5760009050612f4a565b8160018114612eb25760028114612ebc57612eeb565b6001915050612f4a565b60ff841115612ece57612ecd6124d1565b5b8360020a915084821115612ee557612ee46124d1565b5b50612f4a565b5060208310610133831016604e8410600b8410161715612f205782820a905083811115612f1b57612f1a6124d1565b5b612f4a565b612f2d8484846001612e2b565b92509050818404811115612f4457612f436124d1565b5b81810290505b9392505050565b6000612f5c82611ea4565b9150612f6783611ea4565b9250612f947fffffffffffffffffffffffffffffffffffffffffffffffffffffffffffffffff8484612e7e565b90509291505056fea26469706673582212200422d5925195e37b2f3912980b827467a492c564cb638ca9186d5d7dea08f21464736f6c634300080a0033",
  "linkReferences": {},
  "deployedLinkReferences": {}
}