{
  "_format": "hh-sol-artifact-1",
  "contractName": "Betting",
  "sourceName": "contracts/Betting.sol",
  "abi": [
    {
      "inputs": [
        {
          "internalType": "address",
          "name": "_oracle",
          "type": "address"
        },
        {
          "internalType": "bytes32",
          "name": "_jobId",
          "type": "bytes32"
        },
        {
          "internalType": "uint256",
          "name": "_fee",
          "type": "uint256"
        }
      ],
      "stateMutability": "nonpayable",
      "type": "constructor"
    },
    {
      "anonymous": false,
      "inputs": [
        {
          "indexed": true,
          "internalType": "bytes32",
          "name": "id",
          "type": "bytes32"
        }
      ],
      "name": "ChainlinkCancelled",
      "type": "event"
    },
    {
      "anonymous": false,
      "inputs": [
        {
          "indexed": true,
          "internalType": "bytes32",
          "name": "id",
          "type": "bytes32"
        }
      ],
      "name": "ChainlinkFulfilled",
      "type": "event"
    },
    {
      "anonymous": false,
      "inputs": [
        {
          "indexed": true,
          "internalType": "bytes32",
          "name": "id",
          "type": "bytes32"
        }
      ],
      "name": "ChainlinkRequested",
      "type": "event"
    },
    {
      "anonymous": false,
      "inputs": [
        {
          "indexed": true,
          "internalType": "address",
          "name": "previousOwner",
          "type": "address"
        },
        {
          "indexed": true,
          "internalType": "address",
          "name": "newOwner",
          "type": "address"
        }
      ],
      "name": "OwnershipTransferred",
      "type": "event"
    },
    {
      "anonymous": false,
      "inputs": [
        {
          "indexed": true,
          "internalType": "address",
          "name": "winner",
          "type": "address"
        },
        {
          "indexed": false,
          "internalType": "uint256",
          "name": "amount",
          "type": "uint256"
        }
      ],
      "name": "winnerPayed",
      "type": "event"
    },
    {
      "inputs": [],
      "name": "city",
      "outputs": [
        {
          "internalType": "string",
          "name": "",
          "type": "string"
        }
      ],
      "stateMutability": "view",
      "type": "function"
    },
    {
      "inputs": [
        {
          "internalType": "bytes32",
          "name": "_requestId",
          "type": "bytes32"
        },
        {
          "internalType": "uint256",
          "name": "_result",
          "type": "uint256"
        }
      ],
      "name": "fulfillWeatherTemperature",
      "outputs": [],
      "stateMutability": "nonpayable",
      "type": "function"
    },
    {
      "inputs": [],
      "name": "getPrizeMoney",
      "outputs": [
        {
          "internalType": "uint256",
          "name": "",
          "type": "uint256"
        }
      ],
      "stateMutability": "view",
      "type": "function"
    },
    {
      "inputs": [],
      "name": "oddsAbove",
      "outputs": [
        {
          "internalType": "uint256",
          "name": "",
          "type": "uint256"
        }
      ],
      "stateMutability": "view",
      "type": "function"
    },
    {
      "inputs": [],
      "name": "oddsBelow",
      "outputs": [
        {
          "internalType": "uint256",
          "name": "",
          "type": "uint256"
        }
      ],
      "stateMutability": "view",
      "type": "function"
    },
    {
      "inputs": [],
      "name": "owner",
      "outputs": [
        {
          "internalType": "address",
          "name": "",
          "type": "address"
        }
      ],
      "stateMutability": "view",
      "type": "function"
    },
    {
      "inputs": [],
      "name": "renounceOwnership",
      "outputs": [],
      "stateMutability": "nonpayable",
      "type": "function"
    },
    {
      "inputs": [
        {
          "internalType": "string",
          "name": "_city",
          "type": "string"
        }
      ],
      "name": "requestWeatherTemperature",
      "outputs": [],
      "stateMutability": "nonpayable",
      "type": "function"
    },
    {
      "inputs": [],
      "name": "resetLottery",
      "outputs": [],
      "stateMutability": "nonpayable",
      "type": "function"
    },
    {
      "inputs": [],
      "name": "result",
      "outputs": [
        {
          "internalType": "uint256",
          "name": "",
          "type": "uint256"
        }
      ],
      "stateMutability": "view",
      "type": "function"
    },
    {
      "inputs": [],
      "name": "setOdds",
      "outputs": [],
      "stateMutability": "nonpayable",
      "type": "function"
    },
    {
      "inputs": [
        {
          "internalType": "uint256",
          "name": "_guess",
          "type": "uint256"
        },
        {
          "internalType": "string",
          "name": "_city",
          "type": "string"
        }
      ],
      "name": "setUserGuess",
      "outputs": [],
      "stateMutability": "payable",
      "type": "function"
    },
    {
      "inputs": [
        {
          "internalType": "address",
          "name": "newOwner",
          "type": "address"
        }
      ],
      "name": "transferOwnership",
      "outputs": [],
      "stateMutability": "nonpayable",
      "type": "function"
    },
    {
      "inputs": [],
      "name": "volume",
      "outputs": [
        {
          "internalType": "uint256",
          "name": "",
          "type": "uint256"
        }
      ],
      "stateMutability": "view",
      "type": "function"
    }
  ],
  "bytecode": "0x608060405260016005556000600b5562093a80426200001f9190620001d2565b600c553480156200002f57600080fd5b50604051620028a5380380620028a5833981810160405281019062000055919062000305565b6200007562000069620000cd60201b60201c565b620000d560201b60201c565b82600e60006101000a81548173ffffffffffffffffffffffffffffffffffffffff021916908373ffffffffffffffffffffffffffffffffffffffff16021790555081600f819055508060108190555050505062000361565b600033905090565b60008060009054906101000a900473ffffffffffffffffffffffffffffffffffffffff169050816000806101000a81548173ffffffffffffffffffffffffffffffffffffffff021916908373ffffffffffffffffffffffffffffffffffffffff1602179055508173ffffffffffffffffffffffffffffffffffffffff168173ffffffffffffffffffffffffffffffffffffffff167f8be0079c531659141344cd1fd0a4f28419497f9722a3daafe3b4186f6b6457e060405160405180910390a35050565b6000819050919050565b7f4e487b7100000000000000000000000000000000000000000000000000000000600052601160045260246000fd5b6000620001df8262000199565b9150620001ec8362000199565b9250827fffffffffffffffffffffffffffffffffffffffffffffffffffffffffffffffff03821115620002245762000223620001a3565b5b828201905092915050565b600080fd5b600073ffffffffffffffffffffffffffffffffffffffff82169050919050565b6000620002618262000234565b9050919050565b620002738162000254565b81146200027f57600080fd5b50565b600081519050620002938162000268565b92915050565b6000819050919050565b620002ae8162000299565b8114620002ba57600080fd5b50565b600081519050620002ce81620002a3565b92915050565b620002df8162000199565b8114620002eb57600080fd5b50565b600081519050620002ff81620002d4565b92915050565b6000806000606084860312156200032157620003206200022f565b5b6000620003318682870162000282565b93505060206200034486828701620002bd565b92505060406200035786828701620002ee565b9150509250925092565b61253480620003716000396000f3fe6080604052600436106100dd5760003560e01c80638da5cb5b1161007f578063f2fde38b11610059578063f2fde38b14610241578063fd0160fe1461026a578063fe9cdab514610295578063ff2b4d17146102c0576100dd565b80638da5cb5b146101d4578063c618a1e4146101ff578063d337616e1461022a576100dd565b806365372147116100bb578063653721471461014d57806368c98ea314610178578063715018a614610194578063836facd4146101ab576100dd565b80630737c24b146100e25780632f2bd8fe1461010d578063400a186014610136575b600080fd5b3480156100ee57600080fd5b506100f76102eb565b604051610104919061166a565b60405180910390f35b34801561011957600080fd5b50610134600480360381019061012f91906117df565b61030d565b005b34801561014257600080fd5b5061014b6103a3565b005b34801561015957600080fd5b506101626104f6565b60405161016f919061166a565b60405180910390f35b610192600480360381019061018d9190611854565b6104fc565b005b3480156101a057600080fd5b506101a9610734565b005b3480156101b757600080fd5b506101d260048036038101906101cd91906118e6565b6107bc565b005b3480156101e057600080fd5b506101e96108cd565b6040516101f69190611967565b60405180910390f35b34801561020b57600080fd5b506102146108f6565b604051610221919061166a565b60405180910390f35b34801561023657600080fd5b5061023f6108fc565b005b34801561024d57600080fd5b50610268600480360381019061026391906119ae565b610a9f565b005b34801561027657600080fd5b5061027f610b97565b60405161028c9190611a63565b60405180910390f35b3480156102a157600080fd5b506102aa610c25565b6040516102b7919061166a565b60405180910390f35b3480156102cc57600080fd5b506102d5610c2b565b6040516102e2919061166a565b60405180910390f35b600060646063600b546102fe9190611ab4565b6103089190611b3d565b905090565b6000610323600f543063836facd460e01b610c31565b905061036f6040518060400160405280600481526020017f63697479000000000000000000000000000000000000000000000000000000008152508383610c629092919063ffffffff16565b61039e600e60009054906101000a900473ffffffffffffffffffffffffffffffffffffffff1682601054610c95565b505050565b6000601380549050116103eb576040517f08c379a00000000000000000000000000000000000000000000000000000000081526004016103e290611bba565b60405180910390fd5b6000806000805b601380549050811015610498576008546013828154811061041657610415611bda565b5b9060005260206000200154101561043a57828061043290611c09565b935050610485565b6008546013828154811061045157610450611bda565b5b9060005260206000200154111561047557838061046d90611c09565b945050610484565b818061048090611c09565b9250505b5b808061049090611c09565b9150506103f2565b5080826104a59190611c52565b633b9aca00846104b59190611ab4565b6104bf9190611b3d565b60098190555080836104d19190611c52565b633b9aca00836104e19190611ab4565b6104eb9190611b3d565b600a81905550505050565b60085481565b601260003373ffffffffffffffffffffffffffffffffffffffff1673ffffffffffffffffffffffffffffffffffffffff16815260200190815260200160002060020160009054906101000a900460ff161561058c576040517f08c379a000000000000000000000000000000000000000000000000000000000815260040161058390611cf4565b60405180910390fd5b600c5442106105d0576040517f08c379a00000000000000000000000000000000000000000000000000000000081526004016105c790611d60565b60405180910390fd5b60643414610613576040517f08c379a000000000000000000000000000000000000000000000000000000000815260040161060a90611dcc565b60405180910390fd5b80601190805190602001906106299291906114e5565b50600060405180606001604052803373ffffffffffffffffffffffffffffffffffffffff1681526020018481526020016001151581525090506014339080600181540180825580915050600190039060005260206000200160009091909190916101000a81548173ffffffffffffffffffffffffffffffffffffffff021916908373ffffffffffffffffffffffffffffffffffffffff160217905550601383908060018154018082558091505060019003906000526020600020016000909190919091505534600b60008282546107009190611c52565b92505081905550610e10600d54426107189190611dec565b111561072f576107278261030d565b42600d819055505b505050565b61073c610cb5565b73ffffffffffffffffffffffffffffffffffffffff1661075a6108cd565b73ffffffffffffffffffffffffffffffffffffffff16146107b0576040517f08c379a00000000000000000000000000000000000000000000000000000000081526004016107a790611e6c565b60405180910390fd5b6107ba6000610cbd565b565b816006600082815260200190815260200160002060009054906101000a900473ffffffffffffffffffffffffffffffffffffffff1673ffffffffffffffffffffffffffffffffffffffff163373ffffffffffffffffffffffffffffffffffffffff161461085e576040517f08c379a000000000000000000000000000000000000000000000000000000000815260040161085590611efe565b60405180910390fd5b6006600082815260200190815260200160002060006101000a81549073ffffffffffffffffffffffffffffffffffffffff0219169055807f7cc135e0cebb02c3480ae5d74d377283180a2601f8f644edf7987b009316c63a60405160405180910390a281600881905550505050565b60008060009054906101000a900473ffffffffffffffffffffffffffffffffffffffff16905090565b60075481565b610904610cb5565b73ffffffffffffffffffffffffffffffffffffffff166109226108cd565b73ffffffffffffffffffffffffffffffffffffffff1614610978576040517f08c379a000000000000000000000000000000000000000000000000000000000815260040161096f90611e6c565b60405180910390fd5b60005b601480549050811015610a805760126000601483815481106109a05761099f611bda565b5b9060005260206000200160009054906101000a900473ffffffffffffffffffffffffffffffffffffffff1673ffffffffffffffffffffffffffffffffffffffff1673ffffffffffffffffffffffffffffffffffffffff168152602001908152602001600020600080820160006101000a81549073ffffffffffffffffffffffffffffffffffffffff021916905560018201600090556002820160006101000a81549060ff0219169055505060138181548110610a5f57610a5e611bda565b5b90600052602060002001600090558080610a7890611c09565b91505061097b565b5060146000610a8f919061156b565b60136000610a9d919061158c565b565b610aa7610cb5565b73ffffffffffffffffffffffffffffffffffffffff16610ac56108cd565b73ffffffffffffffffffffffffffffffffffffffff1614610b1b576040517f08c379a0000000000000000000000000000000000000000000000000000000008152600401610b1290611e6c565b60405180910390fd5b600073ffffffffffffffffffffffffffffffffffffffff168173ffffffffffffffffffffffffffffffffffffffff161415610b8b576040517f08c379a0000000000000000000000000000000000000000000000000000000008152600401610b8290611f90565b60405180910390fd5b610b9481610cbd565b50565b60118054610ba490611fdf565b80601f0160208091040260200160405190810160405280929190818152602001828054610bd090611fdf565b8015610c1d5780601f10610bf257610100808354040283529160200191610c1d565b820191906000526020600020905b815481529060010190602001808311610c0057829003601f168201915b505050505081565b60095481565b600a5481565b610c396115ad565b610c416115ad565b610c5885858584610d81909392919063ffffffff16565b9150509392505050565b610c79828460800151610e3190919063ffffffff16565b610c90818460800151610e3190919063ffffffff16565b505050565b6000610cac8484846001634042994660e01b610e56565b90509392505050565b600033905090565b60008060009054906101000a900473ffffffffffffffffffffffffffffffffffffffff169050816000806101000a81548173ffffffffffffffffffffffffffffffffffffffff021916908373ffffffffffffffffffffffffffffffffffffffff1602179055508173ffffffffffffffffffffffffffffffffffffffff168173ffffffffffffffffffffffffffffffffffffffff167f8be0079c531659141344cd1fd0a4f28419497f9722a3daafe3b4186f6b6457e060405160405180910390a35050565b610d896115ad565b610d9985608001516101006110be565b508385600001818152505082856020019073ffffffffffffffffffffffffffffffffffffffff16908173ffffffffffffffffffffffffffffffffffffffff16815250508185604001907bffffffffffffffffffffffffffffffffffffffffffffffffffffffff191690817bffffffffffffffffffffffffffffffffffffffffffffffffffffffff191681525050849050949350505050565b610e3e8260038351611128565b610e51818361126d90919063ffffffff16565b505050565b600030600554604051602001610e6d9291906120ca565b604051602081830303815290604052805190602001209050600554856060018181525050856006600083815260200190815260200160002060006101000a81548173ffffffffffffffffffffffffffffffffffffffff021916908373ffffffffffffffffffffffffffffffffffffffff160217905550807fb5e6e01e79f91267dc17b4e6314d5d4d03593d2ceee0fbb452b750bd70ea5af960405160405180910390a2600082600080886000015189602001518a604001518b606001518a8d6080015160000151604051602401610f4b989796959493929190612195565b604051602081830303815290604052907bffffffffffffffffffffffffffffffffffffffffffffffffffffffff19166020820180517bffffffffffffffffffffffffffffffffffffffffffffffffffffffff83818316178352505050509050600360009054906101000a900473ffffffffffffffffffffffffffffffffffffffff1673ffffffffffffffffffffffffffffffffffffffff16634000aea08887846040518463ffffffff1660e01b81526004016110099392919061221a565b602060405180830381600087803b15801561102357600080fd5b505af1158015611037573d6000803e3d6000fd5b505050506040513d601f19601f8201168201806040525081019061105b9190612290565b61109a576040517f08c379a00000000000000000000000000000000000000000000000000000000081526004016110919061232f565b60405180910390fd5b6001600560008282546110ad9190611c52565b925050819055505095945050505050565b6110c661161a565b60006020836110d5919061234f565b14611101576020826110e7919061234f565b60206110f39190611dec565b826110fe9190611c52565b91505b81836020018181525050604051808452600081528281016020016040525082905092915050565b601781116111555761114f8160058460ff16901b60ff16178461128f90919063ffffffff16565b50611268565b60ff81116111975761117a601860058460ff16901b178461128f90919063ffffffff16565b50611191816001856112af9092919063ffffffff16565b50611267565b61ffff81116111da576111bd601960058460ff16901b178461128f90919063ffffffff16565b506111d4816002856112af9092919063ffffffff16565b50611266565b63ffffffff811161121f57611202601a60058460ff16901b178461128f90919063ffffffff16565b50611219816004856112af9092919063ffffffff16565b50611265565b67ffffffffffffffff81116112645761124b601b60058460ff16901b178461128f90919063ffffffff16565b50611262816008856112af9092919063ffffffff16565b505b5b5b5b5b505050565b61127561161a565b611287838460000151518485516112d1565b905092915050565b61129761161a565b6112a783846000015151846113c0565b905092915050565b6112b761161a565b6112c8848560000151518585611417565b90509392505050565b6112d961161a565b82518211156112e757600080fd5b846020015182856112f89190611c52565b111561132d5761132c85600261131d886020015188876113189190611c52565b6114a5565b6113279190611ab4565b6114c1565b5b60008086518051876020830101935080888701111561134c5787860182525b60208701925050505b60208410611393578051825260208261136e9190611c52565b915060208161137d9190611c52565b905060208461138c9190611dec565b9350611355565b60006001856020036101000a03905080198251168184511681811785525050508692505050949350505050565b6113c861161a565b836020015183106113ee576113ed84600286602001516113e89190611ab4565b6114c1565b5b835180516020858301018481538186141561140a576001820183525b5050508390509392505050565b61141f61161a565b846020015184836114309190611c52565b11156114585761145785600286856114489190611c52565b6114529190611ab4565b6114c1565b5b600060018361010061146a91906124b3565b6114749190611dec565b905085518386820101858319825116178152815185880111156114975784870182525b505085915050949350505050565b6000818311156114b7578290506114bb565b8190505b92915050565b6000826000015190506114d483836110be565b506114df838261126d565b50505050565b8280546114f190611fdf565b90600052602060002090601f016020900481019282611513576000855561155a565b82601f1061152c57805160ff191683800117855561155a565b8280016001018555821561155a579182015b8281111561155957825182559160200191906001019061153e565b5b5090506115679190611634565b5090565b50805460008255906000526020600020908101906115899190611634565b50565b50805460008255906000526020600020908101906115aa9190611634565b50565b6040518060a0016040528060008019168152602001600073ffffffffffffffffffffffffffffffffffffffff16815260200160007bffffffffffffffffffffffffffffffffffffffffffffffffffffffff191681526020016000815260200161161461161a565b81525090565b604051806040016040528060608152602001600081525090565b5b8082111561164d576000816000905550600101611635565b5090565b6000819050919050565b61166481611651565b82525050565b600060208201905061167f600083018461165b565b92915050565b6000604051905090565b600080fd5b600080fd5b600080fd5b600080fd5b6000601f19601f8301169050919050565b7f4e487b7100000000000000000000000000000000000000000000000000000000600052604160045260246000fd5b6116ec826116a3565b810181811067ffffffffffffffff8211171561170b5761170a6116b4565b5b80604052505050565b600061171e611685565b905061172a82826116e3565b919050565b600067ffffffffffffffff82111561174a576117496116b4565b5b611753826116a3565b9050602081019050919050565b82818337600083830152505050565b600061178261177d8461172f565b611714565b90508281526020810184848401111561179e5761179d61169e565b5b6117a9848285611760565b509392505050565b600082601f8301126117c6576117c5611699565b5b81356117d684826020860161176f565b91505092915050565b6000602082840312156117f5576117f461168f565b5b600082013567ffffffffffffffff81111561181357611812611694565b5b61181f848285016117b1565b91505092915050565b61183181611651565b811461183c57600080fd5b50565b60008135905061184e81611828565b92915050565b6000806040838503121561186b5761186a61168f565b5b60006118798582860161183f565b925050602083013567ffffffffffffffff81111561189a57611899611694565b5b6118a6858286016117b1565b9150509250929050565b6000819050919050565b6118c3816118b0565b81146118ce57600080fd5b50565b6000813590506118e0816118ba565b92915050565b600080604083850312156118fd576118fc61168f565b5b600061190b858286016118d1565b925050602061191c8582860161183f565b9150509250929050565b600073ffffffffffffffffffffffffffffffffffffffff82169050919050565b600061195182611926565b9050919050565b61196181611946565b82525050565b600060208201905061197c6000830184611958565b92915050565b61198b81611946565b811461199657600080fd5b50565b6000813590506119a881611982565b92915050565b6000602082840312156119c4576119c361168f565b5b60006119d284828501611999565b91505092915050565b600081519050919050565b600082825260208201905092915050565b60005b83811015611a155780820151818401526020810190506119fa565b83811115611a24576000848401525b50505050565b6000611a35826119db565b611a3f81856119e6565b9350611a4f8185602086016119f7565b611a58816116a3565b840191505092915050565b60006020820190508181036000830152611a7d8184611a2a565b905092915050565b7f4e487b7100000000000000000000000000000000000000000000000000000000600052601160045260246000fd5b6000611abf82611651565b9150611aca83611651565b9250817fffffffffffffffffffffffffffffffffffffffffffffffffffffffffffffffff0483118215151615611b0357611b02611a85565b5b828202905092915050565b7f4e487b7100000000000000000000000000000000000000000000000000000000600052601260045260246000fd5b6000611b4882611651565b9150611b5383611651565b925082611b6357611b62611b0e565b5b828204905092915050565b7f50656f706c65206e65656420746f206861766520677565737365640000000000600082015250565b6000611ba4601b836119e6565b9150611baf82611b6e565b602082019050919050565b60006020820190508181036000830152611bd381611b97565b9050919050565b7f4e487b7100000000000000000000000000000000000000000000000000000000600052603260045260246000fd5b6000611c1482611651565b91507fffffffffffffffffffffffffffffffffffffffffffffffffffffffffffffffff821415611c4757611c46611a85565b5b600182019050919050565b6000611c5d82611651565b9150611c6883611651565b9250827fffffffffffffffffffffffffffffffffffffffffffffffffffffffffffffffff03821115611c9d57611c9c611a85565b5b828201905092915050565b7f5573657220616c72656164792067756573736564210000000000000000000000600082015250565b6000611cde6015836119e6565b9150611ce982611ca8565b602082019050919050565b60006020820190508181036000830152611d0d81611cd1565b9050919050565b7f5468652062657474696e6720706572696f64206973206f7665722e0000000000600082015250565b6000611d4a601b836119e6565b9150611d5582611d14565b602082019050919050565b60006020820190508181036000830152611d7981611d3d565b9050919050565b7f4e65656420746f2062657420746865206d696e696d756d20746f20706c61792e600082015250565b6000611db66020836119e6565b9150611dc182611d80565b602082019050919050565b60006020820190508181036000830152611de581611da9565b9050919050565b6000611df782611651565b9150611e0283611651565b925082821015611e1557611e14611a85565b5b828203905092915050565b7f4f776e61626c653a2063616c6c6572206973206e6f7420746865206f776e6572600082015250565b6000611e566020836119e6565b9150611e6182611e20565b602082019050919050565b60006020820190508181036000830152611e8581611e49565b9050919050565b7f536f75726365206d75737420626520746865206f7261636c65206f662074686560008201527f2072657175657374000000000000000000000000000000000000000000000000602082015250565b6000611ee86028836119e6565b9150611ef382611e8c565b604082019050919050565b60006020820190508181036000830152611f1781611edb565b9050919050565b7f4f776e61626c653a206e6577206f776e657220697320746865207a65726f206160008201527f6464726573730000000000000000000000000000000000000000000000000000602082015250565b6000611f7a6026836119e6565b9150611f8582611f1e565b604082019050919050565b60006020820190508181036000830152611fa981611f6d565b9050919050565b7f4e487b7100000000000000000000000000000000000000000000000000000000600052602260045260246000fd5b60006002820490506001821680611ff757607f821691505b6020821081141561200b5761200a611fb0565b5b50919050565b6000819050919050565b600061203661203161202c84611926565b612011565b611926565b9050919050565b60006120488261201b565b9050919050565b600061205a8261203d565b9050919050565b60008160601b9050919050565b600061207982612061565b9050919050565b600061208b8261206e565b9050919050565b6120a361209e8261204f565b612080565b82525050565b6000819050919050565b6120c46120bf82611651565b6120a9565b82525050565b60006120d68285612092565b6014820191506120e682846120b3565b6020820191508190509392505050565b6120ff816118b0565b82525050565b60007fffffffff0000000000000000000000000000000000000000000000000000000082169050919050565b61213a81612105565b82525050565b600081519050919050565b600082825260208201905092915050565b600061216782612140565b612171818561214b565b93506121818185602086016119f7565b61218a816116a3565b840191505092915050565b6000610100820190506121ab600083018b611958565b6121b8602083018a61165b565b6121c560408301896120f6565b6121d26060830188611958565b6121df6080830187612131565b6121ec60a083018661165b565b6121f960c083018561165b565b81810360e083015261220b818461215c565b90509998505050505050505050565b600060608201905061222f6000830186611958565b61223c602083018561165b565b818103604083015261224e818461215c565b9050949350505050565b60008115159050919050565b61226d81612258565b811461227857600080fd5b50565b60008151905061228a81612264565b92915050565b6000602082840312156122a6576122a561168f565b5b60006122b48482850161227b565b91505092915050565b7f756e61626c6520746f207472616e73666572416e6443616c6c20746f206f726160008201527f636c650000000000000000000000000000000000000000000000000000000000602082015250565b60006123196023836119e6565b9150612324826122bd565b604082019050919050565b600060208201905081810360008301526123488161230c565b9050919050565b600061235a82611651565b915061236583611651565b92508261237557612374611b0e565b5b828206905092915050565b60008160011c9050919050565b6000808291508390505b60018511156123d7578086048111156123b3576123b2611a85565b5b60018516156123c25780820291505b80810290506123d085612380565b9450612397565b94509492505050565b6000826123f057600190506124ac565b816123fe57600090506124ac565b8160018114612414576002811461241e5761244d565b60019150506124ac565b60ff8411156124305761242f611a85565b5b8360020a91508482111561244757612446611a85565b5b506124ac565b5060208310610133831016604e8410600b84101617156124825782820a90508381111561247d5761247c611a85565b5b6124ac565b61248f848484600161238d565b925090508184048111156124a6576124a5611a85565b5b81810290505b9392505050565b60006124be82611651565b91506124c983611651565b92506124f67fffffffffffffffffffffffffffffffffffffffffffffffffffffffffffffffff84846123e0565b90509291505056fea26469706673582212208a286294d335c34afe239014227546b85d42c06facfa5a91cc5eaf41c891d4f264736f6c63430008090033",
  "linkReferences": {},
  "deployedLinkReferences": {}
}