{
  "_format": "hh-sol-artifact-1",
  "contractName": "Betting",
  "sourceName": "contracts/Betting.sol",
  "abi": [
    {
      "inputs": [],
      "stateMutability": "nonpayable",
      "type": "constructor"
    },
    {
      "anonymous": false,
      "inputs": [
        {
          "indexed": true,
          "internalType": "bytes32",
          "name": "id",
          "type": "bytes32"
        }
      ],
      "name": "ChainlinkCancelled",
      "type": "event"
    },
    {
      "anonymous": false,
      "inputs": [
        {
          "indexed": true,
          "internalType": "bytes32",
          "name": "id",
          "type": "bytes32"
        }
      ],
      "name": "ChainlinkFulfilled",
      "type": "event"
    },
    {
      "anonymous": false,
      "inputs": [
        {
          "indexed": true,
          "internalType": "bytes32",
          "name": "id",
          "type": "bytes32"
        }
      ],
      "name": "ChainlinkRequested",
      "type": "event"
    },
    {
      "anonymous": false,
      "inputs": [
        {
          "indexed": true,
          "internalType": "address",
          "name": "previousOwner",
          "type": "address"
        },
        {
          "indexed": true,
          "internalType": "address",
          "name": "newOwner",
          "type": "address"
        }
      ],
      "name": "OwnershipTransferred",
      "type": "event"
    },
    {
      "anonymous": false,
      "inputs": [
        {
          "indexed": true,
          "internalType": "address",
          "name": "winner",
          "type": "address"
        },
        {
          "indexed": false,
          "internalType": "uint256",
          "name": "amount",
          "type": "uint256"
        }
      ],
      "name": "winnerPayed",
      "type": "event"
    },
    {
      "inputs": [],
      "name": "city",
      "outputs": [
        {
          "internalType": "string",
          "name": "",
          "type": "string"
        }
      ],
      "stateMutability": "view",
      "type": "function"
    },
    {
      "inputs": [],
      "name": "contractAddress",
      "outputs": [
        {
          "internalType": "address payable",
          "name": "",
          "type": "address"
        }
      ],
      "stateMutability": "view",
      "type": "function"
    },
    {
      "inputs": [
        {
          "internalType": "bytes32",
          "name": "_requestId",
          "type": "bytes32"
        },
        {
          "internalType": "uint256",
          "name": "_result",
          "type": "uint256"
        }
      ],
      "name": "fulfillWeatherTemperature",
      "outputs": [],
      "stateMutability": "nonpayable",
      "type": "function"
    },
    {
      "inputs": [],
      "name": "getPrizeMoney",
      "outputs": [
        {
          "internalType": "uint256",
          "name": "",
          "type": "uint256"
        }
      ],
      "stateMutability": "view",
      "type": "function"
    },
    {
      "inputs": [],
      "name": "oddsAbove",
      "outputs": [
        {
          "internalType": "uint256",
          "name": "",
          "type": "uint256"
        }
      ],
      "stateMutability": "view",
      "type": "function"
    },
    {
      "inputs": [],
      "name": "oddsBelow",
      "outputs": [
        {
          "internalType": "uint256",
          "name": "",
          "type": "uint256"
        }
      ],
      "stateMutability": "view",
      "type": "function"
    },
    {
      "inputs": [],
      "name": "owner",
      "outputs": [
        {
          "internalType": "address",
          "name": "",
          "type": "address"
        }
      ],
      "stateMutability": "view",
      "type": "function"
    },
    {
      "inputs": [],
      "name": "renounceOwnership",
      "outputs": [],
      "stateMutability": "nonpayable",
      "type": "function"
    },
    {
      "inputs": [
        {
          "internalType": "string",
          "name": "_city",
          "type": "string"
        }
      ],
      "name": "requestWeatherTemperature",
      "outputs": [],
      "stateMutability": "nonpayable",
      "type": "function"
    },
    {
      "inputs": [],
      "name": "resetLottery",
      "outputs": [],
      "stateMutability": "nonpayable",
      "type": "function"
    },
    {
      "inputs": [],
      "name": "result",
      "outputs": [
        {
          "internalType": "uint256",
          "name": "",
          "type": "uint256"
        }
      ],
      "stateMutability": "view",
      "type": "function"
    },
    {
      "inputs": [],
      "name": "setOdds",
      "outputs": [],
      "stateMutability": "nonpayable",
      "type": "function"
    },
    {
      "inputs": [
        {
          "internalType": "uint256",
          "name": "_guess",
          "type": "uint256"
        },
        {
          "internalType": "string",
          "name": "_city",
          "type": "string"
        }
      ],
      "name": "setUserGuess",
      "outputs": [],
      "stateMutability": "payable",
      "type": "function"
    },
    {
      "inputs": [
        {
          "internalType": "address",
          "name": "newOwner",
          "type": "address"
        }
      ],
      "name": "transferOwnership",
      "outputs": [],
      "stateMutability": "nonpayable",
      "type": "function"
    },
    {
      "inputs": [],
      "name": "volume",
      "outputs": [
        {
          "internalType": "uint256",
          "name": "",
          "type": "uint256"
        }
      ],
      "stateMutability": "view",
      "type": "function"
    }
  ],
  "bytecode": "0x6080604052600160055562093a80426200001a91906200031e565b600b553480156200002a57600080fd5b506200004b6200003f6200012d60201b60201c565b6200013560201b60201c565b6200005b620001f960201b60201c565b73aa1dc356dc4b18f30c347798fd5379f3d77abc5b600d60006101000a81548173ffffffffffffffffffffffffffffffffffffffff021916908373ffffffffffffffffffffffffffffffffffffffff1602179055507f3233356638623165656233363465666338336332366430626566326430633031600e8190555067016345785d8a0000600f8190555030601160006101000a81548173ffffffffffffffffffffffffffffffffffffffff021916908373ffffffffffffffffffffffffffffffffffffffff16021790555062000417565b600033905090565b60008060009054906101000a900473ffffffffffffffffffffffffffffffffffffffff169050816000806101000a81548173ffffffffffffffffffffffffffffffffffffffff021916908373ffffffffffffffffffffffffffffffffffffffff1602179055508173ffffffffffffffffffffffffffffffffffffffff168173ffffffffffffffffffffffffffffffffffffffff167f8be0079c531659141344cd1fd0a4f28419497f9722a3daafe3b4186f6b6457e060405160405180910390a35050565b6200029f73c89bd4e1632d3a43cb03aaad5262cbe4038bc57173ffffffffffffffffffffffffffffffffffffffff166338cc48316040518163ffffffff1660e01b815260040160206040518083038186803b1580156200025857600080fd5b505afa1580156200026d573d6000803e3d6000fd5b505050506040513d601f19601f82011682018060405250810190620002939190620003e5565b620002a160201b60201c565b565b80600360006101000a81548173ffffffffffffffffffffffffffffffffffffffff021916908373ffffffffffffffffffffffffffffffffffffffff16021790555050565b6000819050919050565b7f4e487b7100000000000000000000000000000000000000000000000000000000600052601160045260246000fd5b60006200032b82620002e5565b91506200033883620002e5565b9250827fffffffffffffffffffffffffffffffffffffffffffffffffffffffffffffffff0382111562000370576200036f620002ef565b5b828201905092915050565b600080fd5b600073ffffffffffffffffffffffffffffffffffffffff82169050919050565b6000620003ad8262000380565b9050919050565b620003bf81620003a0565b8114620003cb57600080fd5b50565b600081519050620003df81620003b4565b92915050565b600060208284031215620003fe57620003fd6200037b565b5b60006200040e84828501620003ce565b91505092915050565b6125ea80620004276000396000f3fe6080604052600436106100e85760003560e01c80638da5cb5b1161008a578063f6b4dfb411610059578063f6b4dfb414610275578063fd0160fe146102a0578063fe9cdab5146102cb578063ff2b4d17146102f6576100e8565b80638da5cb5b146101df578063c618a1e41461020a578063d337616e14610235578063f2fde38b1461024c576100e8565b806365372147116100c6578063653721471461015857806368c98ea314610183578063715018a61461019f578063836facd4146101b6576100e8565b80630737c24b146100ed5780632f2bd8fe14610118578063400a186014610141575b600080fd5b3480156100f957600080fd5b50610102610321565b60405161010f91906116e4565b60405180910390f35b34801561012457600080fd5b5061013f600480360381019061013a9190611859565b61037a565b005b34801561014d57600080fd5b50610156610410565b005b34801561016457600080fd5b5061016d610563565b60405161017a91906116e4565b60405180910390f35b61019d600480360381019061019891906118ce565b610569565b005b3480156101ab57600080fd5b506101b4610788565b005b3480156101c257600080fd5b506101dd60048036038101906101d89190611960565b610810565b005b3480156101eb57600080fd5b506101f4610921565b60405161020191906119e1565b60405180910390f35b34801561021657600080fd5b5061021f61094a565b60405161022c91906116e4565b60405180910390f35b34801561024157600080fd5b5061024a610950565b005b34801561025857600080fd5b50610273600480360381019061026e9190611a28565b610af3565b005b34801561028157600080fd5b5061028a610beb565b6040516102979190611a76565b60405180910390f35b3480156102ac57600080fd5b506102b5610c11565b6040516102c29190611b19565b60405180910390f35b3480156102d757600080fd5b506102e0610c9f565b6040516102ed91906116e4565b60405180910390f35b34801561030257600080fd5b5061030b610ca5565b60405161031891906116e4565b60405180910390f35b600060646063601160009054906101000a900473ffffffffffffffffffffffffffffffffffffffff1673ffffffffffffffffffffffffffffffffffffffff163161036b9190611b6a565b6103759190611bf3565b905090565b6000610390600e543063836facd460e01b610cab565b90506103dc6040518060400160405280600481526020017f63697479000000000000000000000000000000000000000000000000000000008152508383610cdc9092919063ffffffff16565b61040b600d60009054906101000a900473ffffffffffffffffffffffffffffffffffffffff1682600f54610d0f565b505050565b600060138054905011610458576040517f08c379a000000000000000000000000000000000000000000000000000000000815260040161044f90611c70565b60405180910390fd5b6000806000805b601380549050811015610505576008546013828154811061048357610482611c90565b5b906000526020600020015410156104a757828061049f90611cbf565b9350506104f2565b600854601382815481106104be576104bd611c90565b5b906000526020600020015411156104e25783806104da90611cbf565b9450506104f1565b81806104ed90611cbf565b9250505b5b80806104fd90611cbf565b91505061045f565b5080826105129190611d08565b633b9aca00846105229190611b6a565b61052c9190611bf3565b600981905550808361053e9190611d08565b633b9aca008361054e9190611b6a565b6105589190611bf3565b600a81905550505050565b60085481565b601260003373ffffffffffffffffffffffffffffffffffffffff1673ffffffffffffffffffffffffffffffffffffffff16815260200190815260200160002060020160009054906101000a900460ff16156105f9576040517f08c379a00000000000000000000000000000000000000000000000000000000081526004016105f090611daa565b60405180910390fd5b600b54421061063d576040517f08c379a000000000000000000000000000000000000000000000000000000000815260040161063490611e16565b60405180910390fd5b60643414610680576040517f08c379a000000000000000000000000000000000000000000000000000000000815260040161067790611e82565b60405180910390fd5b806010908051906020019061069692919061155f565b50600060405180606001604052803373ffffffffffffffffffffffffffffffffffffffff1681526020018481526020016001151581525090506014339080600181540180825580915050600190039060005260206000200160009091909190916101000a81548173ffffffffffffffffffffffffffffffffffffffff021916908373ffffffffffffffffffffffffffffffffffffffff1602179055506013839080600181540180825580915050600190039060005260206000200160009091909190915055610e10600c544261076c9190611ea2565b11156107835761077b8261037a565b42600c819055505b505050565b610790610d2f565b73ffffffffffffffffffffffffffffffffffffffff166107ae610921565b73ffffffffffffffffffffffffffffffffffffffff1614610804576040517f08c379a00000000000000000000000000000000000000000000000000000000081526004016107fb90611f22565b60405180910390fd5b61080e6000610d37565b565b816006600082815260200190815260200160002060009054906101000a900473ffffffffffffffffffffffffffffffffffffffff1673ffffffffffffffffffffffffffffffffffffffff163373ffffffffffffffffffffffffffffffffffffffff16146108b2576040517f08c379a00000000000000000000000000000000000000000000000000000000081526004016108a990611fb4565b60405180910390fd5b6006600082815260200190815260200160002060006101000a81549073ffffffffffffffffffffffffffffffffffffffff0219169055807f7cc135e0cebb02c3480ae5d74d377283180a2601f8f644edf7987b009316c63a60405160405180910390a281600881905550505050565b60008060009054906101000a900473ffffffffffffffffffffffffffffffffffffffff16905090565b60075481565b610958610d2f565b73ffffffffffffffffffffffffffffffffffffffff16610976610921565b73ffffffffffffffffffffffffffffffffffffffff16146109cc576040517f08c379a00000000000000000000000000000000000000000000000000000000081526004016109c390611f22565b60405180910390fd5b60005b601480549050811015610ad45760126000601483815481106109f4576109f3611c90565b5b9060005260206000200160009054906101000a900473ffffffffffffffffffffffffffffffffffffffff1673ffffffffffffffffffffffffffffffffffffffff1673ffffffffffffffffffffffffffffffffffffffff168152602001908152602001600020600080820160006101000a81549073ffffffffffffffffffffffffffffffffffffffff021916905560018201600090556002820160006101000a81549060ff0219169055505060138181548110610ab357610ab2611c90565b5b90600052602060002001600090558080610acc90611cbf565b9150506109cf565b5060146000610ae391906115e5565b60136000610af19190611606565b565b610afb610d2f565b73ffffffffffffffffffffffffffffffffffffffff16610b19610921565b73ffffffffffffffffffffffffffffffffffffffff1614610b6f576040517f08c379a0000000000000000000000000000000000000000000000000000000008152600401610b6690611f22565b60405180910390fd5b600073ffffffffffffffffffffffffffffffffffffffff168173ffffffffffffffffffffffffffffffffffffffff161415610bdf576040517f08c379a0000000000000000000000000000000000000000000000000000000008152600401610bd690612046565b60405180910390fd5b610be881610d37565b50565b601160009054906101000a900473ffffffffffffffffffffffffffffffffffffffff1681565b60108054610c1e90612095565b80601f0160208091040260200160405190810160405280929190818152602001828054610c4a90612095565b8015610c975780601f10610c6c57610100808354040283529160200191610c97565b820191906000526020600020905b815481529060010190602001808311610c7a57829003601f168201915b505050505081565b60095481565b600a5481565b610cb3611627565b610cbb611627565b610cd285858584610dfb909392919063ffffffff16565b9150509392505050565b610cf3828460800151610eab90919063ffffffff16565b610d0a818460800151610eab90919063ffffffff16565b505050565b6000610d268484846001634042994660e01b610ed0565b90509392505050565b600033905090565b60008060009054906101000a900473ffffffffffffffffffffffffffffffffffffffff169050816000806101000a81548173ffffffffffffffffffffffffffffffffffffffff021916908373ffffffffffffffffffffffffffffffffffffffff1602179055508173ffffffffffffffffffffffffffffffffffffffff168173ffffffffffffffffffffffffffffffffffffffff167f8be0079c531659141344cd1fd0a4f28419497f9722a3daafe3b4186f6b6457e060405160405180910390a35050565b610e03611627565b610e138560800151610100611138565b508385600001818152505082856020019073ffffffffffffffffffffffffffffffffffffffff16908173ffffffffffffffffffffffffffffffffffffffff16815250508185604001907bffffffffffffffffffffffffffffffffffffffffffffffffffffffff191690817bffffffffffffffffffffffffffffffffffffffffffffffffffffffff191681525050849050949350505050565b610eb882600383516111a2565b610ecb81836112e790919063ffffffff16565b505050565b600030600554604051602001610ee7929190612180565b604051602081830303815290604052805190602001209050600554856060018181525050856006600083815260200190815260200160002060006101000a81548173ffffffffffffffffffffffffffffffffffffffff021916908373ffffffffffffffffffffffffffffffffffffffff160217905550807fb5e6e01e79f91267dc17b4e6314d5d4d03593d2ceee0fbb452b750bd70ea5af960405160405180910390a2600082600080886000015189602001518a604001518b606001518a8d6080015160000151604051602401610fc598979695949392919061224b565b604051602081830303815290604052907bffffffffffffffffffffffffffffffffffffffffffffffffffffffff19166020820180517bffffffffffffffffffffffffffffffffffffffffffffffffffffffff83818316178352505050509050600360009054906101000a900473ffffffffffffffffffffffffffffffffffffffff1673ffffffffffffffffffffffffffffffffffffffff16634000aea08887846040518463ffffffff1660e01b8152600401611083939291906122d0565b602060405180830381600087803b15801561109d57600080fd5b505af11580156110b1573d6000803e3d6000fd5b505050506040513d601f19601f820116820180604052508101906110d59190612346565b611114576040517f08c379a000000000000000000000000000000000000000000000000000000000815260040161110b906123e5565b60405180910390fd5b6001600560008282546111279190611d08565b925050819055505095945050505050565b611140611694565b600060208361114f9190612405565b1461117b576020826111619190612405565b602061116d9190611ea2565b826111789190611d08565b91505b81836020018181525050604051808452600081528281016020016040525082905092915050565b601781116111cf576111c98160058460ff16901b60ff16178461130990919063ffffffff16565b506112e2565b60ff8111611211576111f4601860058460ff16901b178461130990919063ffffffff16565b5061120b816001856113299092919063ffffffff16565b506112e1565b61ffff811161125457611237601960058460ff16901b178461130990919063ffffffff16565b5061124e816002856113299092919063ffffffff16565b506112e0565b63ffffffff81116112995761127c601a60058460ff16901b178461130990919063ffffffff16565b50611293816004856113299092919063ffffffff16565b506112df565b67ffffffffffffffff81116112de576112c5601b60058460ff16901b178461130990919063ffffffff16565b506112dc816008856113299092919063ffffffff16565b505b5b5b5b5b505050565b6112ef611694565b6113018384600001515184855161134b565b905092915050565b611311611694565b611321838460000151518461143a565b905092915050565b611331611694565b611342848560000151518585611491565b90509392505050565b611353611694565b825182111561136157600080fd5b846020015182856113729190611d08565b11156113a7576113a6856002611397886020015188876113929190611d08565b61151f565b6113a19190611b6a565b61153b565b5b6000808651805187602083010193508088870111156113c65787860182525b60208701925050505b6020841061140d57805182526020826113e89190611d08565b91506020816113f79190611d08565b90506020846114069190611ea2565b93506113cf565b60006001856020036101000a03905080198251168184511681811785525050508692505050949350505050565b611442611694565b836020015183106114685761146784600286602001516114629190611b6a565b61153b565b5b8351805160208583010184815381861415611484576001820183525b5050508390509392505050565b611499611694565b846020015184836114aa9190611d08565b11156114d2576114d185600286856114c29190611d08565b6114cc9190611b6a565b61153b565b5b60006001836101006114e49190612569565b6114ee9190611ea2565b905085518386820101858319825116178152815185880111156115115784870182525b505085915050949350505050565b60008183111561153157829050611535565b8190505b92915050565b60008260000151905061154e8383611138565b5061155983826112e7565b50505050565b82805461156b90612095565b90600052602060002090601f01602090048101928261158d57600085556115d4565b82601f106115a657805160ff19168380011785556115d4565b828001600101855582156115d4579182015b828111156115d35782518255916020019190600101906115b8565b5b5090506115e191906116ae565b5090565b508054600082559060005260206000209081019061160391906116ae565b50565b508054600082559060005260206000209081019061162491906116ae565b50565b6040518060a0016040528060008019168152602001600073ffffffffffffffffffffffffffffffffffffffff16815260200160007bffffffffffffffffffffffffffffffffffffffffffffffffffffffff191681526020016000815260200161168e611694565b81525090565b604051806040016040528060608152602001600081525090565b5b808211156116c75760008160009055506001016116af565b5090565b6000819050919050565b6116de816116cb565b82525050565b60006020820190506116f960008301846116d5565b92915050565b6000604051905090565b600080fd5b600080fd5b600080fd5b600080fd5b6000601f19601f8301169050919050565b7f4e487b7100000000000000000000000000000000000000000000000000000000600052604160045260246000fd5b6117668261171d565b810181811067ffffffffffffffff821117156117855761178461172e565b5b80604052505050565b60006117986116ff565b90506117a4828261175d565b919050565b600067ffffffffffffffff8211156117c4576117c361172e565b5b6117cd8261171d565b9050602081019050919050565b82818337600083830152505050565b60006117fc6117f7846117a9565b61178e565b90508281526020810184848401111561181857611817611718565b5b6118238482856117da565b509392505050565b600082601f8301126118405761183f611713565b5b81356118508482602086016117e9565b91505092915050565b60006020828403121561186f5761186e611709565b5b600082013567ffffffffffffffff81111561188d5761188c61170e565b5b6118998482850161182b565b91505092915050565b6118ab816116cb565b81146118b657600080fd5b50565b6000813590506118c8816118a2565b92915050565b600080604083850312156118e5576118e4611709565b5b60006118f3858286016118b9565b925050602083013567ffffffffffffffff8111156119145761191361170e565b5b6119208582860161182b565b9150509250929050565b6000819050919050565b61193d8161192a565b811461194857600080fd5b50565b60008135905061195a81611934565b92915050565b6000806040838503121561197757611976611709565b5b60006119858582860161194b565b9250506020611996858286016118b9565b9150509250929050565b600073ffffffffffffffffffffffffffffffffffffffff82169050919050565b60006119cb826119a0565b9050919050565b6119db816119c0565b82525050565b60006020820190506119f660008301846119d2565b92915050565b611a05816119c0565b8114611a1057600080fd5b50565b600081359050611a22816119fc565b92915050565b600060208284031215611a3e57611a3d611709565b5b6000611a4c84828501611a13565b91505092915050565b6000611a60826119a0565b9050919050565b611a7081611a55565b82525050565b6000602082019050611a8b6000830184611a67565b92915050565b600081519050919050565b600082825260208201905092915050565b60005b83811015611acb578082015181840152602081019050611ab0565b83811115611ada576000848401525b50505050565b6000611aeb82611a91565b611af58185611a9c565b9350611b05818560208601611aad565b611b0e8161171d565b840191505092915050565b60006020820190508181036000830152611b338184611ae0565b905092915050565b7f4e487b7100000000000000000000000000000000000000000000000000000000600052601160045260246000fd5b6000611b75826116cb565b9150611b80836116cb565b9250817fffffffffffffffffffffffffffffffffffffffffffffffffffffffffffffffff0483118215151615611bb957611bb8611b3b565b5b828202905092915050565b7f4e487b7100000000000000000000000000000000000000000000000000000000600052601260045260246000fd5b6000611bfe826116cb565b9150611c09836116cb565b925082611c1957611c18611bc4565b5b828204905092915050565b7f50656f706c65206e65656420746f206861766520677565737365640000000000600082015250565b6000611c5a601b83611a9c565b9150611c6582611c24565b602082019050919050565b60006020820190508181036000830152611c8981611c4d565b9050919050565b7f4e487b7100000000000000000000000000000000000000000000000000000000600052603260045260246000fd5b6000611cca826116cb565b91507fffffffffffffffffffffffffffffffffffffffffffffffffffffffffffffffff821415611cfd57611cfc611b3b565b5b600182019050919050565b6000611d13826116cb565b9150611d1e836116cb565b9250827fffffffffffffffffffffffffffffffffffffffffffffffffffffffffffffffff03821115611d5357611d52611b3b565b5b828201905092915050565b7f5573657220616c72656164792067756573736564210000000000000000000000600082015250565b6000611d94601583611a9c565b9150611d9f82611d5e565b602082019050919050565b60006020820190508181036000830152611dc381611d87565b9050919050565b7f5468652062657474696e6720706572696f64206973206f7665722e0000000000600082015250565b6000611e00601b83611a9c565b9150611e0b82611dca565b602082019050919050565b60006020820190508181036000830152611e2f81611df3565b9050919050565b7f4e65656420746f2062657420746865206d696e696d756d20746f20706c61792e600082015250565b6000611e6c602083611a9c565b9150611e7782611e36565b602082019050919050565b60006020820190508181036000830152611e9b81611e5f565b9050919050565b6000611ead826116cb565b9150611eb8836116cb565b925082821015611ecb57611eca611b3b565b5b828203905092915050565b7f4f776e61626c653a2063616c6c6572206973206e6f7420746865206f776e6572600082015250565b6000611f0c602083611a9c565b9150611f1782611ed6565b602082019050919050565b60006020820190508181036000830152611f3b81611eff565b9050919050565b7f536f75726365206d75737420626520746865206f7261636c65206f662074686560008201527f2072657175657374000000000000000000000000000000000000000000000000602082015250565b6000611f9e602883611a9c565b9150611fa982611f42565b604082019050919050565b60006020820190508181036000830152611fcd81611f91565b9050919050565b7f4f776e61626c653a206e6577206f776e657220697320746865207a65726f206160008201527f6464726573730000000000000000000000000000000000000000000000000000602082015250565b6000612030602683611a9c565b915061203b82611fd4565b604082019050919050565b6000602082019050818103600083015261205f81612023565b9050919050565b7f4e487b7100000000000000000000000000000000000000000000000000000000600052602260045260246000fd5b600060028204905060018216806120ad57607f821691505b602082108114156120c1576120c0612066565b5b50919050565b6000819050919050565b60006120ec6120e76120e2846119a0565b6120c7565b6119a0565b9050919050565b60006120fe826120d1565b9050919050565b6000612110826120f3565b9050919050565b60008160601b9050919050565b600061212f82612117565b9050919050565b600061214182612124565b9050919050565b61215961215482612105565b612136565b82525050565b6000819050919050565b61217a612175826116cb565b61215f565b82525050565b600061218c8285612148565b60148201915061219c8284612169565b6020820191508190509392505050565b6121b58161192a565b82525050565b60007fffffffff0000000000000000000000000000000000000000000000000000000082169050919050565b6121f0816121bb565b82525050565b600081519050919050565b600082825260208201905092915050565b600061221d826121f6565b6122278185612201565b9350612237818560208601611aad565b6122408161171d565b840191505092915050565b600061010082019050612261600083018b6119d2565b61226e602083018a6116d5565b61227b60408301896121ac565b61228860608301886119d2565b61229560808301876121e7565b6122a260a08301866116d5565b6122af60c08301856116d5565b81810360e08301526122c18184612212565b90509998505050505050505050565b60006060820190506122e560008301866119d2565b6122f260208301856116d5565b81810360408301526123048184612212565b9050949350505050565b60008115159050919050565b6123238161230e565b811461232e57600080fd5b50565b6000815190506123408161231a565b92915050565b60006020828403121561235c5761235b611709565b5b600061236a84828501612331565b91505092915050565b7f756e61626c6520746f207472616e73666572416e6443616c6c20746f206f726160008201527f636c650000000000000000000000000000000000000000000000000000000000602082015250565b60006123cf602383611a9c565b91506123da82612373565b604082019050919050565b600060208201905081810360008301526123fe816123c2565b9050919050565b6000612410826116cb565b915061241b836116cb565b92508261242b5761242a611bc4565b5b828206905092915050565b60008160011c9050919050565b6000808291508390505b600185111561248d5780860481111561246957612468611b3b565b5b60018516156124785780820291505b808102905061248685612436565b945061244d565b94509492505050565b6000826124a65760019050612562565b816124b45760009050612562565b81600181146124ca57600281146124d457612503565b6001915050612562565b60ff8411156124e6576124e5611b3b565b5b8360020a9150848211156124fd576124fc611b3b565b5b50612562565b5060208310610133831016604e8410600b84101617156125385782820a90508381111561253357612532611b3b565b5b612562565b6125458484846001612443565b9250905081840481111561255c5761255b611b3b565b5b81810290505b9392505050565b6000612574826116cb565b915061257f836116cb565b92506125ac7fffffffffffffffffffffffffffffffffffffffffffffffffffffffffffffffff8484612496565b90509291505056fea2646970667358221220e404ec599c0fe3ffc996d081efa2f87a4adee1300117a5f2fcf7a1aebcdb1d5f64736f6c63430008090033",
  "linkReferences": {},
  "deployedLinkReferences": {}
}