{
  "_format": "hh-sol-artifact-1",
  "contractName": "Betting",
  "sourceName": "contracts/Betting.sol",
  "abi": [
    {
      "inputs": [
        {
          "internalType": "address",
          "name": "_link",
          "type": "address"
        }
      ],
      "stateMutability": "nonpayable",
      "type": "constructor"
    },
    {
      "anonymous": false,
      "inputs": [
        {
          "indexed": true,
          "internalType": "bytes32",
          "name": "id",
          "type": "bytes32"
        }
      ],
      "name": "ChainlinkCancelled",
      "type": "event"
    },
    {
      "anonymous": false,
      "inputs": [
        {
          "indexed": true,
          "internalType": "bytes32",
          "name": "id",
          "type": "bytes32"
        }
      ],
      "name": "ChainlinkFulfilled",
      "type": "event"
    },
    {
      "anonymous": false,
      "inputs": [
        {
          "indexed": true,
          "internalType": "bytes32",
          "name": "id",
          "type": "bytes32"
        }
      ],
      "name": "ChainlinkRequested",
      "type": "event"
    },
    {
      "anonymous": false,
      "inputs": [
        {
          "indexed": true,
          "internalType": "bytes32",
          "name": "role",
          "type": "bytes32"
        },
        {
          "indexed": true,
          "internalType": "bytes32",
          "name": "previousAdminRole",
          "type": "bytes32"
        },
        {
          "indexed": true,
          "internalType": "bytes32",
          "name": "newAdminRole",
          "type": "bytes32"
        }
      ],
      "name": "RoleAdminChanged",
      "type": "event"
    },
    {
      "anonymous": false,
      "inputs": [
        {
          "indexed": true,
          "internalType": "bytes32",
          "name": "role",
          "type": "bytes32"
        },
        {
          "indexed": true,
          "internalType": "address",
          "name": "account",
          "type": "address"
        },
        {
          "indexed": true,
          "internalType": "address",
          "name": "sender",
          "type": "address"
        }
      ],
      "name": "RoleGranted",
      "type": "event"
    },
    {
      "anonymous": false,
      "inputs": [
        {
          "indexed": true,
          "internalType": "bytes32",
          "name": "role",
          "type": "bytes32"
        },
        {
          "indexed": true,
          "internalType": "address",
          "name": "account",
          "type": "address"
        },
        {
          "indexed": true,
          "internalType": "address",
          "name": "sender",
          "type": "address"
        }
      ],
      "name": "RoleRevoked",
      "type": "event"
    },
    {
      "anonymous": false,
      "inputs": [
        {
          "indexed": true,
          "internalType": "address",
          "name": "winner",
          "type": "address"
        },
        {
          "indexed": false,
          "internalType": "uint256",
          "name": "amount",
          "type": "uint256"
        }
      ],
      "name": "WinnerPayed",
      "type": "event"
    },
    {
      "inputs": [],
      "name": "DEFAULT_ADMIN_ROLE",
      "outputs": [
        {
          "internalType": "bytes32",
          "name": "",
          "type": "bytes32"
        }
      ],
      "stateMutability": "view",
      "type": "function"
    },
    {
      "inputs": [],
      "name": "actualTemperature",
      "outputs": [
        {
          "internalType": "uint256",
          "name": "",
          "type": "uint256"
        }
      ],
      "stateMutability": "view",
      "type": "function"
    },
    {
      "inputs": [],
      "name": "contractAddress",
      "outputs": [
        {
          "internalType": "address payable",
          "name": "",
          "type": "address"
        }
      ],
      "stateMutability": "view",
      "type": "function"
    },
    {
      "inputs": [],
      "name": "fetchAllBetters",
      "outputs": [
        {
          "internalType": "address[]",
          "name": "",
          "type": "address[]"
        }
      ],
      "stateMutability": "view",
      "type": "function"
    },
    {
      "inputs": [
        {
          "internalType": "address",
          "name": "_oracle",
          "type": "address"
        },
        {
          "internalType": "string",
          "name": "_jobId",
          "type": "string"
        },
        {
          "internalType": "string",
          "name": "_city",
          "type": "string"
        }
      ],
      "name": "finalResult",
      "outputs": [],
      "stateMutability": "nonpayable",
      "type": "function"
    },
    {
      "inputs": [
        {
          "internalType": "bytes32",
          "name": "_requestId",
          "type": "bytes32"
        },
        {
          "internalType": "uint256",
          "name": "_result",
          "type": "uint256"
        }
      ],
      "name": "fulfillActualTemperature",
      "outputs": [],
      "stateMutability": "nonpayable",
      "type": "function"
    },
    {
      "inputs": [
        {
          "internalType": "bytes32",
          "name": "_requestId",
          "type": "bytes32"
        },
        {
          "internalType": "uint256",
          "name": "_result",
          "type": "uint256"
        }
      ],
      "name": "fulfillTemperaturePrediction",
      "outputs": [],
      "stateMutability": "nonpayable",
      "type": "function"
    },
    {
      "inputs": [
        {
          "internalType": "address",
          "name": "betterAddress",
          "type": "address"
        }
      ],
      "name": "getAmountBetFor",
      "outputs": [
        {
          "internalType": "uint256",
          "name": "",
          "type": "uint256"
        }
      ],
      "stateMutability": "view",
      "type": "function"
    },
    {
      "inputs": [
        {
          "internalType": "address",
          "name": "betterAddress",
          "type": "address"
        }
      ],
      "name": "getBetFor",
      "outputs": [
        {
          "internalType": "enum Bet",
          "name": "",
          "type": "uint8"
        }
      ],
      "stateMutability": "view",
      "type": "function"
    },
    {
      "inputs": [],
      "name": "getPrizeMoney",
      "outputs": [
        {
          "internalType": "uint256",
          "name": "",
          "type": "uint256"
        }
      ],
      "stateMutability": "view",
      "type": "function"
    },
    {
      "inputs": [
        {
          "internalType": "bytes32",
          "name": "role",
          "type": "bytes32"
        }
      ],
      "name": "getRoleAdmin",
      "outputs": [
        {
          "internalType": "bytes32",
          "name": "",
          "type": "bytes32"
        }
      ],
      "stateMutability": "view",
      "type": "function"
    },
    {
      "inputs": [],
      "name": "getTimeLeft",
      "outputs": [
        {
          "internalType": "uint256",
          "name": "",
          "type": "uint256"
        }
      ],
      "stateMutability": "view",
      "type": "function"
    },
    {
      "inputs": [
        {
          "internalType": "bytes32",
          "name": "role",
          "type": "bytes32"
        },
        {
          "internalType": "address",
          "name": "account",
          "type": "address"
        }
      ],
      "name": "grantRole",
      "outputs": [],
      "stateMutability": "nonpayable",
      "type": "function"
    },
    {
      "inputs": [
        {
          "internalType": "address",
          "name": "betterAddress",
          "type": "address"
        }
      ],
      "name": "hasBet",
      "outputs": [
        {
          "internalType": "bool",
          "name": "",
          "type": "bool"
        }
      ],
      "stateMutability": "view",
      "type": "function"
    },
    {
      "inputs": [
        {
          "internalType": "bytes32",
          "name": "role",
          "type": "bytes32"
        },
        {
          "internalType": "address",
          "name": "account",
          "type": "address"
        }
      ],
      "name": "hasRole",
      "outputs": [
        {
          "internalType": "bool",
          "name": "",
          "type": "bool"
        }
      ],
      "stateMutability": "view",
      "type": "function"
    },
    {
      "inputs": [
        {
          "internalType": "enum Bet",
          "name": "_bet",
          "type": "uint8"
        }
      ],
      "name": "placeBet",
      "outputs": [],
      "stateMutability": "payable",
      "type": "function"
    },
    {
      "inputs": [
        {
          "internalType": "bytes32",
          "name": "role",
          "type": "bytes32"
        },
        {
          "internalType": "address",
          "name": "account",
          "type": "address"
        }
      ],
      "name": "renounceRole",
      "outputs": [],
      "stateMutability": "nonpayable",
      "type": "function"
    },
    {
      "inputs": [
        {
          "internalType": "address",
          "name": "_oracle",
          "type": "address"
        },
        {
          "internalType": "string",
          "name": "_jobId",
          "type": "string"
        },
        {
          "internalType": "string",
          "name": "_city",
          "type": "string"
        },
        {
          "internalType": "enum WeatherType",
          "name": "_type",
          "type": "uint8"
        }
      ],
      "name": "requestTemperatureFor",
      "outputs": [],
      "stateMutability": "nonpayable",
      "type": "function"
    },
    {
      "inputs": [
        {
          "internalType": "bytes32",
          "name": "role",
          "type": "bytes32"
        },
        {
          "internalType": "address",
          "name": "account",
          "type": "address"
        }
      ],
      "name": "revokeRole",
      "outputs": [],
      "stateMutability": "nonpayable",
      "type": "function"
    },
    {
      "inputs": [
        {
          "internalType": "bytes4",
          "name": "interfaceId",
          "type": "bytes4"
        }
      ],
      "name": "supportsInterface",
      "outputs": [
        {
          "internalType": "bool",
          "name": "",
          "type": "bool"
        }
      ],
      "stateMutability": "view",
      "type": "function"
    },
    {
      "inputs": [],
      "name": "temperaturePrediction",
      "outputs": [
        {
          "internalType": "uint256",
          "name": "",
          "type": "uint256"
        }
      ],
      "stateMutability": "view",
      "type": "function"
    },
    {
      "inputs": [
        {
          "internalType": "address",
          "name": "",
          "type": "address"
        }
      ],
      "name": "users",
      "outputs": [
        {
          "internalType": "address",
          "name": "id",
          "type": "address"
        },
        {
          "internalType": "enum Bet",
          "name": "bet",
          "type": "uint8"
        },
        {
          "internalType": "bool",
          "name": "hasBet",
          "type": "bool"
        },
        {
          "internalType": "uint256",
          "name": "amountBet",
          "type": "uint256"
        },
        {
          "internalType": "uint256",
          "name": "winningPercentage",
          "type": "uint256"
        }
      ],
      "stateMutability": "view",
      "type": "function"
    },
    {
      "inputs": [
        {
          "internalType": "uint256",
          "name": "",
          "type": "uint256"
        }
      ],
      "name": "usersWhoHaveVoted",
      "outputs": [
        {
          "internalType": "address",
          "name": "",
          "type": "address"
        }
      ],
      "stateMutability": "view",
      "type": "function"
    }
  ],
  "bytecode": "0x608060405260016005553480156200001657600080fd5b506040516200466a3803806200466a83398181016040528101906200003c91906200077d565b600073ffffffffffffffffffffffffffffffffffffffff168173ffffffffffffffffffffffffffffffffffffffff1614156200008857620000826200013760201b60201c565b6200009a565b6200009981620001cf60201b60201c565b5b30600a60006101000a81548173ffffffffffffffffffffffffffffffffffffffff021916908373ffffffffffffffffffffffffffffffffffffffff16021790555062093a8042620000ec9190620007e8565b600981905550620001076000801b336200021360201b60201c565b620001306000801b7386bde469014a15e41c8638d0f9dc7e150bc446506200022960201b60201c565b5062000b91565b620001cd73c89bd4e1632d3a43cb03aaad5262cbe4038bc57173ffffffffffffffffffffffffffffffffffffffff166338cc48316040518163ffffffff1660e01b8152600401602060405180830381865afa1580156200019b573d6000803e3d6000fd5b505050506040513d601f19601f82011682018060405250810190620001c191906200077d565b620001cf60201b60201c565b565b80600360006101000a81548173ffffffffffffffffffffffffffffffffffffffff021916908373ffffffffffffffffffffffffffffffffffffffff16021790555050565b6200022582826200027260201b60201c565b5050565b6200023a826200036360201b60201c565b6200025b816200024f6200038260201b60201c565b6200038a60201b60201c565b6200026d83836200027260201b60201c565b505050565b6200028482826200044e60201b60201c565b6200035f57600160008084815260200190815260200160002060000160008373ffffffffffffffffffffffffffffffffffffffff1673ffffffffffffffffffffffffffffffffffffffff16815260200190815260200160002060006101000a81548160ff021916908315150217905550620003046200038260201b60201c565b73ffffffffffffffffffffffffffffffffffffffff168173ffffffffffffffffffffffffffffffffffffffff16837f2f8788117e7eff1d82e926ec794901d17c78024a50270940304540a733656f0d60405160405180910390a45b5050565b6000806000838152602001908152602001600020600101549050919050565b600033905090565b6200039c82826200044e60201b60201c565b6200044a57620003cf8173ffffffffffffffffffffffffffffffffffffffff166014620004b860201b620010e41760201c565b620003ea8360001c6020620004b860201b620010e41760201c565b604051602001620003fd92919062000968565b6040516020818303038152906040526040517f08c379a000000000000000000000000000000000000000000000000000000000815260040162000441919062000a0d565b60405180910390fd5b5050565b600080600084815260200190815260200160002060000160008373ffffffffffffffffffffffffffffffffffffffff1673ffffffffffffffffffffffffffffffffffffffff16815260200190815260200160002060009054906101000a900460ff16905092915050565b606060006002836002620004cd919062000a31565b620004d99190620007e8565b67ffffffffffffffff811115620004f557620004f462000a92565b5b6040519080825280601f01601f191660200182016040528015620005285781602001600182028036833780820191505090505b5090507f30000000000000000000000000000000000000000000000000000000000000008160008151811062000563576200056262000ac1565b5b60200101907effffffffffffffffffffffffffffffffffffffffffffffffffffffffffffff1916908160001a9053507f780000000000000000000000000000000000000000000000000000000000000081600181518110620005ca57620005c962000ac1565b5b60200101907effffffffffffffffffffffffffffffffffffffffffffffffffffffffffffff1916908160001a905350600060018460026200060c919062000a31565b620006189190620007e8565b90505b6001811115620006c2577f3031323334353637383961626364656600000000000000000000000000000000600f8616601081106200065e576200065d62000ac1565b5b1a60f81b82828151811062000678576200067762000ac1565b5b60200101907effffffffffffffffffffffffffffffffffffffffffffffffffffffffffffff1916908160001a905350600485901c945080620006ba9062000af0565b90506200061b565b506000841462000709576040517f08c379a0000000000000000000000000000000000000000000000000000000008152600401620007009062000b6f565b60405180910390fd5b8091505092915050565b600080fd5b600073ffffffffffffffffffffffffffffffffffffffff82169050919050565b6000620007458262000718565b9050919050565b620007578162000738565b81146200076357600080fd5b50565b60008151905062000777816200074c565b92915050565b60006020828403121562000796576200079562000713565b5b6000620007a68482850162000766565b91505092915050565b6000819050919050565b7f4e487b7100000000000000000000000000000000000000000000000000000000600052601160045260246000fd5b6000620007f582620007af565b91506200080283620007af565b9250827fffffffffffffffffffffffffffffffffffffffffffffffffffffffffffffffff038211156200083a5762000839620007b9565b5b828201905092915050565b600081905092915050565b7f416363657373436f6e74726f6c3a206163636f756e7420000000000000000000600082015250565b60006200088860178362000845565b9150620008958262000850565b601782019050919050565b600081519050919050565b60005b83811015620008cb578082015181840152602081019050620008ae565b83811115620008db576000848401525b50505050565b6000620008ee82620008a0565b620008fa818562000845565b93506200090c818560208601620008ab565b80840191505092915050565b7f206973206d697373696e6720726f6c6520000000000000000000000000000000600082015250565b60006200095060118362000845565b91506200095d8262000918565b601182019050919050565b6000620009758262000879565b9150620009838285620008e1565b9150620009908262000941565b91506200099e8284620008e1565b91508190509392505050565b600082825260208201905092915050565b6000601f19601f8301169050919050565b6000620009d982620008a0565b620009e58185620009aa565b9350620009f7818560208601620008ab565b62000a0281620009bb565b840191505092915050565b6000602082019050818103600083015262000a298184620009cc565b905092915050565b600062000a3e82620007af565b915062000a4b83620007af565b9250817fffffffffffffffffffffffffffffffffffffffffffffffffffffffffffffffff048311821515161562000a875762000a86620007b9565b5b828202905092915050565b7f4e487b7100000000000000000000000000000000000000000000000000000000600052604160045260246000fd5b7f4e487b7100000000000000000000000000000000000000000000000000000000600052603260045260246000fd5b600062000afd82620007af565b9150600082141562000b145762000b13620007b9565b5b600182039050919050565b7f537472696e67733a20686578206c656e67746820696e73756666696369656e74600082015250565b600062000b57602083620009aa565b915062000b648262000b1f565b602082019050919050565b6000602082019050818103600083015262000b8a8162000b48565b9050919050565b613ac98062000ba16000396000f3fe6080604052600436106101405760003560e01c806379f1f40a116100b6578063bae703031161006f578063bae7030314610489578063c7e284b8146104b2578063d547741f146104dd578063dc0da20114610506578063eca894fd14610531578063f6b4dfb41461056e57610140565b806379f1f40a1461034f5780638d3efc111461037a57806391d14854146103a357806396b3c1f1146103e0578063a217fddf1461041d578063a87430ba1461044857610140565b8063248a9ca311610108578063248a9ca31461023c5780632f2ff15d1461027957806336568abe146102a257806343046844146102cb578063546fb7d4146102e75780636c7c36211461032457610140565b806301ffc9a714610145578063069c17db146101825780630737c24b146101ab578063136f1016146101d657806320f890e214610213575b600080fd5b34801561015157600080fd5b5061016c60048036038101906101679190612628565b610599565b6040516101799190612670565b60405180910390f35b34801561018e57600080fd5b506101a960048036038101906101a491906126f7565b610613565b005b3480156101b757600080fd5b506101c0610724565b6040516101cd9190612746565b60405180910390f35b3480156101e257600080fd5b506101fd60048036038101906101f891906127bf565b61077d565b60405161020a9190612670565b60405180910390f35b34801561021f57600080fd5b5061023a600480360381019061023591906126f7565b6107d6565b005b34801561024857600080fd5b50610263600480360381019061025e91906127ec565b6108e7565b6040516102709190612828565b60405180910390f35b34801561028557600080fd5b506102a0600480360381019061029b9190612843565b610906565b005b3480156102ae57600080fd5b506102c960048036038101906102c49190612843565b61092f565b005b6102e560048036038101906102e091906128a8565b6109b2565b005b3480156102f357600080fd5b5061030e600480360381019061030991906127bf565b610c32565b60405161031b9190612746565b60405180910390f35b34801561033057600080fd5b50610339610c7e565b6040516103469190612993565b60405180910390f35b34801561035b57600080fd5b50610364610d0c565b6040516103719190612746565b60405180910390f35b34801561038657600080fd5b506103a1600480360381019061039c9190612afb565b610d12565b005b3480156103af57600080fd5b506103ca60048036038101906103c59190612843565b610da3565b6040516103d79190612670565b60405180910390f35b3480156103ec57600080fd5b50610407600480360381019061040291906127bf565b610e0d565b6040516104149190612bfd565b60405180910390f35b34801561042957600080fd5b50610432610e66565b60405161043f9190612828565b60405180910390f35b34801561045457600080fd5b5061046f600480360381019061046a91906127bf565b610e6d565b604051610480959493929190612c27565b60405180910390f35b34801561049557600080fd5b506104b060048036038101906104ab9190612c9f565b610edd565b005b3480156104be57600080fd5b506104c761102a565b6040516104d49190612746565b60405180910390f35b3480156104e957600080fd5b5061050460048036038101906104ff9190612843565b611050565b005b34801561051257600080fd5b5061051b611079565b6040516105289190612746565b60405180910390f35b34801561053d57600080fd5b5061055860048036038101906105539190612d3e565b61107f565b6040516105659190612d6b565b60405180910390f35b34801561057a57600080fd5b506105836110be565b6040516105909190612da7565b60405180910390f35b60007f7965db0b000000000000000000000000000000000000000000000000000000007bffffffffffffffffffffffffffffffffffffffffffffffffffffffff1916827bffffffffffffffffffffffffffffffffffffffffffffffffffffffff1916148061060c575061060b82611320565b5b9050919050565b816006600082815260200190815260200160002060009054906101000a900473ffffffffffffffffffffffffffffffffffffffff1673ffffffffffffffffffffffffffffffffffffffff163373ffffffffffffffffffffffffffffffffffffffff16146106b5576040517f08c379a00000000000000000000000000000000000000000000000000000000081526004016106ac90612e45565b60405180910390fd5b6006600082815260200190815260200160002060006101000a81549073ffffffffffffffffffffffffffffffffffffffff0219169055807f7cc135e0cebb02c3480ae5d74d377283180a2601f8f644edf7987b009316c63a60405160405180910390a281600781905550505050565b600060646063600a60009054906101000a900473ffffffffffffffffffffffffffffffffffffffff1673ffffffffffffffffffffffffffffffffffffffff163161076e9190612e94565b6107789190612f1d565b905090565b6000600c60008373ffffffffffffffffffffffffffffffffffffffff1673ffffffffffffffffffffffffffffffffffffffff16815260200190815260200160002060000160159054906101000a900460ff169050919050565b816006600082815260200190815260200160002060009054906101000a900473ffffffffffffffffffffffffffffffffffffffff1673ffffffffffffffffffffffffffffffffffffffff163373ffffffffffffffffffffffffffffffffffffffff1614610878576040517f08c379a000000000000000000000000000000000000000000000000000000000815260040161086f90612e45565b60405180910390fd5b6006600082815260200190815260200160002060006101000a81549073ffffffffffffffffffffffffffffffffffffffff0219169055807f7cc135e0cebb02c3480ae5d74d377283180a2601f8f644edf7987b009316c63a60405160405180910390a281600881905550505050565b6000806000838152602001908152602001600020600101549050919050565b61090f826108e7565b6109208161091b61138a565b611392565b61092a838361142f565b505050565b61093761138a565b73ffffffffffffffffffffffffffffffffffffffff168173ffffffffffffffffffffffffffffffffffffffff16146109a4576040517f08c379a000000000000000000000000000000000000000000000000000000000815260040161099b90612fc0565b60405180910390fd5b6109ae828261150f565b5050565b60095442106109f6576040517f08c379a00000000000000000000000000000000000000000000000000000000081526004016109ed9061302c565b60405180910390fd5b600c60003373ffffffffffffffffffffffffffffffffffffffff1673ffffffffffffffffffffffffffffffffffffffff16815260200190815260200160002060000160159054906101000a900460ff1615610a86576040517f08c379a0000000000000000000000000000000000000000000000000000000008152600401610a7d90613098565b60405180910390fd5b60006040518060a001604052803373ffffffffffffffffffffffffffffffffffffffff168152602001836002811115610ac257610ac1612b86565b5b815260200160011515815260200134815260200160008152509050600b339080600181540180825580915050600190039060005260206000200160009091909190916101000a81548173ffffffffffffffffffffffffffffffffffffffff021916908373ffffffffffffffffffffffffffffffffffffffff16021790555080600c60003373ffffffffffffffffffffffffffffffffffffffff1673ffffffffffffffffffffffffffffffffffffffff16815260200190815260200160002060008201518160000160006101000a81548173ffffffffffffffffffffffffffffffffffffffff021916908373ffffffffffffffffffffffffffffffffffffffff16021790555060208201518160000160146101000a81548160ff02191690836002811115610bf257610bf1612b86565b5b021790555060408201518160000160156101000a81548160ff02191690831515021790555060608201518160010155608082015181600201559050505050565b6000600c60008373ffffffffffffffffffffffffffffffffffffffff1673ffffffffffffffffffffffffffffffffffffffff168152602001908152602001600020600101549050919050565b6060600b805480602002602001604051908101604052809291908181526020018280548015610d0257602002820191906000526020600020905b8160009054906101000a900473ffffffffffffffffffffffffffffffffffffffff1673ffffffffffffffffffffffffffffffffffffffff1681526020019060010190808311610cb8575b5050505050905090565b60075481565b6000801b610d2781610d2261138a565b611392565b6009544211610d6b576040517f08c379a0000000000000000000000000000000000000000000000000000000008152600401610d6290613104565b60405180910390fd5b610d788484846002610edd565b610d806115f0565b610d8861184b565b62093a8042610d979190613124565b60098190555050505050565b600080600084815260200190815260200160002060000160008373ffffffffffffffffffffffffffffffffffffffff1673ffffffffffffffffffffffffffffffffffffffff16815260200190815260200160002060009054906101000a900460ff16905092915050565b6000600c60008373ffffffffffffffffffffffffffffffffffffffff1673ffffffffffffffffffffffffffffffffffffffff16815260200190815260200160002060000160149054906101000a900460ff169050919050565b6000801b81565b600c6020528060005260406000206000915090508060000160009054906101000a900473ffffffffffffffffffffffffffffffffffffffff16908060000160149054906101000a900460ff16908060000160159054906101000a900460ff16908060010154908060020154905085565b6000801b610ef281610eed61138a565b611392565b60006002811115610f0657610f05612b86565b5b826002811115610f1957610f18612b86565b5b1415610f5a576040517f08c379a0000000000000000000000000000000000000000000000000000000008152600401610f51906131c6565b60405180910390fd5b600060016002811115610f7057610f6f612b86565b5b836002811115610f8357610f82612b86565b5b14610f95576320f890e260e01b610f9e565b63069c17db60e01b5b90506000610fb5610fae8761195e565b3084611988565b90506110016040518060400160405280600481526020017f636974790000000000000000000000000000000000000000000000000000000081525086836119b99092919063ffffffff16565b6110208782600a670de0b6b3a764000061101b9190612f1d565b6119ec565b5050505050505050565b6000600954421061103c57600061104b565b4260095461104a91906131e6565b5b905090565b611059826108e7565b61106a8161106561138a565b611392565b611074838361150f565b505050565b60085481565b600b818154811061108f57600080fd5b906000526020600020016000915054906101000a900473ffffffffffffffffffffffffffffffffffffffff1681565b600a60009054906101000a900473ffffffffffffffffffffffffffffffffffffffff1681565b6060600060028360026110f79190612e94565b6111019190613124565b67ffffffffffffffff81111561111a576111196129d0565b5b6040519080825280601f01601f19166020018201604052801561114c5781602001600182028036833780820191505090505b5090507f3000000000000000000000000000000000000000000000000000000000000000816000815181106111845761118361321a565b5b60200101907effffffffffffffffffffffffffffffffffffffffffffffffffffffffffffff1916908160001a9053507f7800000000000000000000000000000000000000000000000000000000000000816001815181106111e8576111e761321a565b5b60200101907effffffffffffffffffffffffffffffffffffffffffffffffffffffffffffff1916908160001a905350600060018460026112289190612e94565b6112329190613124565b90505b60018111156112d2577f3031323334353637383961626364656600000000000000000000000000000000600f8616601081106112745761127361321a565b5b1a60f81b82828151811061128b5761128a61321a565b5b60200101907effffffffffffffffffffffffffffffffffffffffffffffffffffffffffffff1916908160001a905350600485901c9450806112cb90613249565b9050611235565b5060008414611316576040517f08c379a000000000000000000000000000000000000000000000000000000000815260040161130d906132bf565b60405180910390fd5b8091505092915050565b60007f01ffc9a7000000000000000000000000000000000000000000000000000000007bffffffffffffffffffffffffffffffffffffffffffffffffffffffff1916827bffffffffffffffffffffffffffffffffffffffffffffffffffffffff1916149050919050565b600033905090565b61139c8282610da3565b61142b576113c18173ffffffffffffffffffffffffffffffffffffffff1660146110e4565b6113cf8360001c60206110e4565b6040516020016113e09291906133f1565b6040516020818303038152906040526040517f08c379a00000000000000000000000000000000000000000000000000000000081526004016114229190613464565b60405180910390fd5b5050565b6114398282610da3565b61150b57600160008084815260200190815260200160002060000160008373ffffffffffffffffffffffffffffffffffffffff1673ffffffffffffffffffffffffffffffffffffffff16815260200190815260200160002060006101000a81548160ff0219169083151502179055506114b061138a565b73ffffffffffffffffffffffffffffffffffffffff168173ffffffffffffffffffffffffffffffffffffffff16837f2f8788117e7eff1d82e926ec794901d17c78024a50270940304540a733656f0d60405160405180910390a45b5050565b6115198282610da3565b156115ec57600080600084815260200190815260200160002060000160008373ffffffffffffffffffffffffffffffffffffffff1673ffffffffffffffffffffffffffffffffffffffff16815260200190815260200160002060006101000a81548160ff02191690831515021790555061159161138a565b73ffffffffffffffffffffffffffffffffffffffff168173ffffffffffffffffffffffffffffffffffffffff16837ff6391f5c32d9c69d2a47ea670b442974b53935d1edc7fd64eb21e047a839171b60405160405180910390a45b5050565b6000600a60009054906101000a900473ffffffffffffffffffffffffffffffffffffffff1673ffffffffffffffffffffffffffffffffffffffff1631101561166d576040517f08c379a0000000000000000000000000000000000000000000000000000000008152600401611664906134d2565b60405180910390fd5b6000611677611a0c565b905060008151116116bd576040517f08c379a00000000000000000000000000000000000000000000000000000000081526004016116b49061353e565b60405180910390fd5b60005b81518110156118475760006116d3610724565b6064600c60008686815181106116ec576116eb61321a565b5b602002602001015173ffffffffffffffffffffffffffffffffffffffff1673ffffffffffffffffffffffffffffffffffffffff1681526020019081526020016000206002015461173c9190612f1d565b6117469190612e94565b905082828151811061175b5761175a61321a565b5b602002602001015173ffffffffffffffffffffffffffffffffffffffff16816040516117869061358f565b60006040518083038185875af1925050503d80600081146117c3576040519150601f19603f3d011682016040523d82523d6000602084013e6117c8565b606091505b5050508282815181106117de576117dd61321a565b5b602002602001015173ffffffffffffffffffffffffffffffffffffffff167f2897e467188c1ebbd157f72e82b2059710aea0df2ba4b6075e47e305087bbffe8260405161182b9190612746565b60405180910390a250808061183f906135a4565b9150506116c0565b5050565b60005b600b8054905081101561194d57600c6000600b83815481106118735761187261321a565b5b9060005260206000200160009054906101000a900473ffffffffffffffffffffffffffffffffffffffff1673ffffffffffffffffffffffffffffffffffffffff1673ffffffffffffffffffffffffffffffffffffffff168152602001908152602001600020600080820160006101000a81549073ffffffffffffffffffffffffffffffffffffffff02191690556000820160146101000a81549060ff02191690556000820160156101000a81549060ff02191690556001820160009055600282016000905550508080611945906135a4565b91505061184e565b50600b600061195c91906124f7565b565b60008082905060008151141561197a576000801b915050611983565b60208301519150505b919050565b611990612518565b611998612518565b6119af85858584611da2909392919063ffffffff16565b9150509392505050565b6119d0828460800151611e5290919063ffffffff16565b6119e7818460800151611e5290919063ffffffff16565b505050565b6000611a038484846001634042994660e01b611e77565b90509392505050565b6060600080606060006007546008541115611a2a5760019350611a3c565b6007546008541015611a3b57600293505b5b60005b600b80549050811015611ca357846002811115611a5f57611a5e612b86565b5b600c6000600b8481548110611a7757611a7661321a565b5b9060005260206000200160009054906101000a900473ffffffffffffffffffffffffffffffffffffffff1673ffffffffffffffffffffffffffffffffffffffff1673ffffffffffffffffffffffffffffffffffffffff16815260200190815260200160002060000160149054906101000a900460ff166002811115611aff57611afe612b86565b5b1415611c9057600c6000600b8381548110611b1d57611b1c61321a565b5b9060005260206000200160009054906101000a900473ffffffffffffffffffffffffffffffffffffffff1673ffffffffffffffffffffffffffffffffffffffff1673ffffffffffffffffffffffffffffffffffffffff1681526020019081526020016000206001015484611b919190613124565b9350600c6000600b8381548110611bab57611baa61321a565b5b9060005260206000200160009054906101000a900473ffffffffffffffffffffffffffffffffffffffff1673ffffffffffffffffffffffffffffffffffffffff1673ffffffffffffffffffffffffffffffffffffffff16815260200190815260200160002060000160009054906101000a900473ffffffffffffffffffffffffffffffffffffffff16838381518110611c4757611c4661321a565b5b602002602001019073ffffffffffffffffffffffffffffffffffffffff16908173ffffffffffffffffffffffffffffffffffffffff16815250508180611c8c906135a4565b9250505b8080611c9b906135a4565b915050611a3f565b5060005b8251811015611d9757606484600c6000868581518110611cca57611cc961321a565b5b602002602001015173ffffffffffffffffffffffffffffffffffffffff1673ffffffffffffffffffffffffffffffffffffffff16815260200190815260200160002060010154611d1a9190612f1d565b611d249190612e94565b600c6000858481518110611d3b57611d3a61321a565b5b602002602001015173ffffffffffffffffffffffffffffffffffffffff1673ffffffffffffffffffffffffffffffffffffffff168152602001908152602001600020600201819055508080611d8f906135a4565b915050611ca7565b508194505050505090565b611daa612518565b611dba85608001516101006120d0565b508385600001818152505082856020019073ffffffffffffffffffffffffffffffffffffffff16908173ffffffffffffffffffffffffffffffffffffffff16815250508185604001907bffffffffffffffffffffffffffffffffffffffffffffffffffffffff191690817bffffffffffffffffffffffffffffffffffffffffffffffffffffffff191681525050849050949350505050565b611e5f826003835161213a565b611e72818361227f90919063ffffffff16565b505050565b600030600554604051602001611e8e9291906136a6565b604051602081830303815290604052805190602001209050600554856060018181525050856006600083815260200190815260200160002060006101000a81548173ffffffffffffffffffffffffffffffffffffffff021916908373ffffffffffffffffffffffffffffffffffffffff160217905550807fb5e6e01e79f91267dc17b4e6314d5d4d03593d2ceee0fbb452b750bd70ea5af960405160405180910390a2600082600080886000015189602001518a604001518b606001518a8d6080015160000151604051602401611f6c989796959493929190613736565b604051602081830303815290604052907bffffffffffffffffffffffffffffffffffffffffffffffffffffffff19166020820180517bffffffffffffffffffffffffffffffffffffffffffffffffffffffff83818316178352505050509050600360009054906101000a900473ffffffffffffffffffffffffffffffffffffffff1673ffffffffffffffffffffffffffffffffffffffff16634000aea08887846040518463ffffffff1660e01b815260040161202a939291906137bb565b6020604051808303816000875af1158015612049573d6000803e3d6000fd5b505050506040513d601f19601f8201168201806040525081019061206d9190613825565b6120ac576040517f08c379a00000000000000000000000000000000000000000000000000000000081526004016120a3906138c4565b60405180910390fd5b6001600560008282546120bf9190613124565b925050819055505095945050505050565b6120d8612585565b60006020836120e791906138e4565b14612113576020826120f991906138e4565b602061210591906131e6565b826121109190613124565b91505b81836020018181525050604051808452600081528281016020016040525082905092915050565b60178111612167576121618160058460ff16901b60ff1617846122a190919063ffffffff16565b5061227a565b60ff81116121a95761218c601860058460ff16901b17846122a190919063ffffffff16565b506121a3816001856122c19092919063ffffffff16565b50612279565b61ffff81116121ec576121cf601960058460ff16901b17846122a190919063ffffffff16565b506121e6816002856122c19092919063ffffffff16565b50612278565b63ffffffff811161223157612214601a60058460ff16901b17846122a190919063ffffffff16565b5061222b816004856122c19092919063ffffffff16565b50612277565b67ffffffffffffffff81116122765761225d601b60058460ff16901b17846122a190919063ffffffff16565b50612274816008856122c19092919063ffffffff16565b505b5b5b5b5b505050565b612287612585565b612299838460000151518485516122e3565b905092915050565b6122a9612585565b6122b983846000015151846123d2565b905092915050565b6122c9612585565b6122da848560000151518585612429565b90509392505050565b6122eb612585565b82518211156122f957600080fd5b8460200151828561230a9190613124565b111561233f5761233e85600261232f8860200151888761232a9190613124565b6124b7565b6123399190612e94565b6124d3565b5b60008086518051876020830101935080888701111561235e5787860182525b60208701925050505b602084106123a557805182526020826123809190613124565b915060208161238f9190613124565b905060208461239e91906131e6565b9350612367565b60006001856020036101000a03905080198251168184511681811785525050508692505050949350505050565b6123da612585565b83602001518310612400576123ff84600286602001516123fa9190612e94565b6124d3565b5b835180516020858301018481538186141561241c576001820183525b5050508390509392505050565b612431612585565b846020015184836124429190613124565b111561246a57612469856002868561245a9190613124565b6124649190612e94565b6124d3565b5b600060018361010061247c9190613a48565b61248691906131e6565b905085518386820101858319825116178152815185880111156124a95784870182525b505085915050949350505050565b6000818311156124c9578290506124cd565b8190505b92915050565b6000826000015190506124e683836120d0565b506124f1838261227f565b50505050565b5080546000825590600052602060002090810190612515919061259f565b50565b6040518060a0016040528060008019168152602001600073ffffffffffffffffffffffffffffffffffffffff16815260200160007bffffffffffffffffffffffffffffffffffffffffffffffffffffffff191681526020016000815260200161257f612585565b81525090565b604051806040016040528060608152602001600081525090565b5b808211156125b85760008160009055506001016125a0565b5090565b6000604051905090565b600080fd5b600080fd5b60007fffffffff0000000000000000000000000000000000000000000000000000000082169050919050565b612605816125d0565b811461261057600080fd5b50565b600081359050612622816125fc565b92915050565b60006020828403121561263e5761263d6125c6565b5b600061264c84828501612613565b91505092915050565b60008115159050919050565b61266a81612655565b82525050565b60006020820190506126856000830184612661565b92915050565b6000819050919050565b61269e8161268b565b81146126a957600080fd5b50565b6000813590506126bb81612695565b92915050565b6000819050919050565b6126d4816126c1565b81146126df57600080fd5b50565b6000813590506126f1816126cb565b92915050565b6000806040838503121561270e5761270d6125c6565b5b600061271c858286016126ac565b925050602061272d858286016126e2565b9150509250929050565b612740816126c1565b82525050565b600060208201905061275b6000830184612737565b92915050565b600073ffffffffffffffffffffffffffffffffffffffff82169050919050565b600061278c82612761565b9050919050565b61279c81612781565b81146127a757600080fd5b50565b6000813590506127b981612793565b92915050565b6000602082840312156127d5576127d46125c6565b5b60006127e3848285016127aa565b91505092915050565b600060208284031215612802576128016125c6565b5b6000612810848285016126ac565b91505092915050565b6128228161268b565b82525050565b600060208201905061283d6000830184612819565b92915050565b6000806040838503121561285a576128596125c6565b5b6000612868858286016126ac565b9250506020612879858286016127aa565b9150509250929050565b6003811061289057600080fd5b50565b6000813590506128a281612883565b92915050565b6000602082840312156128be576128bd6125c6565b5b60006128cc84828501612893565b91505092915050565b600081519050919050565b600082825260208201905092915050565b6000819050602082019050919050565b61290a81612781565b82525050565b600061291c8383612901565b60208301905092915050565b6000602082019050919050565b6000612940826128d5565b61294a81856128e0565b9350612955836128f1565b8060005b8381101561298657815161296d8882612910565b975061297883612928565b925050600181019050612959565b5085935050505092915050565b600060208201905081810360008301526129ad8184612935565b905092915050565b600080fd5b600080fd5b6000601f19601f8301169050919050565b7f4e487b7100000000000000000000000000000000000000000000000000000000600052604160045260246000fd5b612a08826129bf565b810181811067ffffffffffffffff82111715612a2757612a266129d0565b5b80604052505050565b6000612a3a6125bc565b9050612a4682826129ff565b919050565b600067ffffffffffffffff821115612a6657612a656129d0565b5b612a6f826129bf565b9050602081019050919050565b82818337600083830152505050565b6000612a9e612a9984612a4b565b612a30565b905082815260208101848484011115612aba57612ab96129ba565b5b612ac5848285612a7c565b509392505050565b600082601f830112612ae257612ae16129b5565b5b8135612af2848260208601612a8b565b91505092915050565b600080600060608486031215612b1457612b136125c6565b5b6000612b22868287016127aa565b935050602084013567ffffffffffffffff811115612b4357612b426125cb565b5b612b4f86828701612acd565b925050604084013567ffffffffffffffff811115612b7057612b6f6125cb565b5b612b7c86828701612acd565b9150509250925092565b7f4e487b7100000000000000000000000000000000000000000000000000000000600052602160045260246000fd5b60038110612bc657612bc5612b86565b5b50565b6000819050612bd782612bb5565b919050565b6000612be782612bc9565b9050919050565b612bf781612bdc565b82525050565b6000602082019050612c126000830184612bee565b92915050565b612c2181612781565b82525050565b600060a082019050612c3c6000830188612c18565b612c496020830187612bee565b612c566040830186612661565b612c636060830185612737565b612c706080830184612737565b9695505050505050565b60038110612c8757600080fd5b50565b600081359050612c9981612c7a565b92915050565b60008060008060808587031215612cb957612cb86125c6565b5b6000612cc7878288016127aa565b945050602085013567ffffffffffffffff811115612ce857612ce76125cb565b5b612cf487828801612acd565b935050604085013567ffffffffffffffff811115612d1557612d146125cb565b5b612d2187828801612acd565b9250506060612d3287828801612c8a565b91505092959194509250565b600060208284031215612d5457612d536125c6565b5b6000612d62848285016126e2565b91505092915050565b6000602082019050612d806000830184612c18565b92915050565b6000612d9182612761565b9050919050565b612da181612d86565b82525050565b6000602082019050612dbc6000830184612d98565b92915050565b600082825260208201905092915050565b7f536f75726365206d75737420626520746865206f7261636c65206f662074686560008201527f2072657175657374000000000000000000000000000000000000000000000000602082015250565b6000612e2f602883612dc2565b9150612e3a82612dd3565b604082019050919050565b60006020820190508181036000830152612e5e81612e22565b9050919050565b7f4e487b7100000000000000000000000000000000000000000000000000000000600052601160045260246000fd5b6000612e9f826126c1565b9150612eaa836126c1565b9250817fffffffffffffffffffffffffffffffffffffffffffffffffffffffffffffffff0483118215151615612ee357612ee2612e65565b5b828202905092915050565b7f4e487b7100000000000000000000000000000000000000000000000000000000600052601260045260246000fd5b6000612f28826126c1565b9150612f33836126c1565b925082612f4357612f42612eee565b5b828204905092915050565b7f416363657373436f6e74726f6c3a2063616e206f6e6c792072656e6f756e636560008201527f20726f6c657320666f722073656c660000000000000000000000000000000000602082015250565b6000612faa602f83612dc2565b9150612fb582612f4e565b604082019050919050565b60006020820190508181036000830152612fd981612f9d565b9050919050565b7f5468652062657474696e6720706572696f64206973206f70656e2e0000000000600082015250565b6000613016601b83612dc2565b915061302182612fe0565b602082019050919050565b6000602082019050818103600083015261304581613009565b9050919050565b7f5573657220616c72656164792062657421000000000000000000000000000000600082015250565b6000613082601183612dc2565b915061308d8261304c565b602082019050919050565b600060208201905081810360008301526130b181613075565b9050919050565b7f5468652062657474696e6720706572696f64206973206f7665722e0000000000600082015250565b60006130ee601b83612dc2565b91506130f9826130b8565b602082019050919050565b6000602082019050818103600083015261311d816130e1565b9050919050565b600061312f826126c1565b915061313a836126c1565b9250827fffffffffffffffffffffffffffffffffffffffffffffffffffffffffffffffff0382111561316f5761316e612e65565b5b828201905092915050565b7f5765617468657254797065206d757374206e6f742062653a20454d5054590000600082015250565b60006131b0601e83612dc2565b91506131bb8261317a565b602082019050919050565b600060208201905081810360008301526131df816131a3565b9050919050565b60006131f1826126c1565b91506131fc836126c1565b92508282101561320f5761320e612e65565b5b828203905092915050565b7f4e487b7100000000000000000000000000000000000000000000000000000000600052603260045260246000fd5b6000613254826126c1565b9150600082141561326857613267612e65565b5b600182039050919050565b7f537472696e67733a20686578206c656e67746820696e73756666696369656e74600082015250565b60006132a9602083612dc2565b91506132b482613273565b602082019050919050565b600060208201905081810360008301526132d88161329c565b9050919050565b600081905092915050565b7f416363657373436f6e74726f6c3a206163636f756e7420000000000000000000600082015250565b60006133206017836132df565b915061332b826132ea565b601782019050919050565b600081519050919050565b60005b8381101561335f578082015181840152602081019050613344565b8381111561336e576000848401525b50505050565b600061337f82613336565b61338981856132df565b9350613399818560208601613341565b80840191505092915050565b7f206973206d697373696e6720726f6c6520000000000000000000000000000000600082015250565b60006133db6011836132df565b91506133e6826133a5565b601182019050919050565b60006133fc82613313565b91506134088285613374565b9150613413826133ce565b915061341f8284613374565b91508190509392505050565b600061343682613336565b6134408185612dc2565b9350613450818560208601613341565b613459816129bf565b840191505092915050565b6000602082019050818103600083015261347e818461342b565b905092915050565b7f4e6f206265747320706c61636564000000000000000000000000000000000000600082015250565b60006134bc600e83612dc2565b91506134c782613486565b602082019050919050565b600060208201905081810360008301526134eb816134af565b9050919050565b7f4e6f2077696e6e657273207468697320726f756e640000000000000000000000600082015250565b6000613528601583612dc2565b9150613533826134f2565b602082019050919050565b600060208201905081810360008301526135578161351b565b9050919050565b600081905092915050565b50565b600061357960008361355e565b915061358482613569565b600082019050919050565b600061359a8261356c565b9150819050919050565b60006135af826126c1565b91507fffffffffffffffffffffffffffffffffffffffffffffffffffffffffffffffff8214156135e2576135e1612e65565b5b600182019050919050565b6000819050919050565b600061361261360d61360884612761565b6135ed565b612761565b9050919050565b6000613624826135f7565b9050919050565b600061363682613619565b9050919050565b60008160601b9050919050565b60006136558261363d565b9050919050565b60006136678261364a565b9050919050565b61367f61367a8261362b565b61365c565b82525050565b6000819050919050565b6136a061369b826126c1565b613685565b82525050565b60006136b2828561366e565b6014820191506136c2828461368f565b6020820191508190509392505050565b6136db816125d0565b82525050565b600081519050919050565b600082825260208201905092915050565b6000613708826136e1565b61371281856136ec565b9350613722818560208601613341565b61372b816129bf565b840191505092915050565b60006101008201905061374c600083018b612c18565b613759602083018a612737565b6137666040830189612819565b6137736060830188612c18565b61378060808301876136d2565b61378d60a0830186612737565b61379a60c0830185612737565b81810360e08301526137ac81846136fd565b90509998505050505050505050565b60006060820190506137d06000830186612c18565b6137dd6020830185612737565b81810360408301526137ef81846136fd565b9050949350505050565b61380281612655565b811461380d57600080fd5b50565b60008151905061381f816137f9565b92915050565b60006020828403121561383b5761383a6125c6565b5b600061384984828501613810565b91505092915050565b7f756e61626c6520746f207472616e73666572416e6443616c6c20746f206f726160008201527f636c650000000000000000000000000000000000000000000000000000000000602082015250565b60006138ae602383612dc2565b91506138b982613852565b604082019050919050565b600060208201905081810360008301526138dd816138a1565b9050919050565b60006138ef826126c1565b91506138fa836126c1565b92508261390a57613909612eee565b5b828206905092915050565b60008160011c9050919050565b6000808291508390505b600185111561396c5780860481111561394857613947612e65565b5b60018516156139575780820291505b808102905061396585613915565b945061392c565b94509492505050565b6000826139855760019050613a41565b816139935760009050613a41565b81600181146139a957600281146139b3576139e2565b6001915050613a41565b60ff8411156139c5576139c4612e65565b5b8360020a9150848211156139dc576139db612e65565b5b50613a41565b5060208310610133831016604e8410600b8410161715613a175782820a905083811115613a1257613a11612e65565b5b613a41565b613a248484846001613922565b92509050818404811115613a3b57613a3a612e65565b5b81810290505b9392505050565b6000613a53826126c1565b9150613a5e836126c1565b9250613a8b7fffffffffffffffffffffffffffffffffffffffffffffffffffffffffffffffff8484613975565b90509291505056fea2646970667358221220327e143e86de0ff3f70dc55e8bef3151f13596312f1b45835218c36af3388e4764736f6c634300080a0033",
  "linkReferences": {},
  "deployedLinkReferences": {}
}