{
  "_format": "hh-sol-artifact-1",
  "contractName": "Betting",
  "sourceName": "contracts/Betting.sol",
  "abi": [
    {
      "inputs": [],
      "stateMutability": "nonpayable",
      "type": "constructor"
    },
    {
      "anonymous": false,
      "inputs": [
        {
          "indexed": true,
          "internalType": "bytes32",
          "name": "id",
          "type": "bytes32"
        }
      ],
      "name": "ChainlinkCancelled",
      "type": "event"
    },
    {
      "anonymous": false,
      "inputs": [
        {
          "indexed": true,
          "internalType": "bytes32",
          "name": "id",
          "type": "bytes32"
        }
      ],
      "name": "ChainlinkFulfilled",
      "type": "event"
    },
    {
      "anonymous": false,
      "inputs": [
        {
          "indexed": true,
          "internalType": "bytes32",
          "name": "id",
          "type": "bytes32"
        }
      ],
      "name": "ChainlinkRequested",
      "type": "event"
    },
    {
      "anonymous": false,
      "inputs": [
        {
          "indexed": true,
          "internalType": "address",
          "name": "previousOwner",
          "type": "address"
        },
        {
          "indexed": true,
          "internalType": "address",
          "name": "newOwner",
          "type": "address"
        }
      ],
      "name": "OwnershipTransferred",
      "type": "event"
    },
    {
      "anonymous": false,
      "inputs": [
        {
          "indexed": true,
          "internalType": "address",
          "name": "winner",
          "type": "address"
        },
        {
          "indexed": false,
          "internalType": "uint256",
          "name": "amount",
          "type": "uint256"
        }
      ],
      "name": "WinnerPayed",
      "type": "event"
    },
    {
      "inputs": [],
      "name": "city",
      "outputs": [
        {
          "internalType": "string",
          "name": "",
          "type": "string"
        }
      ],
      "stateMutability": "view",
      "type": "function"
    },
    {
      "inputs": [],
      "name": "contractAddress",
      "outputs": [
        {
          "internalType": "address payable",
          "name": "",
          "type": "address"
        }
      ],
      "stateMutability": "view",
      "type": "function"
    },
    {
      "inputs": [
        {
          "internalType": "bytes32",
          "name": "_requestId",
          "type": "bytes32"
        },
        {
          "internalType": "uint256",
          "name": "_result",
          "type": "uint256"
        }
      ],
      "name": "fulfillWeatherTemperature",
      "outputs": [],
      "stateMutability": "nonpayable",
      "type": "function"
    },
    {
      "inputs": [],
      "name": "getPrizeMoney",
      "outputs": [
        {
          "internalType": "uint256",
          "name": "",
          "type": "uint256"
        }
      ],
      "stateMutability": "view",
      "type": "function"
    },
    {
      "inputs": [],
      "name": "oddsAbove",
      "outputs": [
        {
          "internalType": "uint256",
          "name": "",
          "type": "uint256"
        }
      ],
      "stateMutability": "view",
      "type": "function"
    },
    {
      "inputs": [],
      "name": "oddsBelow",
      "outputs": [
        {
          "internalType": "uint256",
          "name": "",
          "type": "uint256"
        }
      ],
      "stateMutability": "view",
      "type": "function"
    },
    {
      "inputs": [],
      "name": "owner",
      "outputs": [
        {
          "internalType": "address",
          "name": "",
          "type": "address"
        }
      ],
      "stateMutability": "view",
      "type": "function"
    },
    {
      "inputs": [],
      "name": "renounceOwnership",
      "outputs": [],
      "stateMutability": "nonpayable",
      "type": "function"
    },
    {
      "inputs": [],
      "name": "requestWeatherTemperature",
      "outputs": [],
      "stateMutability": "nonpayable",
      "type": "function"
    },
    {
      "inputs": [],
      "name": "resetLottery",
      "outputs": [],
      "stateMutability": "nonpayable",
      "type": "function"
    },
    {
      "inputs": [],
      "name": "result",
      "outputs": [
        {
          "internalType": "uint256",
          "name": "",
          "type": "uint256"
        }
      ],
      "stateMutability": "view",
      "type": "function"
    },
    {
      "inputs": [
        {
          "internalType": "string",
          "name": "_city",
          "type": "string"
        }
      ],
      "name": "setCity",
      "outputs": [],
      "stateMutability": "nonpayable",
      "type": "function"
    },
    {
      "inputs": [],
      "name": "setOdds",
      "outputs": [],
      "stateMutability": "nonpayable",
      "type": "function"
    },
    {
      "inputs": [
        {
          "internalType": "uint256",
          "name": "_guess",
          "type": "uint256"
        }
      ],
      "name": "setUserGuess",
      "outputs": [],
      "stateMutability": "payable",
      "type": "function"
    },
    {
      "inputs": [
        {
          "internalType": "address",
          "name": "newOwner",
          "type": "address"
        }
      ],
      "name": "transferOwnership",
      "outputs": [],
      "stateMutability": "nonpayable",
      "type": "function"
    },
    {
      "inputs": [
        {
          "internalType": "address",
          "name": "",
          "type": "address"
        }
      ],
      "name": "users",
      "outputs": [
        {
          "internalType": "address",
          "name": "id",
          "type": "address"
        },
        {
          "internalType": "uint256",
          "name": "guess",
          "type": "uint256"
        },
        {
          "internalType": "uint256",
          "name": "amountBet",
          "type": "uint256"
        },
        {
          "internalType": "bool",
          "name": "hasGuessed",
          "type": "bool"
        }
      ],
      "stateMutability": "view",
      "type": "function"
    },
    {
      "inputs": [
        {
          "internalType": "uint256",
          "name": "",
          "type": "uint256"
        }
      ],
      "name": "usersWhoHaveVoted",
      "outputs": [
        {
          "internalType": "address",
          "name": "",
          "type": "address"
        }
      ],
      "stateMutability": "view",
      "type": "function"
    }
  ],
  "bytecode": "0x6080604052600160055562093a80426200001a9190620004d8565b600a553480156200002a57600080fd5b506200004b6200003f6200017360201b60201c565b6200017b60201b60201c565b6200005b6200023f60201b60201c565b73aa1dc356dc4b18f30c347798fd5379f3d77abc5b600c60006101000a81548173ffffffffffffffffffffffffffffffffffffffff021916908373ffffffffffffffffffffffffffffffffffffffff1602179055507f3233356638623165656233363465666338336332366430626566326430633031600d8190555067016345785d8a0000600e8190555030601060006101000a81548173ffffffffffffffffffffffffffffffffffffffff021916908373ffffffffffffffffffffffffffffffffffffffff1602179055506200016d6040518060400160405280600781526020017f4368696361676f00000000000000000000000000000000000000000000000000815250620002d760201b60201c565b620006b9565b600033905090565b60008060009054906101000a900473ffffffffffffffffffffffffffffffffffffffff169050816000806101000a81548173ffffffffffffffffffffffffffffffffffffffff021916908373ffffffffffffffffffffffffffffffffffffffff1602179055508173ffffffffffffffffffffffffffffffffffffffff168173ffffffffffffffffffffffffffffffffffffffff167f8be0079c531659141344cd1fd0a4f28419497f9722a3daafe3b4186f6b6457e060405160405180910390a35050565b620002d573c89bd4e1632d3a43cb03aaad5262cbe4038bc57173ffffffffffffffffffffffffffffffffffffffff166338cc48316040518163ffffffff1660e01b8152600401602060405180830381865afa158015620002a3573d6000803e3d6000fd5b505050506040513d601f19601f82011682018060405250810190620002c991906200059f565b6200038260201b60201c565b565b620002e76200017360201b60201c565b73ffffffffffffffffffffffffffffffffffffffff166200030d620003c660201b60201c565b73ffffffffffffffffffffffffffffffffffffffff161462000366576040517f08c379a00000000000000000000000000000000000000000000000000000000081526004016200035d9062000632565b60405180910390fd5b80600f90805190602001906200037e929190620003ef565b5050565b80600360006101000a81548173ffffffffffffffffffffffffffffffffffffffff021916908373ffffffffffffffffffffffffffffffffffffffff16021790555050565b60008060009054906101000a900473ffffffffffffffffffffffffffffffffffffffff16905090565b828054620003fd9062000683565b90600052602060002090601f0160209004810192826200042157600085556200046d565b82601f106200043c57805160ff19168380011785556200046d565b828001600101855582156200046d579182015b828111156200046c5782518255916020019190600101906200044f565b5b5090506200047c919062000480565b5090565b5b808211156200049b57600081600090555060010162000481565b5090565b6000819050919050565b7f4e487b7100000000000000000000000000000000000000000000000000000000600052601160045260246000fd5b6000620004e5826200049f565b9150620004f2836200049f565b9250827fffffffffffffffffffffffffffffffffffffffffffffffffffffffffffffffff038211156200052a5762000529620004a9565b5b828201905092915050565b600080fd5b600073ffffffffffffffffffffffffffffffffffffffff82169050919050565b600062000567826200053a565b9050919050565b62000579816200055a565b81146200058557600080fd5b50565b60008151905062000599816200056e565b92915050565b600060208284031215620005b857620005b762000535565b5b6000620005c88482850162000588565b91505092915050565b600082825260208201905092915050565b7f4f776e61626c653a2063616c6c6572206973206e6f7420746865206f776e6572600082015250565b60006200061a602083620005d1565b91506200062782620005e2565b602082019050919050565b600060208201905081810360008301526200064d816200060b565b9050919050565b7f4e487b7100000000000000000000000000000000000000000000000000000000600052602260045260246000fd5b600060028204905060018216806200069c57607f821691505b60208210811415620006b357620006b262000654565b5b50919050565b6129bc80620006c96000396000f3fe6080604052600436106100fe5760003560e01c8063cbf1309011610095578063f2fde38b11610064578063f2fde38b146102cb578063f6b4dfb4146102f4578063fd0160fe1461031f578063fe9cdab51461034a578063ff2b4d1714610375576100fe565b8063cbf1309014610237578063d337616e1461024e578063eca894fd14610265578063f07513eb146102a2576100fe565b80637b581ce6116100d15780637b581ce614610187578063836facd4146101a35780638da5cb5b146101cc578063a87430ba146101f7576100fe565b80630737c24b14610103578063400a18601461012e5780636537214714610145578063715018a614610170575b600080fd5b34801561010f57600080fd5b506101186103a0565b6040516101259190611afd565b60405180910390f35b34801561013a57600080fd5b506101436103f9565b005b34801561015157600080fd5b5061015a610555565b6040516101679190611afd565b60405180910390f35b34801561017c57600080fd5b5061018561055b565b005b6101a1600480360381019061019c9190611b58565b6105e3565b005b3480156101af57600080fd5b506101ca60048036038101906101c59190611bbb565b610841565b005b3480156101d857600080fd5b506101e1610952565b6040516101ee9190611c3c565b60405180910390f35b34801561020357600080fd5b5061021e60048036038101906102199190611c83565b61097b565b60405161022e9493929190611ccb565b60405180910390f35b34801561024357600080fd5b5061024c6109d8565b005b34801561025a57600080fd5b50610263610af7565b005b34801561027157600080fd5b5061028c60048036038101906102879190611b58565b610c72565b6040516102999190611c3c565b60405180910390f35b3480156102ae57600080fd5b506102c960048036038101906102c49190611e56565b610cb1565b005b3480156102d757600080fd5b506102f260048036038101906102ed9190611c83565b610d47565b005b34801561030057600080fd5b50610309610e3f565b6040516103169190611ec0565b60405180910390f35b34801561032b57600080fd5b50610334610e65565b6040516103419190611f63565b60405180910390f35b34801561035657600080fd5b5061035f610ef3565b60405161036c9190611afd565b60405180910390f35b34801561038157600080fd5b5061038a610ef9565b6040516103979190611afd565b60405180910390f35b600060646063601060009054906101000a900473ffffffffffffffffffffffffffffffffffffffff1673ffffffffffffffffffffffffffffffffffffffff16316103ea9190611fb4565b6103f4919061203d565b905090565b600060128054905011610441576040517f08c379a0000000000000000000000000000000000000000000000000000000008152600401610438906120ba565b60405180910390fd5b60008060008061044f610eff565b905060005b81518110156104f657600754828281518110610473576104726120da565b5b602002602001015160200151101561049857838061049090612109565b9450506104e3565b6007548282815181106104ae576104ad6120da565b5b60200260200101516020015111156104d35784806104cb90612109565b9550506104e2565b82806104de90612109565b9350505b5b80806104ee90612109565b915050610454565b5081836105039190612152565b633b9aca00856105139190611fb4565b61051d919061203d565b600881905550818461052f9190612152565b633b9aca008461053f9190611fb4565b610549919061203d565b60098190555050505050565b60075481565b6105636110b4565b73ffffffffffffffffffffffffffffffffffffffff16610581610952565b73ffffffffffffffffffffffffffffffffffffffff16146105d7576040517f08c379a00000000000000000000000000000000000000000000000000000000081526004016105ce906121f4565b60405180910390fd5b6105e160006110bc565b565b601160003373ffffffffffffffffffffffffffffffffffffffff1673ffffffffffffffffffffffffffffffffffffffff16815260200190815260200160002060030160009054906101000a900460ff1615610673576040517f08c379a000000000000000000000000000000000000000000000000000000000815260040161066a90612260565b60405180910390fd5b600a5442106106b7576040517f08c379a00000000000000000000000000000000000000000000000000000000081526004016106ae906122cc565b60405180910390fd5b600060405180608001604052803373ffffffffffffffffffffffffffffffffffffffff1681526020018381526020013481526020016001151581525090506012339080600181540180825580915050600190039060005260206000200160009091909190916101000a81548173ffffffffffffffffffffffffffffffffffffffff021916908373ffffffffffffffffffffffffffffffffffffffff16021790555080601160003373ffffffffffffffffffffffffffffffffffffffff1673ffffffffffffffffffffffffffffffffffffffff16815260200190815260200160002060008201518160000160006101000a81548173ffffffffffffffffffffffffffffffffffffffff021916908373ffffffffffffffffffffffffffffffffffffffff160217905550602082015181600101556040820151816002015560608201518160030160006101000a81548160ff021916908315150217905550905050610e10600b544261082791906122ec565b111561083d576108356109d8565b42600b819055505b5050565b816006600082815260200190815260200160002060009054906101000a900473ffffffffffffffffffffffffffffffffffffffff1673ffffffffffffffffffffffffffffffffffffffff163373ffffffffffffffffffffffffffffffffffffffff16146108e3576040517f08c379a00000000000000000000000000000000000000000000000000000000081526004016108da90612392565b60405180910390fd5b6006600082815260200190815260200160002060006101000a81549073ffffffffffffffffffffffffffffffffffffffff0219169055807f7cc135e0cebb02c3480ae5d74d377283180a2601f8f644edf7987b009316c63a60405160405180910390a281600781905550505050565b60008060009054906101000a900473ffffffffffffffffffffffffffffffffffffffff16905090565b60116020528060005260406000206000915090508060000160009054906101000a900473ffffffffffffffffffffffffffffffffffffffff16908060010154908060020154908060030160009054906101000a900460ff16905084565b60006109ee600d543063836facd460e01b611180565b9050610ac46040518060400160405280600481526020017f6369747900000000000000000000000000000000000000000000000000000000815250600f8054610a36906123e1565b80601f0160208091040260200160405190810160405280929190818152602001828054610a62906123e1565b8015610aaf5780601f10610a8457610100808354040283529160200191610aaf565b820191906000526020600020905b815481529060010190602001808311610a9257829003601f168201915b5050505050836111b19092919063ffffffff16565b610af3600c60009054906101000a900473ffffffffffffffffffffffffffffffffffffffff1682600e546111e4565b5050565b610aff6110b4565b73ffffffffffffffffffffffffffffffffffffffff16610b1d610952565b73ffffffffffffffffffffffffffffffffffffffff1614610b73576040517f08c379a0000000000000000000000000000000000000000000000000000000008152600401610b6a906121f4565b60405180910390fd5b60005b601280549050811015610c61576011600060128381548110610b9b57610b9a6120da565b5b9060005260206000200160009054906101000a900473ffffffffffffffffffffffffffffffffffffffff1673ffffffffffffffffffffffffffffffffffffffff1673ffffffffffffffffffffffffffffffffffffffff168152602001908152602001600020600080820160006101000a81549073ffffffffffffffffffffffffffffffffffffffff0219169055600182016000905560028201600090556003820160006101000a81549060ff021916905550508080610c5990612109565b915050610b76565b5060126000610c709190611959565b565b60128181548110610c8257600080fd5b906000526020600020016000915054906101000a900473ffffffffffffffffffffffffffffffffffffffff1681565b610cb96110b4565b73ffffffffffffffffffffffffffffffffffffffff16610cd7610952565b73ffffffffffffffffffffffffffffffffffffffff1614610d2d576040517f08c379a0000000000000000000000000000000000000000000000000000000008152600401610d24906121f4565b60405180910390fd5b80600f9080519060200190610d4392919061197a565b5050565b610d4f6110b4565b73ffffffffffffffffffffffffffffffffffffffff16610d6d610952565b73ffffffffffffffffffffffffffffffffffffffff1614610dc3576040517f08c379a0000000000000000000000000000000000000000000000000000000008152600401610dba906121f4565b60405180910390fd5b600073ffffffffffffffffffffffffffffffffffffffff168173ffffffffffffffffffffffffffffffffffffffff161415610e33576040517f08c379a0000000000000000000000000000000000000000000000000000000008152600401610e2a90612485565b60405180910390fd5b610e3c816110bc565b50565b601060009054906101000a900473ffffffffffffffffffffffffffffffffffffffff1681565b600f8054610e72906123e1565b80601f0160208091040260200160405190810160405280929190818152602001828054610e9e906123e1565b8015610eeb5780601f10610ec057610100808354040283529160200191610eeb565b820191906000526020600020905b815481529060010190602001808311610ece57829003601f168201915b505050505081565b60085481565b60095481565b6060600060128054905067ffffffffffffffff811115610f2257610f21611d2b565b5b604051908082528060200260200182016040528015610f5b57816020015b610f48611a00565b815260200190600190039081610f405790505b50905060005b6012805490508110156110ac576011600060128381548110610f8657610f856120da565b5b9060005260206000200160009054906101000a900473ffffffffffffffffffffffffffffffffffffffff1673ffffffffffffffffffffffffffffffffffffffff1673ffffffffffffffffffffffffffffffffffffffff1681526020019081526020016000206040518060800160405290816000820160009054906101000a900473ffffffffffffffffffffffffffffffffffffffff1673ffffffffffffffffffffffffffffffffffffffff1673ffffffffffffffffffffffffffffffffffffffff16815260200160018201548152602001600282015481526020016003820160009054906101000a900460ff16151515158152505082828151811061108e5761108d6120da565b5b602002602001018190525080806110a490612109565b915050610f61565b508091505090565b600033905090565b60008060009054906101000a900473ffffffffffffffffffffffffffffffffffffffff169050816000806101000a81548173ffffffffffffffffffffffffffffffffffffffff021916908373ffffffffffffffffffffffffffffffffffffffff1602179055508173ffffffffffffffffffffffffffffffffffffffff168173ffffffffffffffffffffffffffffffffffffffff167f8be0079c531659141344cd1fd0a4f28419497f9722a3daafe3b4186f6b6457e060405160405180910390a35050565b611188611a40565b611190611a40565b6111a785858584611204909392919063ffffffff16565b9150509392505050565b6111c88284608001516112b490919063ffffffff16565b6111df8184608001516112b490919063ffffffff16565b505050565b60006111fb8484846001634042994660e01b6112d9565b90509392505050565b61120c611a40565b61121c8560800151610100611532565b508385600001818152505082856020019073ffffffffffffffffffffffffffffffffffffffff16908173ffffffffffffffffffffffffffffffffffffffff16815250508185604001907bffffffffffffffffffffffffffffffffffffffffffffffffffffffff191690817bffffffffffffffffffffffffffffffffffffffffffffffffffffffff191681525050849050949350505050565b6112c1826003835161159c565b6112d481836116e190919063ffffffff16565b505050565b6000306005546040516020016112f092919061255e565b604051602081830303815290604052805190602001209050600554856060018181525050856006600083815260200190815260200160002060006101000a81548173ffffffffffffffffffffffffffffffffffffffff021916908373ffffffffffffffffffffffffffffffffffffffff160217905550807fb5e6e01e79f91267dc17b4e6314d5d4d03593d2ceee0fbb452b750bd70ea5af960405160405180910390a2600082600080886000015189602001518a604001518b606001518a8d60800151600001516040516024016113ce989796959493929190612629565b604051602081830303815290604052907bffffffffffffffffffffffffffffffffffffffffffffffffffffffff19166020820180517bffffffffffffffffffffffffffffffffffffffffffffffffffffffff83818316178352505050509050600360009054906101000a900473ffffffffffffffffffffffffffffffffffffffff1673ffffffffffffffffffffffffffffffffffffffff16634000aea08887846040518463ffffffff1660e01b815260040161148c939291906126ae565b6020604051808303816000875af11580156114ab573d6000803e3d6000fd5b505050506040513d601f19601f820116820180604052508101906114cf9190612718565b61150e576040517f08c379a0000000000000000000000000000000000000000000000000000000008152600401611505906127b7565b60405180910390fd5b6001600560008282546115219190612152565b925050819055505095945050505050565b61153a611aad565b600060208361154991906127d7565b146115755760208261155b91906127d7565b602061156791906122ec565b826115729190612152565b91505b81836020018181525050604051808452600081528281016020016040525082905092915050565b601781116115c9576115c38160058460ff16901b60ff16178461170390919063ffffffff16565b506116dc565b60ff811161160b576115ee601860058460ff16901b178461170390919063ffffffff16565b50611605816001856117239092919063ffffffff16565b506116db565b61ffff811161164e57611631601960058460ff16901b178461170390919063ffffffff16565b50611648816002856117239092919063ffffffff16565b506116da565b63ffffffff811161169357611676601a60058460ff16901b178461170390919063ffffffff16565b5061168d816004856117239092919063ffffffff16565b506116d9565b67ffffffffffffffff81116116d8576116bf601b60058460ff16901b178461170390919063ffffffff16565b506116d6816008856117239092919063ffffffff16565b505b5b5b5b5b505050565b6116e9611aad565b6116fb83846000015151848551611745565b905092915050565b61170b611aad565b61171b8384600001515184611834565b905092915050565b61172b611aad565b61173c84856000015151858561188b565b90509392505050565b61174d611aad565b825182111561175b57600080fd5b8460200151828561176c9190612152565b11156117a1576117a08560026117918860200151888761178c9190612152565b611919565b61179b9190611fb4565b611935565b5b6000808651805187602083010193508088870111156117c05787860182525b60208701925050505b6020841061180757805182526020826117e29190612152565b91506020816117f19190612152565b905060208461180091906122ec565b93506117c9565b60006001856020036101000a03905080198251168184511681811785525050508692505050949350505050565b61183c611aad565b8360200151831061186257611861846002866020015161185c9190611fb4565b611935565b5b835180516020858301018481538186141561187e576001820183525b5050508390509392505050565b611893611aad565b846020015184836118a49190612152565b11156118cc576118cb85600286856118bc9190612152565b6118c69190611fb4565b611935565b5b60006001836101006118de919061293b565b6118e891906122ec565b9050855183868201018583198251161781528151858801111561190b5784870182525b505085915050949350505050565b60008183111561192b5782905061192f565b8190505b92915050565b6000826000015190506119488383611532565b5061195383826116e1565b50505050565b50805460008255906000526020600020908101906119779190611ac7565b50565b828054611986906123e1565b90600052602060002090601f0160209004810192826119a857600085556119ef565b82601f106119c157805160ff19168380011785556119ef565b828001600101855582156119ef579182015b828111156119ee5782518255916020019190600101906119d3565b5b5090506119fc9190611ac7565b5090565b6040518060800160405280600073ffffffffffffffffffffffffffffffffffffffff16815260200160008152602001600081526020016000151581525090565b6040518060a0016040528060008019168152602001600073ffffffffffffffffffffffffffffffffffffffff16815260200160007bffffffffffffffffffffffffffffffffffffffffffffffffffffffff1916815260200160008152602001611aa7611aad565b81525090565b604051806040016040528060608152602001600081525090565b5b80821115611ae0576000816000905550600101611ac8565b5090565b6000819050919050565b611af781611ae4565b82525050565b6000602082019050611b126000830184611aee565b92915050565b6000604051905090565b600080fd5b600080fd5b611b3581611ae4565b8114611b4057600080fd5b50565b600081359050611b5281611b2c565b92915050565b600060208284031215611b6e57611b6d611b22565b5b6000611b7c84828501611b43565b91505092915050565b6000819050919050565b611b9881611b85565b8114611ba357600080fd5b50565b600081359050611bb581611b8f565b92915050565b60008060408385031215611bd257611bd1611b22565b5b6000611be085828601611ba6565b9250506020611bf185828601611b43565b9150509250929050565b600073ffffffffffffffffffffffffffffffffffffffff82169050919050565b6000611c2682611bfb565b9050919050565b611c3681611c1b565b82525050565b6000602082019050611c516000830184611c2d565b92915050565b611c6081611c1b565b8114611c6b57600080fd5b50565b600081359050611c7d81611c57565b92915050565b600060208284031215611c9957611c98611b22565b5b6000611ca784828501611c6e565b91505092915050565b60008115159050919050565b611cc581611cb0565b82525050565b6000608082019050611ce06000830187611c2d565b611ced6020830186611aee565b611cfa6040830185611aee565b611d076060830184611cbc565b95945050505050565b600080fd5b600080fd5b6000601f19601f8301169050919050565b7f4e487b7100000000000000000000000000000000000000000000000000000000600052604160045260246000fd5b611d6382611d1a565b810181811067ffffffffffffffff82111715611d8257611d81611d2b565b5b80604052505050565b6000611d95611b18565b9050611da18282611d5a565b919050565b600067ffffffffffffffff821115611dc157611dc0611d2b565b5b611dca82611d1a565b9050602081019050919050565b82818337600083830152505050565b6000611df9611df484611da6565b611d8b565b905082815260208101848484011115611e1557611e14611d15565b5b611e20848285611dd7565b509392505050565b600082601f830112611e3d57611e3c611d10565b5b8135611e4d848260208601611de6565b91505092915050565b600060208284031215611e6c57611e6b611b22565b5b600082013567ffffffffffffffff811115611e8a57611e89611b27565b5b611e9684828501611e28565b91505092915050565b6000611eaa82611bfb565b9050919050565b611eba81611e9f565b82525050565b6000602082019050611ed56000830184611eb1565b92915050565b600081519050919050565b600082825260208201905092915050565b60005b83811015611f15578082015181840152602081019050611efa565b83811115611f24576000848401525b50505050565b6000611f3582611edb565b611f3f8185611ee6565b9350611f4f818560208601611ef7565b611f5881611d1a565b840191505092915050565b60006020820190508181036000830152611f7d8184611f2a565b905092915050565b7f4e487b7100000000000000000000000000000000000000000000000000000000600052601160045260246000fd5b6000611fbf82611ae4565b9150611fca83611ae4565b9250817fffffffffffffffffffffffffffffffffffffffffffffffffffffffffffffffff048311821515161561200357612002611f85565b5b828202905092915050565b7f4e487b7100000000000000000000000000000000000000000000000000000000600052601260045260246000fd5b600061204882611ae4565b915061205383611ae4565b9250826120635761206261200e565b5b828204905092915050565b7f50656f706c65206e65656420746f206861766520677565737365640000000000600082015250565b60006120a4601b83611ee6565b91506120af8261206e565b602082019050919050565b600060208201905081810360008301526120d381612097565b9050919050565b7f4e487b7100000000000000000000000000000000000000000000000000000000600052603260045260246000fd5b600061211482611ae4565b91507fffffffffffffffffffffffffffffffffffffffffffffffffffffffffffffffff82141561214757612146611f85565b5b600182019050919050565b600061215d82611ae4565b915061216883611ae4565b9250827fffffffffffffffffffffffffffffffffffffffffffffffffffffffffffffffff0382111561219d5761219c611f85565b5b828201905092915050565b7f4f776e61626c653a2063616c6c6572206973206e6f7420746865206f776e6572600082015250565b60006121de602083611ee6565b91506121e9826121a8565b602082019050919050565b6000602082019050818103600083015261220d816121d1565b9050919050565b7f5573657220616c72656164792067756573736564210000000000000000000000600082015250565b600061224a601583611ee6565b915061225582612214565b602082019050919050565b600060208201905081810360008301526122798161223d565b9050919050565b7f5468652062657474696e6720706572696f64206973206f7665722e0000000000600082015250565b60006122b6601b83611ee6565b91506122c182612280565b602082019050919050565b600060208201905081810360008301526122e5816122a9565b9050919050565b60006122f782611ae4565b915061230283611ae4565b92508282101561231557612314611f85565b5b828203905092915050565b7f536f75726365206d75737420626520746865206f7261636c65206f662074686560008201527f2072657175657374000000000000000000000000000000000000000000000000602082015250565b600061237c602883611ee6565b915061238782612320565b604082019050919050565b600060208201905081810360008301526123ab8161236f565b9050919050565b7f4e487b7100000000000000000000000000000000000000000000000000000000600052602260045260246000fd5b600060028204905060018216806123f957607f821691505b6020821081141561240d5761240c6123b2565b5b50919050565b7f4f776e61626c653a206e6577206f776e657220697320746865207a65726f206160008201527f6464726573730000000000000000000000000000000000000000000000000000602082015250565b600061246f602683611ee6565b915061247a82612413565b604082019050919050565b6000602082019050818103600083015261249e81612462565b9050919050565b6000819050919050565b60006124ca6124c56124c084611bfb565b6124a5565b611bfb565b9050919050565b60006124dc826124af565b9050919050565b60006124ee826124d1565b9050919050565b60008160601b9050919050565b600061250d826124f5565b9050919050565b600061251f82612502565b9050919050565b612537612532826124e3565b612514565b82525050565b6000819050919050565b61255861255382611ae4565b61253d565b82525050565b600061256a8285612526565b60148201915061257a8284612547565b6020820191508190509392505050565b61259381611b85565b82525050565b60007fffffffff0000000000000000000000000000000000000000000000000000000082169050919050565b6125ce81612599565b82525050565b600081519050919050565b600082825260208201905092915050565b60006125fb826125d4565b61260581856125df565b9350612615818560208601611ef7565b61261e81611d1a565b840191505092915050565b60006101008201905061263f600083018b611c2d565b61264c602083018a611aee565b612659604083018961258a565b6126666060830188611c2d565b61267360808301876125c5565b61268060a0830186611aee565b61268d60c0830185611aee565b81810360e083015261269f81846125f0565b90509998505050505050505050565b60006060820190506126c36000830186611c2d565b6126d06020830185611aee565b81810360408301526126e281846125f0565b9050949350505050565b6126f581611cb0565b811461270057600080fd5b50565b600081519050612712816126ec565b92915050565b60006020828403121561272e5761272d611b22565b5b600061273c84828501612703565b91505092915050565b7f756e61626c6520746f207472616e73666572416e6443616c6c20746f206f726160008201527f636c650000000000000000000000000000000000000000000000000000000000602082015250565b60006127a1602383611ee6565b91506127ac82612745565b604082019050919050565b600060208201905081810360008301526127d081612794565b9050919050565b60006127e282611ae4565b91506127ed83611ae4565b9250826127fd576127fc61200e565b5b828206905092915050565b60008160011c9050919050565b6000808291508390505b600185111561285f5780860481111561283b5761283a611f85565b5b600185161561284a5780820291505b808102905061285885612808565b945061281f565b94509492505050565b6000826128785760019050612934565b816128865760009050612934565b816001811461289c57600281146128a6576128d5565b6001915050612934565b60ff8411156128b8576128b7611f85565b5b8360020a9150848211156128cf576128ce611f85565b5b50612934565b5060208310610133831016604e8410600b841016171561290a5782820a90508381111561290557612904611f85565b5b612934565b6129178484846001612815565b9250905081840481111561292e5761292d611f85565b5b81810290505b9392505050565b600061294682611ae4565b915061295183611ae4565b925061297e7fffffffffffffffffffffffffffffffffffffffffffffffffffffffffffffffff8484612868565b90509291505056fea26469706673582212209894f516e7880a8e6b725ad6b453853bbe6ef1b04109fdb52acab499672e665864736f6c634300080a0033",
  "linkReferences": {},
  "deployedLinkReferences": {}
}